{
  "contractName": "Dummy",
  "abi": [
    {
      "constant": true,
      "inputs": [],
      "name": "value",
      "outputs": [
        {
          "internalType": "uint256",
          "name": "",
          "type": "uint256"
        }
      ],
      "payable": false,
      "stateMutability": "view",
      "type": "function"
    },
    {
      "constant": false,
      "inputs": [],
      "name": "inc",
      "outputs": [],
      "payable": false,
      "stateMutability": "nonpayable",
      "type": "function"
    },
    {
      "constant": false,
      "inputs": [],
      "name": "ko",
      "outputs": [],
      "payable": false,
      "stateMutability": "nonpayable",
      "type": "function"
    }
  ],
  "bytecode": "0x60806040526000805534801561001457600080fd5b5060f3806100236000396000f3fe6080604052348015600f57600080fd5b5060043610603c5760003560e01c8063371303c01460415780633a9919b01460495780633fa4f24514604f575b600080fd5b60476067565b005b60476072565b605560b8565b60408051918252519081900360200190f35b600080546001019055565b6040805162461bcd60e51b8152602060048201526016602482015275151a1a5cc8195c9c9bdc881a5cc8195e1c1958dd195960521b604482015290519081900360640190fd5b6000548156fea265627a7a723158206793b16f616528c800a607729a6881033116a865f96a7c43a221bb9e338fffde64736f6c634300050f0032",
  "source": "pragma solidity 0.5.15;\n\ncontract Dummy {\n\n    uint256 public value = 0;\n\n    function inc() public {\n        value += 1;\n    }\n\n    function ko() public {\n        revert(\"This error is expected\");\n    }\n\n}\n",
  "sourcePath": "/Users/mortimr/projects/repo/modules/@contracts_t721admin/contracts/Dummy.sol",
  "compiler": {
    "name": "solc",
    "version": "0.5.15+commit.6a57276f.Emscripten.clang"
  },
  "schemaVersion": "3.0.9",
  "updatedAt": "2020-05-20T14:28:34.035Z",
  "devdoc": {
    "methods": {}
  },
  "userdoc": {
    "methods": {}
  }
}