{
  "contractName": "Ownable",
  "abi": [
    {
      "inputs": [],
      "payable": false,
      "stateMutability": "nonpayable",
      "type": "constructor"
    },
    {
      "constant": true,
      "inputs": [
        {
          "internalType": "address",
          "name": "",
          "type": "address"
        }
      ],
      "name": "owners",
      "outputs": [
        {
          "internalType": "bool",
          "name": "",
          "type": "bool"
        }
      ],
      "payable": false,
      "stateMutability": "view",
      "type": "function"
    },
    {
      "constant": false,
      "inputs": [
        {
          "internalType": "address",
          "name": "_newOwner",
          "type": "address"
        }
      ],
      "name": "addOwner",
      "outputs": [],
      "payable": false,
      "stateMutability": "nonpayable",
      "type": "function"
    }
  ],
  "bytecode": "0x608060405234801561001057600080fd5b50336000908152602081905260409020805460ff191660011790556102148061003a6000396000f3fe608060405234801561001057600080fd5b50600436106100365760003560e01c8063022914a71461003b5780637065cb4814610075575b600080fd5b6100616004803603602081101561005157600080fd5b50356001600160a01b031661009d565b604080519115158252519081900360200190f35b61009b6004803603602081101561008b57600080fd5b50356001600160a01b03166100b2565b005b60006020819052908152604090205460ff1681565b3360009081526020819052604090205460ff1615156001146101055760405162461bcd60e51b81526004018080602001828103825260378152602001806101a96037913960400191505060405180910390fd5b6001600160a01b03811660009081526020819052604090205460ff161561015d5760405162461bcd60e51b81526004018080602001828103825260278152602001806101826027913960400191505060405180910390fd5b6001600160a01b03166000908152602081905260409020805460ff1916600117905556fe4f776e61626c653a3a616464207c206164647265737320697320616c7265616479206f776e65724f776e61626c653a3a6f6e6c794f776e6572207c204f6e6c79206f776e65727320616c6c6f77656420746f2063616c6c206d6574686f64a265627a7a72315820c6be0f584d2208063eaa124d3361283edace6eb235fc68b0802f82a267cace5a64736f6c634300050f0032",
  "source": "pragma solidity 0.5.15;\n\ncontract Ownable {\n\n    mapping(address => bool) public owners;\n\n    constructor() public {\n        owners[msg.sender] = true;\n    }\n\n    modifier onlyOwner() {\n        require(owners[msg.sender] == true, \"Ownable::onlyOwner | Only owners allowed to call method\");\n        _;\n    }\n\n    function addOwner(address _newOwner) public onlyOwner {\n        require(owners[_newOwner] == false, \"Ownable::add | address is already owner\");\n        owners[_newOwner] = true;\n    }\n\n}\n",
  "sourcePath": "/Users/mortimr/projects/repo/modules/@contracts_t721admin/contracts/Ownable.sol",
  "compiler": {
    "name": "solc",
    "version": "0.5.15+commit.6a57276f.Emscripten.clang"
  },
  "schemaVersion": "3.0.9",
  "updatedAt": "2020-07-16T15:56:50.117Z",
  "devdoc": {
    "methods": {}
  },
  "userdoc": {
    "methods": {}
  }
}