{
  "contractName": "T721TokenMock",
  "abi": [
    {
      "inputs": [],
      "payable": false,
      "stateMutability": "nonpayable",
      "type": "constructor"
    },
    {
      "anonymous": false,
      "inputs": [
        {
          "indexed": true,
          "internalType": "address",
          "name": "owner",
          "type": "address"
        },
        {
          "indexed": true,
          "internalType": "address",
          "name": "spender",
          "type": "address"
        },
        {
          "indexed": false,
          "internalType": "uint256",
          "name": "value",
          "type": "uint256"
        }
      ],
      "name": "Approval",
      "type": "event"
    },
    {
      "anonymous": false,
      "inputs": [
        {
          "indexed": true,
          "internalType": "address",
          "name": "from",
          "type": "address"
        },
        {
          "indexed": true,
          "internalType": "address",
          "name": "to",
          "type": "address"
        },
        {
          "indexed": false,
          "internalType": "uint256",
          "name": "value",
          "type": "uint256"
        }
      ],
      "name": "Transfer",
      "type": "event"
    },
    {
      "constant": false,
      "inputs": [
        {
          "internalType": "address",
          "name": "_newOwner",
          "type": "address"
        }
      ],
      "name": "addOwner",
      "outputs": [],
      "payable": false,
      "stateMutability": "nonpayable",
      "type": "function"
    },
    {
      "constant": true,
      "inputs": [
        {
          "internalType": "address",
          "name": "owner",
          "type": "address"
        },
        {
          "internalType": "address",
          "name": "spender",
          "type": "address"
        }
      ],
      "name": "allowance",
      "outputs": [
        {
          "internalType": "uint256",
          "name": "",
          "type": "uint256"
        }
      ],
      "payable": false,
      "stateMutability": "view",
      "type": "function"
    },
    {
      "constant": false,
      "inputs": [
        {
          "internalType": "address",
          "name": "spender",
          "type": "address"
        },
        {
          "internalType": "uint256",
          "name": "value",
          "type": "uint256"
        }
      ],
      "name": "approve",
      "outputs": [
        {
          "internalType": "bool",
          "name": "",
          "type": "bool"
        }
      ],
      "payable": false,
      "stateMutability": "nonpayable",
      "type": "function"
    },
    {
      "constant": true,
      "inputs": [
        {
          "internalType": "address",
          "name": "account",
          "type": "address"
        }
      ],
      "name": "balanceOf",
      "outputs": [
        {
          "internalType": "uint256",
          "name": "",
          "type": "uint256"
        }
      ],
      "payable": false,
      "stateMutability": "view",
      "type": "function"
    },
    {
      "constant": true,
      "inputs": [],
      "name": "decimals",
      "outputs": [
        {
          "internalType": "uint8",
          "name": "",
          "type": "uint8"
        }
      ],
      "payable": false,
      "stateMutability": "view",
      "type": "function"
    },
    {
      "constant": false,
      "inputs": [
        {
          "internalType": "address",
          "name": "spender",
          "type": "address"
        },
        {
          "internalType": "uint256",
          "name": "subtractedValue",
          "type": "uint256"
        }
      ],
      "name": "decreaseAllowance",
      "outputs": [
        {
          "internalType": "bool",
          "name": "",
          "type": "bool"
        }
      ],
      "payable": false,
      "stateMutability": "nonpayable",
      "type": "function"
    },
    {
      "constant": false,
      "inputs": [
        {
          "internalType": "address",
          "name": "spender",
          "type": "address"
        },
        {
          "internalType": "uint256",
          "name": "addedValue",
          "type": "uint256"
        }
      ],
      "name": "increaseAllowance",
      "outputs": [
        {
          "internalType": "bool",
          "name": "",
          "type": "bool"
        }
      ],
      "payable": false,
      "stateMutability": "nonpayable",
      "type": "function"
    },
    {
      "constant": true,
      "inputs": [],
      "name": "name",
      "outputs": [
        {
          "internalType": "string",
          "name": "",
          "type": "string"
        }
      ],
      "payable": false,
      "stateMutability": "view",
      "type": "function"
    },
    {
      "constant": true,
      "inputs": [
        {
          "internalType": "address",
          "name": "",
          "type": "address"
        }
      ],
      "name": "owners",
      "outputs": [
        {
          "internalType": "bool",
          "name": "",
          "type": "bool"
        }
      ],
      "payable": false,
      "stateMutability": "view",
      "type": "function"
    },
    {
      "constant": true,
      "inputs": [],
      "name": "symbol",
      "outputs": [
        {
          "internalType": "string",
          "name": "",
          "type": "string"
        }
      ],
      "payable": false,
      "stateMutability": "view",
      "type": "function"
    },
    {
      "constant": true,
      "inputs": [],
      "name": "totalSupply",
      "outputs": [
        {
          "internalType": "uint256",
          "name": "",
          "type": "uint256"
        }
      ],
      "payable": false,
      "stateMutability": "view",
      "type": "function"
    },
    {
      "constant": false,
      "inputs": [
        {
          "internalType": "address",
          "name": "recipient",
          "type": "address"
        },
        {
          "internalType": "uint256",
          "name": "amount",
          "type": "uint256"
        }
      ],
      "name": "transfer",
      "outputs": [
        {
          "internalType": "bool",
          "name": "",
          "type": "bool"
        }
      ],
      "payable": false,
      "stateMutability": "nonpayable",
      "type": "function"
    },
    {
      "constant": false,
      "inputs": [
        {
          "internalType": "address",
          "name": "sender",
          "type": "address"
        },
        {
          "internalType": "address",
          "name": "recipient",
          "type": "address"
        },
        {
          "internalType": "uint256",
          "name": "amount",
          "type": "uint256"
        }
      ],
      "name": "transferFrom",
      "outputs": [
        {
          "internalType": "bool",
          "name": "",
          "type": "bool"
        }
      ],
      "payable": false,
      "stateMutability": "nonpayable",
      "type": "function"
    },
    {
      "constant": false,
      "inputs": [
        {
          "internalType": "address",
          "name": "_recipient",
          "type": "address"
        },
        {
          "internalType": "uint256",
          "name": "_amount",
          "type": "uint256"
        }
      ],
      "name": "mintFor",
      "outputs": [],
      "payable": false,
      "stateMutability": "nonpayable",
      "type": "function"
    },
    {
      "constant": false,
      "inputs": [
        {
          "internalType": "uint256",
          "name": "_amount",
          "type": "uint256"
        }
      ],
      "name": "burn",
      "outputs": [],
      "payable": false,
      "stateMutability": "nonpayable",
      "type": "function"
    }
  ],
  "bytecode": "0x608060405234801561001057600080fd5b50604080518082018252600a8152692a1b9918902a37b5b2b760b11b602080830191825283518085019094526005845264150dcc8c5560da1b90840152815191929160129161006291600391906100aa565b5081516100769060049060208501906100aa565b506005805460ff90921660ff1992831617905533600090815260066020526040902080549091166001179055506101459050565b828054600181600116156101000203166002900490600052602060002090601f016020900481019282601f106100eb57805160ff1916838001178555610118565b82800160010185558215610118579182015b828111156101185782518255916020019190600101906100fd565b50610124929150610128565b5090565b61014291905b80821115610124576000815560010161012e565b90565b610d9d806101546000396000f3fe608060405234801561001057600080fd5b50600436106100f55760003560e01c806342966c6811610097578063a457c2d711610066578063a457c2d7146102ea578063a9059cbb14610316578063da1919b314610342578063dd62ed3e1461036e576100f5565b806342966c68146102775780637065cb481461029657806370a08231146102bc57806395d89b41146102e2576100f5565b806318160ddd116100d357806318160ddd146101dd57806323b872dd146101f7578063313ce5671461022d578063395093511461024b576100f5565b8063022914a7146100fa57806306fdde0314610134578063095ea7b3146101b1575b600080fd5b6101206004803603602081101561011057600080fd5b50356001600160a01b031661039c565b604080519115158252519081900360200190f35b61013c6103b1565b6040805160208082528351818301528351919283929083019185019080838360005b8381101561017657818101518382015260200161015e565b50505050905090810190601f1680156101a35780820380516001836020036101000a031916815260200191505b509250505060405180910390f35b610120600480360360408110156101c757600080fd5b506001600160a01b038135169060200135610447565b6101e561045d565b60408051918252519081900360200190f35b6101206004803603606081101561020d57600080fd5b506001600160a01b03813581169160208101359091169060400135610463565b6102356104ba565b6040805160ff9092168252519081900360200190f35b6101206004803603604081101561026157600080fd5b506001600160a01b0381351690602001356104c3565b6102946004803603602081101561028d57600080fd5b50356104ff565b005b610294600480360360208110156102ac57600080fd5b50356001600160a01b0316610553565b6101e5600480360360208110156102d257600080fd5b50356001600160a01b0316610622565b61013c61063d565b6101206004803603604081101561030057600080fd5b506001600160a01b03813516906020013561069e565b6101206004803603604081101561032c57600080fd5b506001600160a01b0381351690602001356106da565b6102946004803603604081101561035857600080fd5b506001600160a01b0381351690602001356106e7565b6101e56004803603604081101561038457600080fd5b506001600160a01b0381358116916020013516610748565b60066020526000908152604090205460ff1681565b60038054604080516020601f600260001961010060018816150201909516949094049384018190048102820181019092528281526060939092909183018282801561043d5780601f106104125761010080835404028352916020019161043d565b820191906000526020600020905b81548152906001019060200180831161042057829003601f168201915b5050505050905090565b6000610454338484610773565b50600192915050565b60025490565b600061047084848461085f565b6001600160a01b0384166000908152600160209081526040808320338085529252909120546104b09186916104ab908663ffffffff6109a116565b610773565b5060019392505050565b60055460ff1690565b3360008181526001602090815260408083206001600160a01b038716845290915281205490916104549185906104ab908663ffffffff6109fe16565b8061050933610622565b10156105465760405162461bcd60e51b8152600401808060200182810382526033815260200180610c4c6033913960400191505060405180910390fd5b6105503382610a5f565b50565b3360009081526006602052604090205460ff1615156001146105a65760405162461bcd60e51b8152600401808060200182810382526037815260200180610cc86037913960400191505060405180910390fd5b6001600160a01b03811660009081526006602052604090205460ff16156105fe5760405162461bcd60e51b8152600401808060200182810382526027815260200180610ca16027913960400191505060405180910390fd5b6001600160a01b03166000908152600660205260409020805460ff19166001179055565b6001600160a01b031660009081526020819052604090205490565b60048054604080516020601f600260001961010060018816150201909516949094049384018190048102820181019092528281526060939092909183018282801561043d5780601f106104125761010080835404028352916020019161043d565b3360008181526001602090815260408083206001600160a01b038716845290915281205490916104549185906104ab908663ffffffff6109a116565b600061045433848461085f565b3360009081526006602052604090205460ff16151560011461073a5760405162461bcd60e51b8152600401808060200182810382526037815260200180610cc86037913960400191505060405180910390fd5b6107448282610b38565b5050565b6001600160a01b03918216600090815260016020908152604080832093909416825291909152205490565b6001600160a01b0383166107b85760405162461bcd60e51b8152600401808060200182810382526024815260200180610d456024913960400191505060405180910390fd5b6001600160a01b0382166107fd5760405162461bcd60e51b8152600401808060200182810382526022815260200180610c7f6022913960400191505060405180910390fd5b6001600160a01b03808416600081815260016020908152604080832094871680845294825291829020859055815185815291517f8c5be1e5ebec7d5bd14f71427d1e84f3dd0314c0f7b2291e5b200ac8c7c3b9259281900390910190a3505050565b6001600160a01b0383166108a45760405162461bcd60e51b8152600401808060200182810382526025815260200180610d206025913960400191505060405180910390fd5b6001600160a01b0382166108e95760405162461bcd60e51b8152600401808060200182810382526023815260200180610c296023913960400191505060405180910390fd5b6001600160a01b038316600090815260208190526040902054610912908263ffffffff6109a116565b6001600160a01b038085166000908152602081905260408082209390935590841681522054610947908263ffffffff6109fe16565b6001600160a01b038084166000818152602081815260409182902094909455805185815290519193928716927fddf252ad1be2c89b69c2b068fc378daa952ba7f163c4a11628f55a4df523b3ef92918290030190a3505050565b6000828211156109f8576040805162461bcd60e51b815260206004820152601e60248201527f536166654d6174683a207375627472616374696f6e206f766572666c6f770000604482015290519081900360640190fd5b50900390565b600082820183811015610a58576040805162461bcd60e51b815260206004820152601b60248201527f536166654d6174683a206164646974696f6e206f766572666c6f770000000000604482015290519081900360640190fd5b9392505050565b6001600160a01b038216610aa45760405162461bcd60e51b8152600401808060200182810382526021815260200180610cff6021913960400191505060405180910390fd5b600254610ab7908263ffffffff6109a116565b6002556001600160a01b038216600090815260208190526040902054610ae3908263ffffffff6109a116565b6001600160a01b038316600081815260208181526040808320949094558351858152935191937fddf252ad1be2c89b69c2b068fc378daa952ba7f163c4a11628f55a4df523b3ef929081900390910190a35050565b6001600160a01b038216610b93576040805162461bcd60e51b815260206004820152601f60248201527f45524332303a206d696e7420746f20746865207a65726f206164647265737300604482015290519081900360640190fd5b600254610ba6908263ffffffff6109fe16565b6002556001600160a01b038216600090815260208190526040902054610bd2908263ffffffff6109fe16565b6001600160a01b0383166000818152602081815260408083209490945583518581529351929391927fddf252ad1be2c89b69c2b068fc378daa952ba7f163c4a11628f55a4df523b3ef9281900390910190a3505056fe45524332303a207472616e7366657220746f20746865207a65726f206164647265737354373231546f6b656e4d6f636b3a3a6275726e207c20696e73756666696369656e742062616c616e636520666f72206275726e45524332303a20617070726f766520746f20746865207a65726f20616464726573734f776e61626c653a3a616464207c206164647265737320697320616c7265616479206f776e65724f776e61626c653a3a6f6e6c794f776e6572207c204f6e6c79206f776e65727320616c6c6f77656420746f2063616c6c206d6574686f6445524332303a206275726e2066726f6d20746865207a65726f206164647265737345524332303a207472616e736665722066726f6d20746865207a65726f206164647265737345524332303a20617070726f76652066726f6d20746865207a65726f2061646472657373a265627a7a7231582053090e33506da9cf49f8d46486b8499e0b457be551805f6166c3ef5530af188c64736f6c634300050f0032",
  "source": "pragma solidity 0.5.15;\n\nimport \"./Ownable.sol\";\nimport \"@openzeppelin/contracts/token/ERC20/ERC20.sol\";\nimport \"@openzeppelin/contracts/token/ERC20/ERC20Detailed.sol\";\nimport \"./IT721Token.sol\";\n\ncontract T721TokenMock is IT721Token, ERC20, ERC20Detailed, Ownable {\n\n    constructor() public ERC20Detailed(\"T721 Token\", \"T721T\", 18) {}\n\n    function mintFor(address _recipient, uint256 _amount) public onlyOwner {\n        ERC20._mint(_recipient, _amount);\n    }\n\n    function burn(uint256 _amount) public {\n        require(ERC20.balanceOf(msg.sender) >= _amount, \"T721TokenMock::burn | insufficient balance for burn\");\n        ERC20._burn(msg.sender, _amount);\n    }\n\n}\n",
  "sourcePath": "/Users/mortimr/projects/repo/modules/@contracts_t721admin/contracts/T721TokenMock.sol",
  "compiler": {
    "name": "solc",
    "version": "0.5.15+commit.6a57276f.Emscripten.clang"
  },
  "schemaVersion": "3.0.9",
  "updatedAt": "2020-05-20T14:28:34.038Z",
  "devdoc": {
    "methods": {
      "allowance(address,address)": {
        "details": "See `IERC20.allowance`."
      },
      "approve(address,uint256)": {
        "details": "See `IERC20.approve`.     * Requirements:     * - `spender` cannot be the zero address."
      },
      "balanceOf(address)": {
        "details": "See `IERC20.balanceOf`."
      },
      "decimals()": {
        "details": "Returns the number of decimals used to get its user representation. For example, if `decimals` equals `2`, a balance of `505` tokens should be displayed to a user as `5,05` (`505 / 10 ** 2`).     * Tokens usually opt for a value of 18, imitating the relationship between Ether and Wei.     * > Note that this information is only used for _display_ purposes: it in no way affects any of the arithmetic of the contract, including `IERC20.balanceOf` and `IERC20.transfer`."
      },
      "decreaseAllowance(address,uint256)": {
        "details": "Atomically decreases the allowance granted to `spender` by the caller.     * This is an alternative to `approve` that can be used as a mitigation for problems described in `IERC20.approve`.     * Emits an `Approval` event indicating the updated allowance.     * Requirements:     * - `spender` cannot be the zero address. - `spender` must have allowance for the caller of at least `subtractedValue`."
      },
      "increaseAllowance(address,uint256)": {
        "details": "Atomically increases the allowance granted to `spender` by the caller.     * This is an alternative to `approve` that can be used as a mitigation for problems described in `IERC20.approve`.     * Emits an `Approval` event indicating the updated allowance.     * Requirements:     * - `spender` cannot be the zero address."
      },
      "name()": {
        "details": "Returns the name of the token."
      },
      "symbol()": {
        "details": "Returns the symbol of the token, usually a shorter version of the name."
      },
      "totalSupply()": {
        "details": "See `IERC20.totalSupply`."
      },
      "transfer(address,uint256)": {
        "details": "See `IERC20.transfer`.     * Requirements:     * - `recipient` cannot be the zero address. - the caller must have a balance of at least `amount`."
      },
      "transferFrom(address,address,uint256)": {
        "details": "See `IERC20.transferFrom`.     * Emits an `Approval` event indicating the updated allowance. This is not required by the EIP. See the note at the beginning of `ERC20`;     * Requirements: - `sender` and `recipient` cannot be the zero address. - `sender` must have a balance of at least `value`. - the caller must have allowance for `sender`'s tokens of at least `amount`."
      }
    }
  },
  "userdoc": {
    "methods": {}
  }
}