{
  "contractName": "T721Admin",
  "abi": [
    {
      "inputs": [
        {
          "internalType": "address[]",
          "name": "_admins",
          "type": "address[]"
        },
        {
          "internalType": "address[]",
          "name": "_minters",
          "type": "address[]"
        },
        {
          "internalType": "address",
          "name": "_t721Token",
          "type": "address"
        },
        {
          "internalType": "uint256",
          "name": "_chainId",
          "type": "uint256"
        }
      ],
      "payable": false,
      "stateMutability": "nonpayable",
      "type": "constructor"
    },
    {
      "anonymous": false,
      "inputs": [
        {
          "indexed": true,
          "internalType": "address",
          "name": "admin",
          "type": "address"
        }
      ],
      "name": "ByeAdmin",
      "type": "event"
    },
    {
      "anonymous": false,
      "inputs": [
        {
          "indexed": true,
          "internalType": "address",
          "name": "minter",
          "type": "address"
        }
      ],
      "name": "ByeMinter",
      "type": "event"
    },
    {
      "anonymous": false,
      "inputs": [
        {
          "indexed": true,
          "internalType": "address",
          "name": "contractAddress",
          "type": "address"
        }
      ],
      "name": "ContractCreated",
      "type": "event"
    },
    {
      "anonymous": false,
      "inputs": [
        {
          "indexed": true,
          "internalType": "address",
          "name": "recipient",
          "type": "address"
        },
        {
          "indexed": true,
          "internalType": "address",
          "name": "minter",
          "type": "address"
        },
        {
          "indexed": false,
          "internalType": "uint256",
          "name": "amount",
          "type": "uint256"
        },
        {
          "indexed": false,
          "internalType": "uint256",
          "name": "code",
          "type": "uint256"
        }
      ],
      "name": "MintTokens",
      "type": "event"
    },
    {
      "anonymous": false,
      "inputs": [
        {
          "indexed": true,
          "internalType": "address",
          "name": "admin",
          "type": "address"
        }
      ],
      "name": "NewAdmin",
      "type": "event"
    },
    {
      "anonymous": false,
      "inputs": [
        {
          "indexed": true,
          "internalType": "address",
          "name": "minter",
          "type": "address"
        }
      ],
      "name": "NewMinter",
      "type": "event"
    },
    {
      "anonymous": false,
      "inputs": [
        {
          "indexed": true,
          "internalType": "address",
          "name": "target",
          "type": "address"
        },
        {
          "indexed": true,
          "internalType": "uint256",
          "name": "reason",
          "type": "uint256"
        },
        {
          "indexed": false,
          "internalType": "uint256",
          "name": "idx",
          "type": "uint256"
        }
      ],
      "name": "NewVote",
      "type": "event"
    },
    {
      "constant": true,
      "inputs": [],
      "name": "adminCount",
      "outputs": [
        {
          "internalType": "uint256",
          "name": "",
          "type": "uint256"
        }
      ],
      "payable": false,
      "stateMutability": "view",
      "type": "function"
    },
    {
      "constant": true,
      "inputs": [],
      "name": "minterCount",
      "outputs": [
        {
          "internalType": "uint256",
          "name": "",
          "type": "uint256"
        }
      ],
      "payable": false,
      "stateMutability": "view",
      "type": "function"
    },
    {
      "constant": true,
      "inputs": [],
      "name": "t721Token",
      "outputs": [
        {
          "internalType": "address",
          "name": "",
          "type": "address"
        }
      ],
      "payable": false,
      "stateMutability": "view",
      "type": "function"
    },
    {
      "constant": true,
      "inputs": [],
      "name": "version",
      "outputs": [
        {
          "internalType": "uint256",
          "name": "",
          "type": "uint256"
        }
      ],
      "payable": false,
      "stateMutability": "view",
      "type": "function"
    },
    {
      "constant": true,
      "inputs": [
        {
          "internalType": "uint256",
          "name": "",
          "type": "uint256"
        }
      ],
      "name": "votes",
      "outputs": [
        {
          "internalType": "uint256",
          "name": "reason",
          "type": "uint256"
        },
        {
          "internalType": "address",
          "name": "target",
          "type": "address"
        },
        {
          "internalType": "uint256",
          "name": "yes",
          "type": "uint256"
        },
        {
          "internalType": "uint256",
          "name": "no",
          "type": "uint256"
        },
        {
          "internalType": "uint256",
          "name": "version",
          "type": "uint256"
        }
      ],
      "payable": false,
      "stateMutability": "view",
      "type": "function"
    },
    {
      "constant": true,
      "inputs": [
        {
          "internalType": "uint256",
          "name": "_code",
          "type": "uint256"
        }
      ],
      "name": "isCodeConsumable",
      "outputs": [
        {
          "internalType": "bool",
          "name": "",
          "type": "bool"
        }
      ],
      "payable": false,
      "stateMutability": "view",
      "type": "function"
    },
    {
      "constant": true,
      "inputs": [
        {
          "internalType": "address",
          "name": "_admin",
          "type": "address"
        }
      ],
      "name": "isAdmin",
      "outputs": [
        {
          "internalType": "bool",
          "name": "",
          "type": "bool"
        }
      ],
      "payable": false,
      "stateMutability": "view",
      "type": "function"
    },
    {
      "constant": true,
      "inputs": [
        {
          "internalType": "address",
          "name": "_minter",
          "type": "address"
        }
      ],
      "name": "isMinter",
      "outputs": [
        {
          "internalType": "bool",
          "name": "",
          "type": "bool"
        }
      ],
      "payable": false,
      "stateMutability": "view",
      "type": "function"
    },
    {
      "constant": false,
      "inputs": [
        {
          "internalType": "address",
          "name": "_minter",
          "type": "address"
        }
      ],
      "name": "addMinter",
      "outputs": [],
      "payable": false,
      "stateMutability": "nonpayable",
      "type": "function"
    },
    {
      "constant": false,
      "inputs": [
        {
          "internalType": "address",
          "name": "_minter",
          "type": "address"
        }
      ],
      "name": "rmMinter",
      "outputs": [],
      "payable": false,
      "stateMutability": "nonpayable",
      "type": "function"
    },
    {
      "constant": false,
      "inputs": [
        {
          "internalType": "address",
          "name": "_admin",
          "type": "address"
        }
      ],
      "name": "addAdmin",
      "outputs": [],
      "payable": false,
      "stateMutability": "nonpayable",
      "type": "function"
    },
    {
      "constant": false,
      "inputs": [
        {
          "internalType": "address",
          "name": "_admin",
          "type": "address"
        }
      ],
      "name": "rmAdmin",
      "outputs": [],
      "payable": false,
      "stateMutability": "nonpayable",
      "type": "function"
    },
    {
      "constant": false,
      "inputs": [
        {
          "internalType": "uint256",
          "name": "idx",
          "type": "uint256"
        },
        {
          "internalType": "bool",
          "name": "_vote",
          "type": "bool"
        }
      ],
      "name": "vote",
      "outputs": [],
      "payable": false,
      "stateMutability": "nonpayable",
      "type": "function"
    },
    {
      "constant": false,
      "inputs": [
        {
          "internalType": "address",
          "name": "_recipient",
          "type": "address"
        },
        {
          "internalType": "uint256",
          "name": "_amount",
          "type": "uint256"
        },
        {
          "internalType": "address",
          "name": "_minter",
          "type": "address"
        },
        {
          "internalType": "uint256",
          "name": "_code",
          "type": "uint256"
        },
        {
          "internalType": "bytes",
          "name": "_signature",
          "type": "bytes"
        }
      ],
      "name": "redeemTokens",
      "outputs": [],
      "payable": false,
      "stateMutability": "nonpayable",
      "type": "function"
    }
  ],
  "bytecode": "0x60806040523480156200001157600080fd5b506040516200196d3803806200196d833981810160405260808110156200003757600080fd5b81019080805160405193929190846401000000008211156200005857600080fd5b9083019060208201858111156200006e57600080fd5b82518660208202830111640100000000821117156200008c57600080fd5b82525081516020918201928201910280838360005b83811015620000bb578181015183820152602001620000a1565b5050505090500160405260200180516040519392919084640100000000821115620000e557600080fd5b908301906020820185811115620000fb57600080fd5b82518660208202830111640100000000821117156200011957600080fd5b82525081516020918201928201910280838360005b83811015620001485781810151838201526020016200012e565b50505050919091016040818152602084810151948201518284018352600a8452692a1b99189020b236b4b760b11b828501528251808401845260018152600360fc1b81840152835160808101855285815292830181905292820181905230606083015294965093945090929091508390620001cc906001600160e01b036200027a16565b6000908155925050505b84518110156200020e5762000205858281518110620001f157fe5b6020026020010151620002fe60201b60201c565b600101620001d6565b5060005b83518110156200024a57620002418482815181106200022d57fe5b60200260200101516200035e60201b60201c565b60010162000212565b50506000600755600180546001600160a01b0319166001600160a01b039290921691909117905550620003be9050565b600060405180806200191b60529139604080519182900360520182208551805160209182012081880151805190830120888501516060808b015185890196909652878701939093529186015260808501526001600160a01b0390911660a0808501919091528251808503909101815260c09093019091528151910120915050919050565b6001600160a01b038116600081815260036020526040808220805460ff191660019081179091556004805482019055600780549091019055517f71614071b88dee5e0b2ae578a9dd7b2ebbe9ae832ba419dc0242cd065a290b6c9190a250565b6001600160a01b038116600081815260056020526040808220805460ff191660019081179091556006805482019055600780549091019055517f6adffd5c93085d835dac6f3b40adf7c242ca4b3284048d20c3d8a501748dc9739190a250565b61154d80620003ce6000396000f3fe608060405234801561001057600080fd5b50600436106100ea5760003560e01c80639ea476eb1161008c578063c6b73abe11610066578063c6b73abe14610258578063c9d27afe146102ee578063d1d7cdf614610313578063da502ee214610339576100ea565b80639ea476eb146101f1578063aa271e1a1461020e578063b0e4cfae14610234576100ea565b80635df81330116100c85780635df813301461014b578063704802751461019b578063983b2d56146101c35780639e46e332146101e9576100ea565b806324d7806c146100ef5780632b7832b31461012957806354fd4d5014610143575b600080fd5b6101156004803603602081101561010557600080fd5b50356001600160a01b031661035f565b604080519115158252519081900360200190f35b61013161037d565b60408051918252519081900360200190f35b610131610383565b6101686004803603602081101561016157600080fd5b5035610389565b604080519586526001600160a01b0390941660208601528484019290925260608401526080830152519081900360a00190f35b6101c1600480360360208110156101b157600080fd5b50356001600160a01b03166103d1565b005b6101c1600480360360208110156101d957600080fd5b50356001600160a01b031661060c565b6101316106b0565b6101156004803603602081101561020757600080fd5b50356106b6565b6101156004803603602081101561022457600080fd5b50356001600160a01b03166106cc565b61023c6106ea565b604080516001600160a01b039092168252519081900360200190f35b6101c1600480360360a081101561026e57600080fd5b6001600160a01b0382358116926020810135926040820135909216916060820135919081019060a0810160808201356401000000008111156102af57600080fd5b8201836020820111156102c157600080fd5b803590602001918460018302840111640100000000831117156102e357600080fd5b5090925090506106f9565b6101c16004803603604081101561030457600080fd5b50803590602001351515610925565b6101c16004803603602081101561032957600080fd5b50356001600160a01b0316610c57565b6101c16004803603602081101561034f57600080fd5b50356001600160a01b0316610cfc565b6001600160a01b031660009081526003602052604090205460ff1690565b60045481565b60075481565b6008818154811061039657fe5b6000918252602090912060069091020180546001820154600283015460038401546005909401549294506001600160a01b0390911692909185565b3360009081526003602052604090205460ff1615156001146104245760405162461bcd60e51b815260040180806020018281038252602a8152602001806114c5602a913960400191505060405180910390fd5b61042d8161035f565b156104695760405162461bcd60e51b815260040180806020018281038252602e815260200180611334602e913960400191505060405180910390fd5b6001600160a01b0381166104ae5760405162461bcd60e51b815260040180806020018281038252602781526020018061141c6027913960400191505060405180910390fd5b6040805160a08101825260018082526001600160a01b03848116602080850182815260008688018181526060880182815260075460808a0190815260088054808b018255945298517ff3f7a9fe364faab93b216da50a3214154f22a0a2b415b23a84c8169e8b636ee3600685029081019190915593517ff3f7a9fe364faab93b216da50a3214154f22a0a2b415b23a84c8169e8b636ee4850180546001600160a01b0319169190981617909655517ff3f7a9fe364faab93b216da50a3214154f22a0a2b415b23a84c8169e8b636ee583015593517ff3f7a9fe364faab93b216da50a3214154f22a0a2b415b23a84c8169e8b636ee682015594517ff3f7a9fe364faab93b216da50a3214154f22a0a2b415b23a84c8169e8b636ee890950194909455845182815294519194929390927f2fa70e1827070583e9d005d8f9615a3c9da46a089c016cf9cd32b1345a473802929081900390910190a35050565b3360009081526003602052604090205460ff16151560011461065f5760405162461bcd60e51b815260040180806020018281038252602a8152602001806114c5602a913960400191505060405180910390fd5b610668816106cc565b156106a45760405162461bcd60e51b81526004018080602001828103825260308152602001806113626030913960400191505060405180910390fd5b6106ad81610ef7565b50565b60065481565b60009081526002602052604090205460ff161590565b6001600160a01b031660009081526005602052604090205460ff1690565b6001546001600160a01b031681565b604080516001600160a01b03808916828401819052606083018990529087166080830181905260a0808401889052602080850191909152600a60c0850152696d696e74546f6b656e7360b01b60e080860191909152855180860390910181526101008501808752815191830191909120610160860187528382526101208601949094526101409094018390528451601f8701829004820281018201909552858552919390926107c5929091908790879081908401838280828437600092019190915250610f5792505050565b6001600160a01b03161461080a5760405162461bcd60e51b815260040180806020018281038252602b81526020018061149a602b913960400191505060405180910390fd5b610813856106cc565b15156001146108535760405162461bcd60e51b815260040180806020018281038252602e815260200180611443602e913960400191505060405180910390fd5b61085c84611032565b6001546040805163da1919b360e01b81526001600160a01b038a81166004830152602482018a90529151919092169163da1919b391604480830192600092919082900301818387803b1580156108b157600080fd5b505af11580156108c5573d6000803e3d6000fd5b50505050846001600160a01b0316876001600160a01b03167ff7522b88782cc7a7c36b07a1d7ffc719e0c1558a2c7484c827b76216096bba748887604051808381526020018281526020019250505060405180910390a350505050505050565b3360009081526003602052604090205460ff1615156001146109785760405162461bcd60e51b815260040180806020018281038252602a8152602001806114c5602a913960400191505060405180910390fd5b60085482106109b85760405162461bcd60e51b81526004018080602001828103825260248152602001806113f86024913960400191505060405180910390fd5b600754600883815481106109c857fe5b90600052602060002090600602016005015414610a2c576040805162461bcd60e51b815260206004820152601f60248201527f5437323141646d696e3a3a766f7465207c206f7574646174656420766f746500604482015290519081900360640190fd5b600181151514610a3d576000610a40565b60015b60010160ff1660088381548110610a5357fe5b60009182526020808320338452600460069093020191909101905260409020541415610ac6576040805162461bcd60e51b815260206004820152601e60248201527f5437323141646d696e3a3a766f7465207c207573656c65737320766f74650000604482015290519081900360640190fd5b600181151514610ad7576000610ada565b60015b60000160ff1660088381548110610aed57fe5b60009182526020909120600260069092020101805490910190558015610b14576000610b17565b60015b60000160ff1660088381548110610b2a57fe5b6000918252602090912060036006909202010180549091019055801515600114610b55576000610b58565b60015b60010160ff1660088381548110610b6b57fe5b600091825260208083203384526004600690930201820190526040909120919091555460088054603292919085908110610ba157fe5b90600052602060002090600602016002015460640281610bbd57fe5b0410610c535760088281548110610bd057fe5b90600052602060002090600602016000015460011415610c2157610c1c60088381548110610bfa57fe5b60009182526020909120600160069092020101546001600160a01b0316611091565b610c53565b610c5360088381548110610c3157fe5b60009182526020909120600160069092020101546001600160a01b03166110f1565b5050565b3360009081526003602052604090205460ff161515600114610caa5760405162461bcd60e51b815260040180806020018281038252602a8152602001806114c5602a913960400191505060405180910390fd5b610cb3816106cc565b1515600114610cf35760405162461bcd60e51b815260040180806020018281038252602b815260200180611392602b913960400191505060405180910390fd5b6106ad8161114d565b3360009081526003602052604090205460ff161515600114610d4f5760405162461bcd60e51b815260040180806020018281038252602a8152602001806114c5602a913960400191505060405180910390fd5b610d588161035f565b1515600114610d985760405162461bcd60e51b81526004018080602001828103825260298152602001806114716029913960400191505060405180910390fd5b6040805160a08101825260028082526001600160a01b03848116602080850182815260008688018181526060880182815260075460808a0190815260088054600181018255945298517ff3f7a9fe364faab93b216da50a3214154f22a0a2b415b23a84c8169e8b636ee3600685029081019190915593517ff3f7a9fe364faab93b216da50a3214154f22a0a2b415b23a84c8169e8b636ee4850180546001600160a01b0319169190981617909655517ff3f7a9fe364faab93b216da50a3214154f22a0a2b415b23a84c8169e8b636ee583015593517ff3f7a9fe364faab93b216da50a3214154f22a0a2b415b23a84c8169e8b636ee682015594517ff3f7a9fe364faab93b216da50a3214154f22a0a2b415b23a84c8169e8b636ee890950194909455845182815294519194929390927f2fa70e1827070583e9d005d8f9615a3c9da46a089c016cf9cd32b1345a473802929081900390910190a35050565b6001600160a01b038116600081815260056020526040808220805460ff191660019081179091556006805482019055600780549091019055517f6adffd5c93085d835dac6f3b40adf7c242ca4b3284048d20c3d8a501748dc9739190a250565b6000610f61611313565b610f6a836111a9565b905060008054610f79866112a5565b604051602001808061190160f01b8152506002018381526020018281526020019250505060405160208183030381529060405280519060200120905060018183600001518460200151856040015160405160008152602001604052604051808581526020018460ff1660ff1681526020018381526020018281526020019450505050506020604051602081039080840390855afa15801561101e573d6000803e3d6000fd5b5050604051601f1901519695505050505050565b61103b816106b6565b6110765760405162461bcd60e51b815260040180806020018281038252602a8152602001806114ef602a913960400191505060405180910390fd5b6000908152600260205260409020805460ff19166001179055565b6001600160a01b038116600081815260036020526040808220805460ff191660019081179091556004805482019055600780549091019055517f71614071b88dee5e0b2ae578a9dd7b2ebbe9ae832ba419dc0242cd065a290b6c9190a250565b6001600160a01b038116600081815260036020526040808220805460ff1916905560048054600019019055600780546001019055517f85e3434905b245fe01560acc657b1c439f61bb2438c8060a740123281e4dcffd9190a250565b6001600160a01b038116600081815260056020526040808220805460ff1916905560068054600019019055600780546001019055517f529e9444a5254994d1885571c8fc72d39bb3b42d18cab7fe48588670c4dfcee39190a250565b6111b1611313565b8151604114611207576040805162461bcd60e51b815260206004820152601860248201527f496e76616c6964207369676e6174757265206c656e6774680000000000000000604482015290519081900360640190fd5b60208201516040830151604184015160ff16601b81101561122657601b015b8060ff16601b148061123b57508060ff16601c145b611281576040805162461bcd60e51b8152602060048201526012602482015271125b9d985b1a59081d88185c99dd5b595b9d60721b604482015290519081900360640190fd5b6040805160608101825260ff90921682526020820193909352918201529050919050565b600060405180806113bd603b91396040805191829003603b018220855160208088015188850151828701949094526001600160a01b03928316868601529190911660608501526080808501929092528251808503909201825260a09093019091528051910120915050919050565b60408051606081018252600080825260208201819052918101919091529056fe5437323141646d696e3a3a61646441646d696e207c206164647265737320697320616c72656164792061646d696e5437323141646d696e3a3a6164644d696e746572207c206164647265737320697320616c7265616479206d696e7465725437323141646d696e3a3a726d4d696e746572207c2061646472657373206973206e6f74206d696e746572417574686f72697a6174696f6e286164647265737320656d69747465722c61646472657373206772616e7465652c627974657333322068617368295437323141646d696e3a3a766f7465207c20696e76616c696420766f746520696e6465785437323141646d696e3a3a61646441646d696e207c2063616e6e6f7420616464203020616464725437323141646d696e3a3a72656465656d546f6b656e73207c207369676e6572206973206e6f74206d696e7465725437323141646d696e3a3a726d41646d696e207c2061646472657373206973206e6f742061646d696e5437323141646d696e3a3a72656465656d546f6b656e73207c20696e76616c6964207369676e61747572655437323141646d696e3a3a6f6e6c7941646d696e207c2073656e646572206973206e6f742061646d696e5437323141646d696e3a3a636f6e73756d65436f6465207c20636f646520616c72656164792075736564a265627a7a723158201c9ba4cdd74085af545007feb5f01ced4644b384795710f68c5589adc982242964736f6c634300050f0032454950373132446f6d61696e28737472696e67206e616d652c737472696e672076657273696f6e2c75696e7432353620636861696e49642c6164647265737320766572696679696e67436f6e747261637429",
  "source": "pragma solidity 0.5.15;\nimport \"./IT721Token.sol\";\nimport \"./T721AdminDomain.sol\";\n\ncontract T721Admin is T721AdminDomain {\n\n    address public t721Token;\n\n    struct Vote {\n        uint256 reason;\n        address target;\n        uint256 yes;\n        uint256 no;\n        mapping (address => uint256) voters;\n        uint256 version;\n    }\n\n    mapping (uint256 => bool) codes;\n    mapping (address => bool) adminMapping;\n    uint256 public adminCount;\n    mapping (address => bool) minterMapping;\n    uint256 public minterCount;\n    uint256 public version;\n    Vote[] public votes;\n\n    event NewVote(address indexed target, uint256 indexed reason, uint256 idx);\n    event NewAdmin(address indexed admin);\n    event ByeAdmin(address indexed admin);\n    event NewMinter(address indexed minter);\n    event ByeMinter(address indexed minter);\n    event ContractCreated(address indexed contractAddress);\n    event MintTokens(address indexed recipient, address indexed minter, uint256 amount, uint256 code);\n\n    function isCodeConsumable(uint256 _code) public view returns (bool) {\n        return !codes[_code];\n    }\n\n    function consumeCode(uint256 _code) internal {\n        require(isCodeConsumable(_code), \"T721Admin::consumeCode | code already used\");\n        codes[_code] = true;\n    }\n\n    function _addAdmin(address _admin) internal {\n\n        adminMapping[_admin] = true;\n        adminCount += 1;\n        version += 1;\n\n        emit NewAdmin(_admin);\n\n    }\n\n    function _rmAdmin(address _admin) internal {\n\n        adminMapping[_admin] = false;\n        adminCount -= 1;\n        version += 1;\n\n        emit ByeAdmin(_admin);\n    }\n\n    function _addMinter(address _minter) internal {\n\n        minterMapping[_minter] = true;\n        minterCount += 1;\n        version += 1;\n\n        emit NewMinter(_minter);\n\n    }\n\n    function _rmMinter(address _minter) internal {\n\n        minterMapping[_minter] = false;\n        minterCount -= 1;\n        version += 1;\n\n        emit ByeMinter(_minter);\n    }\n\n    constructor(\n        address[] memory _admins,\n        address[] memory _minters,\n        address _t721Token,\n        uint256 _chainId\n    ) public T721AdminDomain(\"T721 Admin\", \"0\", _chainId) {\n\n        for (uint256 idx = 0; idx < _admins.length; ++idx) {\n            _addAdmin(_admins[idx]);\n        }\n\n        for (uint256 idx = 0; idx < _minters.length; ++idx) {\n            _addMinter(_minters[idx]);\n        }\n\n        version = 0;\n        t721Token = _t721Token;\n    }\n\n    function isAdmin(address _admin) public view returns (bool) {\n        return adminMapping[_admin];\n    }\n\n    function isMinter(address _minter) public view returns (bool) {\n        return minterMapping[_minter];\n    }\n\n    modifier onlyAdmin() {\n        require(adminMapping[msg.sender] == true, \"T721Admin::onlyAdmin | sender is not admin\");\n        _;\n    }\n\n    function addMinter(address _minter) public onlyAdmin {\n        require(isMinter(_minter) == false, \"T721Admin::addMinter | address is already minter\");\n        _addMinter(_minter);\n    }\n\n    function rmMinter(address _minter) public onlyAdmin {\n        require(isMinter(_minter) == true, \"T721Admin::rmMinter | address is not minter\");\n        _rmMinter(_minter);\n    }\n\n    function addAdmin(address _admin) public onlyAdmin {\n\n        require(isAdmin(_admin) == false, \"T721Admin::addAdmin | address is already admin\");\n        require(_admin != address(0), \"T721Admin::addAdmin | cannot add 0 addr\");\n\n        uint256 idx = votes.push(Vote({\n            reason: 1,\n            target: _admin,\n            yes: 0,\n            no: 0,\n            version: version\n            })) - 1;\n\n        emit NewVote(_admin, 1, idx);\n\n    }\n\n    function rmAdmin(address _admin) public onlyAdmin {\n\n        require(isAdmin(_admin) == true, \"T721Admin::rmAdmin | address is not admin\");\n\n        uint256 idx = votes.push(Vote({\n            reason: 2,\n            target: _admin,\n            yes: 0,\n            no: 0,\n            version: version\n            })) - 1;\n\n        emit NewVote(_admin, 2, idx);\n    }\n\n    function vote(uint256 idx, bool _vote) public onlyAdmin {\n\n        require(votes.length > idx, \"T721Admin::vote | invalid vote index\");\n        require(votes[idx].version == version, \"T721Admin::vote | outdated vote\");\n        require(votes[idx].voters[msg.sender] != 1 + (_vote == true ? 1 : 0), \"T721Admin::vote | useless vote\");\n\n        votes[idx].yes += 0 + (_vote == true ? 1 : 0);\n        votes[idx].no += 0 + (_vote == false ? 1 : 0);\n        votes[idx].voters[msg.sender] = 1 + (_vote == true ? 1 : 0);\n\n        if ((votes[idx].yes * 100) / adminCount >= 50) {\n\n            if (votes[idx].reason == 1) {\n\n                _addAdmin(votes[idx].target);\n\n            } else {\n\n                _rmAdmin(votes[idx].target);\n\n            }\n\n        }\n\n    }\n\n    function redeemTokens(\n        address _recipient,\n        uint256 _amount,\n        address _minter,\n        uint256 _code,\n        bytes calldata _signature\n    ) external {\n\n        bytes32 hash = keccak256(\n            abi.encode(\n                \"mintTokens\",\n                _recipient,\n                _amount,\n                _minter,\n                _code\n            )\n        );\n\n        require(verify(Authorization(_minter, _recipient, hash), _signature) == _minter,\n            \"T721Admin::redeemTokens | invalid signature\");\n        require(isMinter(_minter) == true, \"T721Admin::redeemTokens | signer is not minter\");\n\n        consumeCode(_code);\n\n        IT721Token(t721Token).mintFor(_recipient, _amount);\n\n        emit MintTokens(_recipient, _minter, _amount, _code);\n    }\n\n}\n",
  "sourcePath": "/Users/mortimr/projects/repo/modules/@contracts_t721admin/contracts/T721Admin.sol",
  "compiler": {
    "name": "solc",
    "version": "0.5.15+commit.6a57276f.Emscripten.clang"
  },
  "schemaVersion": "3.0.9",
  "updatedAt": "2020-07-16T16:00:07.943Z",
  "devdoc": {
    "methods": {}
  },
  "userdoc": {
    "methods": {}
  }
}