{
  "contractName": "RefractFactory_v0",
  "abi": [
    {
      "constant": true,
      "inputs": [],
      "name": "ERC165_SIGNATURE",
      "outputs": [
        {
          "internalType": "bytes4",
          "name": "",
          "type": "bytes4"
        }
      ],
      "payable": false,
      "stateMutability": "view",
      "type": "function"
    },
    {
      "constant": true,
      "inputs": [],
      "name": "REFRACTFACTORY_V0_SIGNATURE",
      "outputs": [
        {
          "internalType": "bytes4",
          "name": "",
          "type": "bytes4"
        }
      ],
      "payable": false,
      "stateMutability": "view",
      "type": "function"
    },
    {
      "constant": true,
      "inputs": [
        {
          "internalType": "bytes4",
          "name": "interface_signature",
          "type": "bytes4"
        }
      ],
      "name": "supportsInterface",
      "outputs": [
        {
          "internalType": "bool",
          "name": "",
          "type": "bool"
        }
      ],
      "payable": false,
      "stateMutability": "pure",
      "type": "function"
    },
    {
      "constant": true,
      "inputs": [],
      "name": "version",
      "outputs": [
        {
          "internalType": "uint256",
          "name": "version_code",
          "type": "uint256"
        }
      ],
      "payable": false,
      "stateMutability": "view",
      "type": "function"
    },
    {
      "constant": true,
      "inputs": [
        {
          "internalType": "address",
          "name": "owner",
          "type": "address"
        },
        {
          "internalType": "uint256",
          "name": "salt",
          "type": "uint256"
        }
      ],
      "name": "predict",
      "outputs": [
        {
          "internalType": "address",
          "name": "",
          "type": "address"
        }
      ],
      "payable": false,
      "stateMutability": "view",
      "type": "function"
    },
    {
      "constant": false,
      "inputs": [
        {
          "internalType": "address",
          "name": "owner",
          "type": "address"
        },
        {
          "internalType": "uint256",
          "name": "salt",
          "type": "uint256"
        }
      ],
      "name": "deploy",
      "outputs": [
        {
          "internalType": "address",
          "name": "",
          "type": "address"
        }
      ],
      "payable": false,
      "stateMutability": "nonpayable",
      "type": "function"
    }
  ],
  "bytecode": "0x608060405234801561001057600080fd5b5061375a806100206000396000f3fe608060405234801561001057600080fd5b50600436106100625760003560e01c806301ffc9a7146100675780634956eaf0146100a257806354fd4d50146100ea57806360a2fa6c14610104578063e666eede14610129578063e824f28214610131575b600080fd5b61008e6004803603602081101561007d57600080fd5b50356001600160e01b03191661015d565b604080519115158252519081900360200190f35b6100ce600480360360408110156100b857600080fd5b506001600160a01b038135169060200135610204565b604080516001600160a01b039092168252519081900360200190f35b6100f2610217565b60408051918252519081900360200190f35b61010c61021c565b604080516001600160e01b03199092168252519081900360200190f35b61010c610227565b6100ce6004803603604081101561014757600080fd5b506001600160a01b03813516906020013561029a565b60006001600160e01b031982166301ffc9a760e01b14806101fe575060408051746465706c6f7928616464726573732c62797465732960581b81528151908190036015018120757072656469637428616464726573732c62797465732960501b825282519182900360160182206876657273696f6e282960b81b83529251918290036009019091206001600160e01b03198581169190931890911891909116145b92915050565b60006102108284610345565b9392505050565b600090565b6301ffc9a760e01b81565b60408051746465706c6f7928616464726573732c62797465732960581b81528151908190036015018120757072656469637428616464726573732c62797465732960501b825282519182900360160182206876657273696f6e282960b81b83529251918290036009019091209091181881565b6000806102a7838561047a565b9050600060ff60f81b3083604051806020016102c2906104b9565b818103601f199081018352601f90910116604081815282516020938401206001600160f81b0319969096168383015260609490941b6bffffffffffffffffffffffff19166021820152603581019290925260558083019490945282518083039094018452607590910190915281519101206001600160a01b031695945050505050565b60008060606040518060200161035a906104b9565b601f1982820381018352601f909101166040529050600061037b868661047a565b9050808251602084016000f59250823b61039457600080fd5b6040805160018082528183019092526060916020808301908038833901905050905085816000815181106103c457fe5b6001600160a01b0392831660209182029290920181019190915260405163527dda8560e01b8152600481018281528451602483015284519388169363527dda859386938392604490910191858101910280838360005b8381101561043257818101518382015260200161041a565b5050505090500192505050600060405180830381600087803b15801561045757600080fd5b505af115801561046b573d6000803e3d6000fd5b50959998505050505050505050565b6040805160208082019490945260609290921b6bffffffffffffffffffffffff1916828201528051808303603401815260549092019052805191012090565b61325f806104c78339019056fe60806040526001805461ffff19169055600060035534801561002057600080fd5b5061322f806100306000396000f3fe60806040526004361061009c5760003560e01c806360a2fa6c1161006457806360a2fa6c146103f157806368e1e55b146104235780638f0dd7051461053e578063b429afeb14610659578063da8c229e1461068c578063e68925a1146106bf5761009c565b806301ffc9a71461009e57806314f14a0f146100e65780633e4cbd7814610201578063527dda851461031c57806354fd4d50146103ca575b005b3480156100aa57600080fd5b506100d2600480360360208110156100c157600080fd5b50356001600160e01b0319166106d4565b604080519115158252519081900360200190f35b3480156100f257600080fd5b5061009c6004803603606081101561010957600080fd5b810190602081018135600160201b81111561012357600080fd5b82018360208201111561013557600080fd5b803590602001918460208302840111600160201b8311171561015657600080fd5b919390929091602081019035600160201b81111561017357600080fd5b82018360208201111561018557600080fd5b803590602001918460208302840111600160201b831117156101a657600080fd5b919390929091602081019035600160201b8111156101c357600080fd5b8201836020820111156101d557600080fd5b803590602001918460018302840111600160201b831117156101f657600080fd5b509092509050610811565b34801561020d57600080fd5b5061009c6004803603606081101561022457600080fd5b810190602081018135600160201b81111561023e57600080fd5b82018360208201111561025057600080fd5b803590602001918460208302840111600160201b8311171561027157600080fd5b919390929091602081019035600160201b81111561028e57600080fd5b8201836020820111156102a057600080fd5b803590602001918460208302840111600160201b831117156102c157600080fd5b919390929091602081019035600160201b8111156102de57600080fd5b8201836020820111156102f057600080fd5b803590602001918460018302840111600160201b8311171561031157600080fd5b509092509050610d90565b34801561032857600080fd5b5061009c6004803603602081101561033f57600080fd5b810190602081018135600160201b81111561035957600080fd5b82018360208201111561036b57600080fd5b803590602001918460208302840111600160201b8311171561038c57600080fd5b9190808060200260200160405190810160405280939291908181526020018383602002808284376000920191909152509295506111c3945050505050565b3480156103d657600080fd5b506103df6112c0565b60408051918252519081900360200190f35b3480156103fd57600080fd5b506104066112c5565b604080516001600160e01b03199092168252519081900360200190f35b34801561042f57600080fd5b5061009c6004803603606081101561044657600080fd5b810190602081018135600160201b81111561046057600080fd5b82018360208201111561047257600080fd5b803590602001918460208302840111600160201b8311171561049357600080fd5b919390929091602081019035600160201b8111156104b057600080fd5b8201836020820111156104c257600080fd5b803590602001918460208302840111600160201b831117156104e357600080fd5b919390929091602081019035600160201b81111561050057600080fd5b82018360208201111561051257600080fd5b803590602001918460018302840111600160201b8311171561053357600080fd5b5090925090506112d0565b34801561054a57600080fd5b5061009c6004803603606081101561056157600080fd5b810190602081018135600160201b81111561057b57600080fd5b82018360208201111561058d57600080fd5b803590602001918460208302840111600160201b831117156105ae57600080fd5b919390929091602081019035600160201b8111156105cb57600080fd5b8201836020820111156105dd57600080fd5b803590602001918460208302840111600160201b831117156105fe57600080fd5b919390929091602081019035600160201b81111561061b57600080fd5b82018360208201111561062d57600080fd5b803590602001918460018302840111600160201b8311171561064e57600080fd5b509092509050611808565b34801561066557600080fd5b506100d26004803603602081101561067c57600080fd5b50356001600160a01b0316611e25565b34801561069857600080fd5b506100d2600480360360208110156106af57600080fd5b50356001600160a01b0316611e43565b3480156106cb57600080fd5b50610406611e58565b60006001600160e01b031982166301ffc9a760e01b148061080b5750604080517f6d7478677228616464726573735b5d2c75696e743235365b5d2c627974657329815281519081900360200181207f6d74786728616464726573735b5d2c75696e743235365b5d2c627974657329008252825191829003601f90810183207f6d74787228616464726573735b5d2c75696e743235365b5d2c62797465732900845284519384900390910183207f6d747828616464726573735b5d2c75696e743235365b5d2c62797465732900008452845193849003601e018420746973436f6e74726f6c6c657228616464726573732960581b855285519485900360150185206876657273696f6e282960b81b86529551948590036009019094206001600160e01b03198881169190961890941818181891909116145b92915050565b8383600081811061081e57fe5b9050602002013580600354146108655760405162461bcd60e51b8152600401808060200182810382526029815260200180612b636029913960400191505060405180910390fd5b60038054600101815586146108ab5760405162461bcd60e51b81526004018080602001828103825260408152602001806128516040913960400191505060405180910390fd5b600384146108ea5760405162461bcd60e51b8152600401808060200182810382526040815260200180612faa6040913960400191505060405180910390fd5b604182101561092a5760405162461bcd60e51b8152600401808060200182810382526048815260200180612a086048913960600191505060405180910390fd5b6060604051806020016040528060008152509050606061098285858080601f0160208091040260200160405190810160405280939291908181526020018383808284376000920182905250925060419150611f659050565b905060418411156109d6576109d385858080601f0160208091040260200160405190810160405280939291908181526020018383808284376000920191909152506041925050506040198701611f65565b91505b6109de612753565b6040518060c00160405280306001600160a01b031681526020018b8b6000818110610a0557fe5b905060200201356001600160a01b03166001600160a01b031681526020018b8b6001818110610a3057fe5b905060200201356001600160a01b03166001600160a01b0316815260200189896001818110610a5b57fe5b90506020020135815260200184815260200189896000818110610a7a57fe5b905060200201358152509050610a8e612787565b60405180604001604052808c8c6002818110610aa657fe5b905060200201356001600160a01b03166001600160a01b031681526020018a8a6002818110610ad157fe5b905060200201358152509050610ae561279e565b60405180604001604052808481526020018381525090506000610b088286611fe5565b6001600160a01b03811660009081526002602052604090205490915060ff161515600114610b675760405162461bcd60e51b815260040180806020018281038252602e815260200180612fea602e913960400191505060405180910390fd5b5050505050610ba588886002818110610b7c57fe5b905060200201356001600160a01b031687876002818110610b9957fe5b905060200201356120c0565b610bdf88886000818110610bb557fe5b905060200201356001600160a01b031687876001818110610bd257fe5b9050602002013583612181565b610c1a5760405162461bcd60e51b81526004018080602001828103825260258152602001806130d16025913960400191505060405180910390fd5b87876001818110610c2757fe5b905060200201356001600160a01b03166001600160a01b031688886000818110610c4d57fe5b905060200201356001600160a01b03166001600160a01b03167fe4dd2f106564ff29d21909a41c7e95e808cdb102a2d5107239db27c7f2e8896c88886001818110610c9457fe5b9050602002013589896000818110610ca857fe5b90506020020135858d8d6002818110610cbd57fe5b905060200201356001600160a01b03168c8c6002818110610cda57fe5b905060200201356040518086815260200185815260200180602001846001600160a01b03166001600160a01b03168152602001838152602001828103825285818151815260200191508051906020019080838360005b83811015610d48578181015183820152602001610d30565b50505050905090810190601f168015610d755780820380516001836020036101000a031916815260200191505b50965050505050505060405180910390a35050505050505050565b83836000818110610d9d57fe5b905060200201358060035414610de45760405162461bcd60e51b8152600401808060200182810382526029815260200180612b636029913960400191505060405180910390fd5b60038054600101905560028614610e2c5760405162461bcd60e51b815260040180806020018281038252603f815260200180613092603f913960400191505060405180910390fd5b60028414610e6b5760405162461bcd60e51b815260040180806020018281038252603f815260200180612b24603f913960400191505060405180910390fd5b6041821015610eab5760405162461bcd60e51b81526004018080602001828103825260478152602001806128916047913960600191505060405180910390fd5b60606040518060200160405280600081525090506060610f0385858080601f0160208091040260200160405190810160405280939291908181526020018383808284376000920182905250925060419150611f659050565b90506041841115610f5757610f5485858080601f0160208091040260200160405190810160405280939291908181526020018383808284376000920191909152506041925050506040198701611f65565b91505b610f5f612753565b6040518060c00160405280306001600160a01b031681526020018b8b6000818110610f8657fe5b905060200201356001600160a01b03166001600160a01b031681526020018b8b6001818110610fb157fe5b905060200201356001600160a01b03166001600160a01b0316815260200189896001818110610fdc57fe5b90506020020135815260200184815260200189896000818110610ffb57fe5b90506020020135815250905061100f6127c3565b506040805160208101909152818152600061102a828561219e565b6001600160a01b03811660009081526002602052604090205490915060ff1615156001146110895760405162461bcd60e51b815260040180806020018281038252602d815260200180612b8c602d913960400191505060405180910390fd5b5050505061109d88886000818110610bb557fe5b50878760018181106110ab57fe5b905060200201356001600160a01b03166001600160a01b0316888860008181106110d157fe5b905060200201356001600160a01b03166001600160a01b03167ffc26c44ef96b638dd492a334e3a8c80bc855564f135022728462e9078ddd9d878888600181811061111857fe5b905060200201358989600081811061112c57fe5b90506020020135856040518084815260200183815260200180602001828103825283818151815260200191508051906020019080838360005b8381101561117d578181015183820152602001611165565b50505050905090810190601f1680156111aa5780820380516001836020036101000a031916815260200191505b5094505050505060405180910390a35050505050505050565b600154610100900460ff161561120a5760405162461bcd60e51b815260040180806020018281038252603d815260200180613055603d913960400191505060405180910390fd5b6001805461ff00191661010017905560005b81518110156112715760016002600084848151811061123757fe5b6020908102919091018101516001600160a01b03168252810191909152604001600020805460ff191691151591909117905560010161121c565b506112bd6040518060400160405280600e81526020016d1499599c9858dd0815d85b1b195d60921b815250604051806040016040528060018152602001600360fc1b81525060016121c0565b50565b600090565b6301ffc9a760e01b81565b838360008181106112dd57fe5b9050602002013580600354146113245760405162461bcd60e51b8152600401808060200182810382526029815260200180612b636029913960400191505060405180910390fd5b6003805460010190556002861461136c5760405162461bcd60e51b8152600401808060200182810382526040815260200180612c206040913960400191505060405180910390fd5b600484146113ab5760405162461bcd60e51b8152600401808060200182810382526040815260200180612f6a6040913960400191505060405180910390fd5b60418210156113eb5760405162461bcd60e51b81526004018080602001828103825260488152602001806129c06048913960600191505060405180910390fd5b6060604051806020016040528060008152509050606061144385858080601f0160208091040260200160405190810160405280939291908181526020018383808284376000920182905250925060419150611f659050565b905060418411156114975761149485858080601f0160208091040260200160405190810160405280939291908181526020018383808284376000920191909152506041925050506040198701611f65565b91505b61149f612753565b6040518060c00160405280306001600160a01b031681526020018b8b60008181106114c657fe5b905060200201356001600160a01b03166001600160a01b031681526020018b8b60018181106114f157fe5b905060200201356001600160a01b03166001600160a01b031681526020018989600181811061151c57fe5b9050602002013581526020018481526020018989600081811061153b57fe5b90506020020135815250905061154f6127d6565b60405180604001604052808a8a600281811061156757fe5b9050602002013581526020018a8a600381811061158057fe5b9050602002013581525090506115946127f0565b604051806040016040528084815260200183815250905060006115b7828661223f565b6001600160a01b03811660009081526002602052604090205490915060ff1615156001146116165760405162461bcd60e51b815260040180806020018281038252602e8152602001806128d8602e913960400191505060405180910390fd5b50505050508585600381811061162857fe5b905060200201353a101561166d5760405162461bcd60e51b81526004018080602001828103825260268152602001806131a66026913960400191505060405180910390fd5b6116bb8888600081811061167d57fe5b905060200201356001600160a01b03168787600181811061169a57fe5b9050602002013583898960028181106116af57fe5b90506020020135612261565b6116f65760405162461bcd60e51b81526004018080602001828103825260258152602001806130f66025913960400191505060405180910390fd5b8787600181811061170357fe5b905060200201356001600160a01b03166001600160a01b03168888600081811061172957fe5b905060200201356001600160a01b03166001600160a01b03167f33c4ef3cde7bc0f262bb8e12979c5e8a5427a16369f6cfaf9095d6b55cbd0e3b8888600181811061177057fe5b905060200201358989600081811061178457fe5b90506020020135858b8b600281811061179957fe5b905060200201358c8c60038181106117ad57fe5b9050602002013560405180868152602001858152602001806020018481526020018381526020018281038252858181518152602001915080519060200190808383600083811015610d48578181015183820152602001610d30565b8383600081811061181557fe5b90506020020135806003541461185c5760405162461bcd60e51b8152600401808060200182810382526029815260200180612b636029913960400191505060405180910390fd5b60038054600101815586146118a25760405162461bcd60e51b8152600401808060200182810382526041815260200180612bb96041913960600191505060405180910390fd5b600584146118e15760405162461bcd60e51b81526004018080602001828103825260418152602001806129366041913960600191505060405180910390fd5b60418210156119215760405162461bcd60e51b81526004018080602001828103825260498152602001806129776049913960600191505060405180910390fd5b6060604051806020016040528060008152509050606061197985858080601f0160208091040260200160405190810160405280939291908181526020018383808284376000920182905250925060419150611f659050565b905060418411156119cd576119ca85858080601f0160208091040260200160405190810160405280939291908181526020018383808284376000920191909152506041925050506040198701611f65565b91505b6119d5612753565b6040518060c00160405280306001600160a01b031681526020018b8b60008181106119fc57fe5b905060200201356001600160a01b03166001600160a01b031681526020018b8b6001818110611a2757fe5b905060200201356001600160a01b03166001600160a01b0316815260200189896001818110611a5257fe5b90506020020135815260200184815260200189896000818110611a7157fe5b905060200201358152509050611a856127d6565b60405180604001604052808a8a6002818110611a9d57fe5b9050602002013581526020018a8a6003818110611ab657fe5b905060200201358152509050611aca612787565b60405180604001604052808d8d6002818110611ae257fe5b905060200201356001600160a01b03166001600160a01b031681526020018b8b6004818110611b0d57fe5b905060200201358152509050611b21612810565b60405180606001604052808581526020018481526020018381525090506000611b4a828761227f565b6001600160a01b03811660009081526002602052604090205490915060ff161515600114611ba95760405162461bcd60e51b815260040180806020018281038252602f8152602001806131cc602f913960400191505060405180910390fd5b50505050505085856003818110611bbc57fe5b905060200201353a1015611c015760405162461bcd60e51b8152600401808060200182810382526027815260200180612f436027913960400191505060405180910390fd5b611c2e88886002818110611c1157fe5b905060200201356001600160a01b031687876004818110610b9957fe5b611c3e8888600081811061167d57fe5b611c795760405162461bcd60e51b8152600401808060200182810382526026815260200180612bfa6026913960400191505060405180910390fd5b87876001818110611c8657fe5b905060200201356001600160a01b03166001600160a01b031688886000818110611cac57fe5b905060200201356001600160a01b03166001600160a01b03167ff39cc9da8cec78c2e6ef51580c56f96d7f9c896fa1df5583e5c3df292b78e93488886001818110611cf357fe5b9050602002013589896000818110611d0757fe5b90506020020135858b8b6002818110611d1c57fe5b905060200201358c8c6003818110611d3057fe5b905060200201358f8f6002818110611d4457fe5b905060200201356001600160a01b03168e8e6004818110611d6157fe5b905060200201356040518088815260200187815260200180602001868152602001858152602001846001600160a01b03166001600160a01b03168152602001838152602001828103825287818151815260200191508051906020019080838360005b83811015611ddb578181015183820152602001611dc3565b50505050905090810190601f168015611e085780820380516001836020036101000a031916815260200191505b509850505050505050505060405180910390a35050505050505050565b6001600160a01b031660009081526002602052604090205460ff1690565b60026020526000908152604090205460ff1681565b604080517f6d7478677228616464726573735b5d2c75696e743235365b5d2c627974657329815281519081900360200181207f6d74786728616464726573735b5d2c75696e743235365b5d2c627974657329008252825191829003601f90810183207f6d74787228616464726573735b5d2c75696e743235365b5d2c62797465732900845284519384900390910183207f6d747828616464726573735b5d2c75696e743235365b5d2c62797465732900008452845193849003601e018420746973436f6e74726f6c6c657228616464726573732960581b855285519485900360150185206876657273696f6e282960b81b8652955194859003600901909420909418909218909218181881565b606081830184511015611f7757600080fd5b606082158015611f9257604051915060208201604052611fdc565b6040519150601f8416801560200281840101858101878315602002848b0101015b81831015611fcb578051835260209283019201611fb3565b5050858452601f01601f1916604052505b50949350505050565b6000611fef612830565b611ff8836122a1565b9050600080546120078661239d565b604051602001808061190160f01b8152506002018381526020018281526020019250505060405160208183030381529060405280519060200120905060018183600001518460200151856040015160405160008152602001604052604051808581526020018460ff1660ff1681526020018381526020018281526020019450505050506020604051602081039080840390855afa1580156120ac573d6000803e3d6000fd5b5050604051601f1901519695505050505050565b6001600160a01b03821661210157604051339082156108fc029083906000818181858888f193505050501580156120fb573d6000803e3d6000fd5b5061217d565b6040805163a9059cbb60e01b81523360048201526024810183905290516001600160a01b0384169163a9059cbb9160448083019260209291908290030181600087803b15801561215057600080fd5b505af1158015612164573d6000803e3d6000fd5b505050506040513d602081101561217a57600080fd5b50505b5050565b600080604051600081855160208701888a5af19695505050505050565b60006121a8612830565b6121b1836122a1565b9050600080546120078661240d565b60015460ff16156122025760405162461bcd60e51b815260040180806020018281038252603d815260200180613018603d913960400191505060405180910390fd5b6001805460ff191681179055604080516080810182528481526020810184905290810182905230606082015261223790612469565b600055505050565b6000612249612830565b612252836122a1565b905060008054612007866124ec565b600080604051600081865160208801898b89f1979650505050505050565b6000612289612830565b612292836122a1565b90506000805461200786612521565b6122a9612830565b81516041146122ff576040805162461bcd60e51b815260206004820152601860248201527f496e76616c6964207369676e6174757265206c656e6774680000000000000000604482015290519081900360640190fd5b60208201516040830151604184015160ff16601b81101561231e57601b015b8060ff16601b148061233357508060ff16601c145b612379576040805162461bcd60e51b8152602060048201526012602482015271125b9d985b1a59081d88185c99dd5b595b9d60721b604482015290519081900360640190fd5b6040805160608101825260ff90921682526020820193909352918201529050919050565b60006040518080612a5060d4913960d401905060405180910390206123c583600001516125a7565b6123d2846020015161269c565b604051602001808481526020018381526020018281526020019350505050604051602081830303815290604052805190602001209050919050565b60006040518080612c60609691396096019050604051809103902061243583600001516125a7565b6040516020018083815260200182815260200192505050604051602081830303815290604052805190602001209050919050565b60006040518080612cf660529139604080519182900360520182208551805160209182012081880151805190830120888501516060808b015185890196909652878701939093529186015260808501526001600160a01b0390911660a0808501919091528251808503909101815260c09093019091528151910120915050919050565b60006040518080612e6460df913960df019050604051809103902061251483600001516125a7565b6123d284602001516126fd565b60006040518080612d4861011c913961011c019050604051809103902061254b83600001516125a7565b61255884602001516126fd565b612565856040015161269c565b60405160200180858152602001848152602001838152602001828152602001945050505050604051602081830303815290604052805190602001209050919050565b6000604051808061311b6065913960650190506040518091039020826000015183602001518460400151856060015186608001516040518082805190602001908083835b6020831061260a5780518252601f1990920191602091820191016125eb565b518151600019602094850361010090810a91909101918216911992909216179091526040805195909301859003852060a09e8f01518684019d909d526001600160a01b039b8c1686850152998b1660608601529790991660808401529a82019490945260c081019590955250505060e08083019490945285518083039094018452019093528051920191909120919050565b6000604051808061318060269139604080519182900360260182208551602080880151818601939093526001600160a01b03909116848401526060808501929092528251808503909201825260809093019091528051910120915050919050565b600060405180806129066030913960408051918290036030018220855160209687015187850192909252838301526060808401919091528151808403909101815260809092019052805193019290922092915050565b6040805160c0810182526000808252602082018190529181018290526060808201839052608082015260a081019190915290565b604080518082019091526000808252602082015290565b60405180604001604052806127b1612753565b81526020016127be612787565b905290565b60405180602001604052806127be612753565b604051806040016040528060008152602001600081525090565b6040518060400160405280612803612753565b81526020016127be6127d6565b6040518060600160405280612823612753565b81526020016127b16127d6565b60408051606081018252600080825260208201819052918101919091529056fe5265667261637457616c6c65743a3a6d747872207c20696e76616c6964206164647220617267756d656e74206c656e677468202873686f756c642062652033295265667261637457616c6c65743a3a6d7478207c20696e76616c6964206264617461206c656e677468202873686f756c64206265206174206c65617374203635206279746573295265667261637457616c6c65743a3a6d747867207c207369676e6572206973206e6f7420636f6e74726f6c6c6572476173506172616d65746572732875696e74323536206761734c696d69742c75696e74323536206761735072696365295265667261637457616c6c65743a3a6d74786772207c20696e76616c6964206e756d7320617267756d656e74206c656e677468202873686f756c642062652035295265667261637457616c6c65743a3a6d74786772207c20696e76616c6964206264617461206c656e677468202873686f756c64206265206174206c65617374203635206279746573295265667261637457616c6c65743a3a6d747867207c20696e76616c6964206264617461206c656e677468202873686f756c64206265206174206c65617374203635206279746573295265667261637457616c6c65743a3a6d747872207c20696e76616c6964206264617461206c656e677468202873686f756c64206265206174206c65617374203635206279746573294d6574615472616e73616374696f6e57697468526577617264285472616e73616374696f6e506172616d657465727320706172616d65746572732c526577617264207265776172642952657761726428616464726573732063757272656e63792c75696e743235362076616c7565295472616e73616374696f6e506172616d657465727328616464726573732066726f6d2c6164647265737320746f2c616464726573732072656c617965722c75696e743235362076616c75652c627974657320646174612c75696e74323536206e6f6e6365295265667261637457616c6c65743a3a6d7478207c20696e76616c6964206e756d7320617267756d656e74206c656e677468202873686f756c642062652032295265667261637457616c6c65743a3a6e6f6e6365436865636b207c20696e76616c6964206e6f6e63655265667261637457616c6c65743a3a6d7478207c207369676e6572206973206e6f7420636f6e74726f6c6c65725265667261637457616c6c65743a3a6d74786772207c20696e76616c6964206164647220617267756d656e74206c656e677468202873686f756c642062652033295265667261637457616c6c65743a3a6d74786772207c20657865637574696f6e206572726f725265667261637457616c6c65743a3a6d747867207c20696e76616c6964206164647220617267756d656e74206c656e677468202873686f756c642062652032294d6574615472616e73616374696f6e285472616e73616374696f6e506172616d657465727320706172616d6574657273295472616e73616374696f6e506172616d657465727328616464726573732066726f6d2c6164647265737320746f2c616464726573732072656c617965722c75696e743235362076616c75652c627974657320646174612c75696e74323536206e6f6e636529454950373132446f6d61696e28737472696e67206e616d652c737472696e672076657273696f6e2c75696e7432353620636861696e49642c6164647265737320766572696679696e67436f6e7472616374294d6574615472616e73616374696f6e57697468476173416e64526577617264285472616e73616374696f6e506172616d657465727320706172616d65746572732c476173506172616d6574657273206761732c5265776172642072657761726429476173506172616d65746572732875696e74323536206761734c696d69742c75696e743235362067617350726963652952657761726428616464726573732063757272656e63792c75696e743235362076616c7565295472616e73616374696f6e506172616d657465727328616464726573732066726f6d2c6164647265737320746f2c616464726573732072656c617965722c75696e743235362076616c75652c627974657320646174612c75696e74323536206e6f6e6365294d6574615472616e73616374696f6e57697468476173285472616e73616374696f6e506172616d657465727320706172616d65746572732c476173506172616d65746572732067617329476173506172616d65746572732875696e74323536206761734c696d69742c75696e74323536206761735072696365295472616e73616374696f6e506172616d657465727328616464726573732066726f6d2c6164647265737320746f2c616464726573732072656c617965722c75696e743235362076616c75652c627974657320646174612c75696e74323536206e6f6e6365295265667261637457616c6c65743a3a6d74786772207c20676173507269636520746f6f206c6f775265667261637457616c6c65743a3a6d747867207c20696e76616c6964206e756d7320617267756d656e74206c656e677468202873686f756c642062652034295265667261637457616c6c65743a3a6d747872207c20696e76616c6964206e756d7320617267756d656e74206c656e677468202873686f756c642062652033295265667261637457616c6c65743a3a6d747872207c207369676e6572206973206e6f7420636f6e74726f6c6c657252656672616374446f6d61696e5f76303a3a76305f6c6f636b6572207c20696e697469616c697a6174696f6e20616c72656164792068617070656e65645265667261637457616c6c65745f76303a3a76305f6c6f636b6572207c20696e697469616c697a6174696f6e20616c72656164792068617070656e65645265667261637457616c6c65743a3a6d7478207c20696e76616c6964206164647220617267756d656e74206c656e677468202873686f756c642062652032295265667261637457616c6c65743a3a6d747872207c20657865637574696f6e206572726f725265667261637457616c6c65743a3a6d747867207c20657865637574696f6e206572726f725472616e73616374696f6e506172616d657465727328616464726573732066726f6d2c6164647265737320746f2c616464726573732072656c617965722c75696e743235362076616c75652c627974657320646174612c75696e74323536206e6f6e63652952657761726428616464726573732063757272656e63792c75696e743235362076616c7565295265667261637457616c6c65743a3a6d747867207c20676173507269636520746f6f206c6f775265667261637457616c6c65743a3a6d74786772207c207369676e6572206973206e6f7420636f6e74726f6c6c6572a265627a7a7231582066df54f5f76e5939d500264ad4bb7e2dd03947e483b6c6debd715964107f977164736f6c634300050f0032a265627a7a7231582064e46bc132808760dd936b382d7c546dc832f99c30cb05d1d79acf868d3b1f7164736f6c634300050f0032",
  "source": "pragma solidity 0.5.15;\n\nimport \"../../interfaces/v0/IRefractFactory_v0.sol\";\nimport \"@openzeppelin/contracts/introspection/ERC165.sol\";\nimport \"./RefractWallet_v0.sol\";\n\ncontract RefractFactory_v0 is IRefractFactory_v0 {\n\n    bytes4 constant public REFRACTFACTORY_V0_SIGNATURE = // 0x25961920\n    bytes4(keccak256('version()')) ^\n    bytes4(keccak256('predict(address,bytes)')) ^\n    bytes4(keccak256('deploy(address,bytes)'));\n\n    //\n    // bytes4(keccak256('supportsInterface(bytes4)')) == 0x01ffc9a7\n    //\n    bytes4 public constant ERC165_SIGNATURE = 0x01ffc9a7;\n\n    //\n    // @notice Utility from the ERC165 standard, used to signal outside contracts that a specific interface\n    //         is respected by the contract\n    //\n    // @param interface_signature Signature of the interface to verify\n    //\n    function supportsInterface(bytes4 interface_signature) external pure returns (bool) {\n        return ((interface_signature == ERC165_SIGNATURE) || (interface_signature == REFRACTFACTORY_V0_SIGNATURE));\n    }\n\n    function _getSalt(uint256 _salt, address _sender) internal pure returns (bytes32) {\n        return keccak256(abi.encodePacked(_salt, _sender));\n    }\n\n    function _createWallet(uint256 _salt, address _sender) internal returns (RefractWallet_v0) {\n        address payable addr;\n        bytes memory code = type(RefractWallet_v0).creationCode;\n        bytes32 salt = _getSalt(_salt, _sender);\n\n        assembly {\n            addr := create2(0, add(code, 0x20), mload(code), salt)\n            if iszero(extcodesize(addr)) {\n                revert(0, 0)\n            }\n        }\n\n        address[] memory controllers = new address[](1);\n        controllers[0] = _sender;\n        RefractWallet_v0(addr).initialize_v0(controllers);\n\n        return RefractWallet_v0(addr);\n    }\n\n    function version() external view returns (uint256 version_code) {\n        return 0;\n    }\n\n    function predict(address owner, uint256 salt) external view returns (address) {\n        bytes32 _salt = _getSalt(salt, owner);\n        bytes32 rawAddress = keccak256(\n            abi.encodePacked(\n                bytes1(0xff),\n                address(this),\n                _salt,\n                keccak256(type(RefractWallet_v0).creationCode)\n            )\n        );\n\n        return address(bytes20(rawAddress << 96));\n    }\n\n    function deploy(address owner, uint256 salt) external returns (address) {\n        return address(_createWallet(salt, owner));\n    }\n\n}\n",
  "sourcePath": "/Users/mortimr/projects/repo/contracts/contracts_modules/refract/contracts/implementations/v0/RefractFactory_v0.sol",
  "compiler": {
    "name": "solc",
    "version": "0.5.15+commit.6a57276f.Emscripten.clang"
  },
  "schemaVersion": "3.0.16",
  "updatedAt": "2019-12-26T11:12:14.535Z",
  "devdoc": {
    "methods": {}
  },
  "userdoc": {
    "methods": {}
  }
}