{
  "contractName": "TicketForge",
  "abi": [
    {
      "inputs": [
        {
          "internalType": "string",
          "name": "contract_name",
          "type": "string"
        },
        {
          "internalType": "string",
          "name": "symbol",
          "type": "string"
        }
      ],
      "payable": false,
      "stateMutability": "nonpayable",
      "type": "constructor"
    },
    {
      "anonymous": false,
      "inputs": [
        {
          "indexed": true,
          "internalType": "address",
          "name": "owner",
          "type": "address"
        },
        {
          "indexed": true,
          "internalType": "address",
          "name": "approved",
          "type": "address"
        },
        {
          "indexed": true,
          "internalType": "uint256",
          "name": "tokenId",
          "type": "uint256"
        }
      ],
      "name": "Approval",
      "type": "event"
    },
    {
      "anonymous": false,
      "inputs": [
        {
          "indexed": true,
          "internalType": "address",
          "name": "owner",
          "type": "address"
        },
        {
          "indexed": true,
          "internalType": "address",
          "name": "operator",
          "type": "address"
        },
        {
          "indexed": false,
          "internalType": "bool",
          "name": "approved",
          "type": "bool"
        }
      ],
      "name": "ApprovalForAll",
      "type": "event"
    },
    {
      "anonymous": false,
      "inputs": [
        {
          "indexed": true,
          "internalType": "string",
          "name": "scope",
          "type": "string"
        },
        {
          "indexed": true,
          "internalType": "address",
          "name": "owner",
          "type": "address"
        },
        {
          "indexed": true,
          "internalType": "address",
          "name": "issuer",
          "type": "address"
        },
        {
          "indexed": false,
          "internalType": "uint256",
          "name": "ticketId",
          "type": "uint256"
        }
      ],
      "name": "Mint",
      "type": "event"
    },
    {
      "anonymous": false,
      "inputs": [
        {
          "indexed": true,
          "internalType": "address",
          "name": "from",
          "type": "address"
        },
        {
          "indexed": true,
          "internalType": "address",
          "name": "to",
          "type": "address"
        },
        {
          "indexed": true,
          "internalType": "uint256",
          "name": "tokenId",
          "type": "uint256"
        }
      ],
      "name": "Transfer",
      "type": "event"
    },
    {
      "constant": false,
      "inputs": [
        {
          "internalType": "address",
          "name": "to",
          "type": "address"
        },
        {
          "internalType": "uint256",
          "name": "tokenId",
          "type": "uint256"
        }
      ],
      "name": "approve",
      "outputs": [],
      "payable": false,
      "stateMutability": "nonpayable",
      "type": "function"
    },
    {
      "constant": true,
      "inputs": [
        {
          "internalType": "address",
          "name": "owner",
          "type": "address"
        }
      ],
      "name": "balanceOf",
      "outputs": [
        {
          "internalType": "uint256",
          "name": "",
          "type": "uint256"
        }
      ],
      "payable": false,
      "stateMutability": "view",
      "type": "function"
    },
    {
      "constant": true,
      "inputs": [
        {
          "internalType": "uint256",
          "name": "tokenId",
          "type": "uint256"
        }
      ],
      "name": "getApproved",
      "outputs": [
        {
          "internalType": "address",
          "name": "",
          "type": "address"
        }
      ],
      "payable": false,
      "stateMutability": "view",
      "type": "function"
    },
    {
      "constant": true,
      "inputs": [
        {
          "internalType": "address",
          "name": "owner",
          "type": "address"
        },
        {
          "internalType": "address",
          "name": "operator",
          "type": "address"
        }
      ],
      "name": "isApprovedForAll",
      "outputs": [
        {
          "internalType": "bool",
          "name": "",
          "type": "bool"
        }
      ],
      "payable": false,
      "stateMutability": "view",
      "type": "function"
    },
    {
      "constant": true,
      "inputs": [
        {
          "internalType": "address",
          "name": "",
          "type": "address"
        }
      ],
      "name": "mint_nonce",
      "outputs": [
        {
          "internalType": "uint256",
          "name": "",
          "type": "uint256"
        }
      ],
      "payable": false,
      "stateMutability": "view",
      "type": "function"
    },
    {
      "constant": true,
      "inputs": [
        {
          "internalType": "uint256",
          "name": "tokenId",
          "type": "uint256"
        }
      ],
      "name": "ownerOf",
      "outputs": [
        {
          "internalType": "address",
          "name": "",
          "type": "address"
        }
      ],
      "payable": false,
      "stateMutability": "view",
      "type": "function"
    },
    {
      "constant": false,
      "inputs": [
        {
          "internalType": "address",
          "name": "to",
          "type": "address"
        },
        {
          "internalType": "bool",
          "name": "approved",
          "type": "bool"
        }
      ],
      "name": "setApprovalForAll",
      "outputs": [],
      "payable": false,
      "stateMutability": "nonpayable",
      "type": "function"
    },
    {
      "constant": true,
      "inputs": [
        {
          "internalType": "bytes4",
          "name": "interfaceId",
          "type": "bytes4"
        }
      ],
      "name": "supportsInterface",
      "outputs": [
        {
          "internalType": "bool",
          "name": "",
          "type": "bool"
        }
      ],
      "payable": false,
      "stateMutability": "view",
      "type": "function"
    },
    {
      "constant": true,
      "inputs": [
        {
          "internalType": "uint256",
          "name": "index",
          "type": "uint256"
        }
      ],
      "name": "tokenByIndex",
      "outputs": [
        {
          "internalType": "uint256",
          "name": "",
          "type": "uint256"
        }
      ],
      "payable": false,
      "stateMutability": "view",
      "type": "function"
    },
    {
      "constant": true,
      "inputs": [
        {
          "internalType": "address",
          "name": "owner",
          "type": "address"
        },
        {
          "internalType": "uint256",
          "name": "index",
          "type": "uint256"
        }
      ],
      "name": "tokenOfOwnerByIndex",
      "outputs": [
        {
          "internalType": "uint256",
          "name": "",
          "type": "uint256"
        }
      ],
      "payable": false,
      "stateMutability": "view",
      "type": "function"
    },
    {
      "constant": true,
      "inputs": [],
      "name": "totalSupply",
      "outputs": [
        {
          "internalType": "uint256",
          "name": "",
          "type": "uint256"
        }
      ],
      "payable": false,
      "stateMutability": "view",
      "type": "function"
    },
    {
      "constant": true,
      "inputs": [
        {
          "internalType": "string",
          "name": "scope_name",
          "type": "string"
        }
      ],
      "name": "getScope",
      "outputs": [
        {
          "internalType": "bool",
          "name": "exists",
          "type": "bool"
        },
        {
          "internalType": "address",
          "name": "tokenuri_provider",
          "type": "address"
        },
        {
          "internalType": "uint256",
          "name": "scope_index",
          "type": "uint256"
        }
      ],
      "payable": false,
      "stateMutability": "view",
      "type": "function"
    },
    {
      "constant": true,
      "inputs": [
        {
          "internalType": "string",
          "name": "scope_name",
          "type": "string"
        },
        {
          "internalType": "address",
          "name": "admin",
          "type": "address"
        }
      ],
      "name": "isScopeAdmin",
      "outputs": [
        {
          "internalType": "bool",
          "name": "",
          "type": "bool"
        }
      ],
      "payable": false,
      "stateMutability": "view",
      "type": "function"
    },
    {
      "constant": true,
      "inputs": [
        {
          "internalType": "uint256",
          "name": "scopeIndex",
          "type": "uint256"
        },
        {
          "internalType": "address",
          "name": "minter",
          "type": "address"
        }
      ],
      "name": "isAllowedMinter",
      "outputs": [
        {
          "internalType": "bool",
          "name": "",
          "type": "bool"
        }
      ],
      "payable": false,
      "stateMutability": "view",
      "type": "function"
    },
    {
      "constant": true,
      "inputs": [],
      "name": "name",
      "outputs": [
        {
          "internalType": "string",
          "name": "",
          "type": "string"
        }
      ],
      "payable": false,
      "stateMutability": "view",
      "type": "function"
    },
    {
      "constant": true,
      "inputs": [],
      "name": "symbol",
      "outputs": [
        {
          "internalType": "string",
          "name": "",
          "type": "string"
        }
      ],
      "payable": false,
      "stateMutability": "view",
      "type": "function"
    },
    {
      "constant": true,
      "inputs": [
        {
          "internalType": "uint256",
          "name": "ticketId",
          "type": "uint256"
        }
      ],
      "name": "tokenURI",
      "outputs": [
        {
          "internalType": "string",
          "name": "",
          "type": "string"
        }
      ],
      "payable": false,
      "stateMutability": "view",
      "type": "function"
    },
    {
      "constant": false,
      "inputs": [
        {
          "internalType": "string",
          "name": "scope_name",
          "type": "string"
        },
        {
          "internalType": "address",
          "name": "tokenuri_provider",
          "type": "address"
        },
        {
          "internalType": "address[]",
          "name": "transfer_admins",
          "type": "address[]"
        },
        {
          "internalType": "address[]",
          "name": "mint_admins",
          "type": "address[]"
        },
        {
          "internalType": "bool",
          "name": "user_exchangeable",
          "type": "bool"
        }
      ],
      "name": "createScope",
      "outputs": [],
      "payable": false,
      "stateMutability": "nonpayable",
      "type": "function"
    },
    {
      "constant": true,
      "inputs": [
        {
          "internalType": "address",
          "name": "owner",
          "type": "address"
        }
      ],
      "name": "getMintNonce",
      "outputs": [
        {
          "internalType": "uint256",
          "name": "",
          "type": "uint256"
        }
      ],
      "payable": false,
      "stateMutability": "view",
      "type": "function"
    },
    {
      "constant": true,
      "inputs": [
        {
          "internalType": "address",
          "name": "owner",
          "type": "address"
        },
        {
          "internalType": "uint256",
          "name": "_mint_nonce",
          "type": "uint256"
        }
      ],
      "name": "getTokenID",
      "outputs": [
        {
          "internalType": "uint256",
          "name": "",
          "type": "uint256"
        }
      ],
      "payable": false,
      "stateMutability": "pure",
      "type": "function"
    },
    {
      "constant": false,
      "inputs": [
        {
          "internalType": "address",
          "name": "to",
          "type": "address"
        },
        {
          "internalType": "uint256",
          "name": "scopeIndex",
          "type": "uint256"
        },
        {
          "internalType": "string",
          "name": "tokenUri",
          "type": "string"
        }
      ],
      "name": "mint",
      "outputs": [
        {
          "internalType": "uint256",
          "name": "",
          "type": "uint256"
        }
      ],
      "payable": false,
      "stateMutability": "nonpayable",
      "type": "function"
    },
    {
      "constant": false,
      "inputs": [
        {
          "internalType": "address",
          "name": "to",
          "type": "address"
        },
        {
          "internalType": "uint256",
          "name": "scopeIndex",
          "type": "uint256"
        }
      ],
      "name": "mint",
      "outputs": [
        {
          "internalType": "uint256",
          "name": "",
          "type": "uint256"
        }
      ],
      "payable": false,
      "stateMutability": "nonpayable",
      "type": "function"
    },
    {
      "constant": false,
      "inputs": [
        {
          "internalType": "address",
          "name": "from",
          "type": "address"
        },
        {
          "internalType": "address",
          "name": "to",
          "type": "address"
        },
        {
          "internalType": "uint256",
          "name": "ticketId",
          "type": "uint256"
        }
      ],
      "name": "transferFrom",
      "outputs": [],
      "payable": false,
      "stateMutability": "nonpayable",
      "type": "function"
    },
    {
      "constant": false,
      "inputs": [
        {
          "internalType": "address",
          "name": "from",
          "type": "address"
        },
        {
          "internalType": "address",
          "name": "to",
          "type": "address"
        },
        {
          "internalType": "uint256",
          "name": "ticketId",
          "type": "uint256"
        },
        {
          "internalType": "bytes",
          "name": "_data",
          "type": "bytes"
        }
      ],
      "name": "safeTransferFrom",
      "outputs": [],
      "payable": false,
      "stateMutability": "nonpayable",
      "type": "function"
    },
    {
      "constant": false,
      "inputs": [
        {
          "internalType": "address",
          "name": "from",
          "type": "address"
        },
        {
          "internalType": "address",
          "name": "to",
          "type": "address"
        },
        {
          "internalType": "uint256",
          "name": "ticketId",
          "type": "uint256"
        }
      ],
      "name": "safeTransferFrom",
      "outputs": [],
      "payable": false,
      "stateMutability": "nonpayable",
      "type": "function"
    }
  ],
  "bytecode": "0x60806040523480156200001157600080fd5b5060405162002dbe38038062002dbe833981810160405260408110156200003757600080fd5b81019080805160405193929190846401000000008211156200005857600080fd5b9083019060208201858111156200006e57600080fd5b82516401000000008111828201881017156200008957600080fd5b82525081516020918201929091019080838360005b83811015620000b85781810151838201526020016200009e565b50505050905090810190601f168015620000e65780820380516001836020036101000a031916815260200191505b50604052602001805160405193929190846401000000008211156200010a57600080fd5b9083019060208201858111156200012057600080fd5b82516401000000008111828201881017156200013b57600080fd5b82525081516020918201929091019080838360005b838110156200016a57818101518382015260200162000150565b50505050905090810190601f168015620001985780820380516001836020036101000a031916815260200191505b5060405250620001bc91506301ffc9a760e01b90506001600160e01b036200022616565b620001d76380ac58cd60e01b6001600160e01b036200022616565b620001f263780e9d6360e01b6001600160e01b036200022616565b81516200020790600e906020850190620002ab565b5080516200021d90600f906020840190620002ab565b50505062000350565b6001600160e01b0319808216141562000286576040805162461bcd60e51b815260206004820152601c60248201527f4552433136353a20696e76616c696420696e7465726661636520696400000000604482015290519081900360640190fd5b6001600160e01b0319166000908152602081905260409020805460ff19166001179055565b828054600181600116156101000203166002900490600052602060002090601f016020900481019282601f10620002ee57805160ff19168380011785556200031e565b828001600101855582156200031e579182015b828111156200031e57825182559160200191906001019062000301565b506200032c92915062000330565b5090565b6200034d91905b808211156200032c576000815560010162000337565b90565b612a5e80620003606000396000f3fe608060405234801561001057600080fd5b50600436106101735760003560e01c80634f6ccce7116100de57806395d89b4111610097578063b88d4fde11610071578063b88d4fde146106d9578063c87b56dd1461079d578063d3fc9864146107ba578063e985e9c51461083d57610173565b806395d89b411461067d578063976acdff14610685578063a22cb465146106ab57610173565b80634f6ccce71461045d57806359ed99db1461047a5780636352211e146104f1578063636ef35b1461050e57806370a082311461062b57806383f4bb8a1461065157610173565b80632f745c59116101305780632f745c59146102e757806339249528146103135780633cc1c7e01461033957806340c10f191461036557806342842e0e14610391578063493863c8146103c757610173565b806301ffc9a71461017857806306fdde03146101b3578063081812fc14610230578063095ea7b31461026957806318160ddd1461029757806323b872dd146102b1575b600080fd5b61019f6004803603602081101561018e57600080fd5b50356001600160e01b03191661086b565b604080519115158252519081900360200190f35b6101bb61088e565b6040805160208082528351818301528351919283929083019185019080838360005b838110156101f55781810151838201526020016101dd565b50505050905090810190601f1680156102225780820380516001836020036101000a031916815260200191505b509250505060405180910390f35b61024d6004803603602081101561024657600080fd5b5035610925565b604080516001600160a01b039092168252519081900360200190f35b6102956004803603604081101561027f57600080fd5b506001600160a01b038135169060200135610987565b005b61029f610a98565b60408051918252519081900360200190f35b610295600480360360608110156102c757600080fd5b506001600160a01b03813581169160208101359091169060400135610a9e565b61029f600480360360408110156102fd57600080fd5b506001600160a01b038135169060200135610b13565b61029f6004803603602081101561032957600080fd5b50356001600160a01b0316610b93565b61029f6004803603604081101561034f57600080fd5b506001600160a01b038135169060200135610ba5565b61029f6004803603604081101561037b57600080fd5b506001600160a01b038135169060200135610be9565b610295600480360360608110156103a757600080fd5b506001600160a01b03813581169160208101359091169060400135610dd3565b610435600480360360208110156103dd57600080fd5b810190602081018135600160201b8111156103f757600080fd5b82018360208201111561040957600080fd5b803590602001918460018302840111600160201b8311171561042a57600080fd5b509092509050610dee565b6040805193151584526001600160a01b03909216602084015282820152519081900360600190f35b61029f6004803603602081101561047357600080fd5b5035610e8e565b61019f6004803603604081101561049057600080fd5b810190602081018135600160201b8111156104aa57600080fd5b8201836020820111156104bc57600080fd5b803590602001918460018302840111600160201b831117156104dd57600080fd5b9193509150356001600160a01b0316610ef4565b61024d6004803603602081101561050757600080fd5b5035610f44565b610295600480360360a081101561052457600080fd5b810190602081018135600160201b81111561053e57600080fd5b82018360208201111561055057600080fd5b803590602001918460018302840111600160201b8311171561057157600080fd5b919390926001600160a01b0383351692604081019060200135600160201b81111561059b57600080fd5b8201836020820111156105ad57600080fd5b803590602001918460208302840111600160201b831117156105ce57600080fd5b919390929091602081019035600160201b8111156105eb57600080fd5b8201836020820111156105fd57600080fd5b803590602001918460208302840111600160201b8311171561061e57600080fd5b9193509150351515610f98565b61029f6004803603602081101561064157600080fd5b50356001600160a01b031661130c565b61019f6004803603604081101561066757600080fd5b50803590602001356001600160a01b0316611374565b6101bb6114d5565b61029f6004803603602081101561069b57600080fd5b50356001600160a01b0316611536565b610295600480360360408110156106c157600080fd5b506001600160a01b0381351690602001351515611551565b610295600480360360808110156106ef57600080fd5b6001600160a01b03823581169260208101359091169160408201359190810190608081016060820135600160201b81111561072957600080fd5b82018360208201111561073b57600080fd5b803590602001918460018302840111600160201b8311171561075c57600080fd5b91908080601f01602080910402602001604051908101604052809392919081815260200183838082843760009201919091525092955061161d945050505050565b6101bb600480360360208110156107b357600080fd5b5035611675565b61029f600480360360608110156107d057600080fd5b6001600160a01b0382351691602081013591810190606081016040820135600160201b8111156107ff57600080fd5b82018360208201111561081157600080fd5b803590602001918460018302840111600160201b8311171561083257600080fd5b5090925090506119e2565b61019f6004803603604081101561085357600080fd5b506001600160a01b0381358116916020013516611be4565b6001600160e01b0319811660009081526020819052604090205460ff165b919050565b600e8054604080516020601f600260001961010060018816150201909516949094049384018190048102820181019092528281526060939092909183018282801561091a5780601f106108ef5761010080835404028352916020019161091a565b820191906000526020600020905b8154815290600101906020018083116108fd57829003601f168201915b505050505090505b90565b600061093082611c12565b61096b5760405162461bcd60e51b815260040180806020018281038252602c815260200180612865602c913960400191505060405180910390fd5b506000908152600260205260409020546001600160a01b031690565b600061099282610f44565b9050806001600160a01b0316836001600160a01b031614156109e55760405162461bcd60e51b81526004018080602001828103825260218152602001806129096021913960400191505060405180910390fd5b336001600160a01b0382161480610a015750610a018133611be4565b610a3c5760405162461bcd60e51b81526004018080602001828103825260388152602001806127736038913960400191505060405180910390fd5b60008281526002602052604080822080546001600160a01b0319166001600160a01b0387811691821790925591518593918516917f8c5be1e5ebec7d5bd14f71427d1e84f3dd0314c0f7b2291e5b200ac8c7c3b92591a4505050565b60075490565b610aa9338483611c2f565b610ae45760405162461bcd60e51b815260040180806020018281038252603b81526020018061292a603b913960400191505060405180910390fd5b610aee3382611d92565b15610b0357610afe838383611e51565b610b0e565b610b0e838383611f83565b505050565b6000610b1e8361130c565b8210610b5b5760405162461bcd60e51b815260040180806020018281038252602b8152602001806126c6602b913960400191505060405180910390fd5b6001600160a01b0383166000908152600560205260409020805483908110610b7f57fe5b906000526020600020015490505b92915050565b600b6020526000908152604090205481565b6040805160609390931b6bffffffffffffffffffffffff19166020808501919091526034808501939093528151808503909301835260549093019052805191012090565b600081610bf581611fd3565b610c305760405162461bcd60e51b81526004018080602001828103825260348152602001806129f66034913960400191505060405180910390fd5b610c3a8133611374565b610c755760405162461bcd60e51b81526004018080602001828103825260278152602001806127ab6027913960400191505060405180910390fd5b6001600160a01b0384166000908152600b6020526040812054610c99908690610ba5565b9050610ca58582611fda565b60408051602080820183528682526000848152600c9091529190912090519055600a805433916001600160a01b0388169187908110610ce057fe5b906000526020600020016040518082805460018160011615610100020316600290048015610d455780601f10610d23576101008083540402835291820191610d45565b820191906000526020600020905b815481529060010190602001808311610d31575b50506040805191829003822087835290519093507f8af9c7c4f2413d56d919f89b29336eab0ed2f54976f0934a2360ab013bc957a192509081900360200190a460405181906001600160a01b0387169033906000805160206128e983398151915290600090a46001600160a01b0385166000908152600b602052604090208054600101905591505092915050565b610b0e8383836040518060200160405280600081525061161d565b600080600060098585604051808383808284379190910194855250506040519283900360200183205460ff169260099250889150879080838380828437919091019485525050604051928390036020018320600301546001600160a01b0361010090910416926009925089915088908083838082843780830192505050925050509081526020016040518091039020600401549250925092509250925092565b6000610e98610a98565b8210610ed55760405162461bcd60e51b815260040180806020018281038252602c8152602001806129ca602c913960400191505060405180910390fd5b60078281548110610ee257fe5b90600052602060002001549050919050565b6000600984846040518083838082843791909101948552505060408051602094819003850190206001600160a01b03969096166000908152600190960190935250509091205460ff169392505050565b6000818152600160205260408120546001600160a01b031680610b8d5760405162461bcd60e51b81526004018080602001828103825260298152602001806127fc6029913960400191505060405180910390fd5b610fd788888080601f016020809104026020016040519081016040528093929190818152602001838380828437600092019190915250611ffb92505050565b15156001146110175760405162461bcd60e51b81526004018080602001828103825260408152602001806128256040913960400191505060405180910390fd5b6009888860405180838380828437919091019485525050604051928390036020019092205460ff1615915061107f90505760405162461bcd60e51b81526004018080602001828103825260348152602001806129966034913960400191505060405180910390fd5b60016009898960405180838380828437919091019485525050604051928390036020018320805494151560ff1990951694909417909355508791506009908a908a90808383808284378083019250505092505050908152602001604051809103902060030160016101000a8154816001600160a01b0302191690836001600160a01b0316021790555080600989896040518083838082843791909101948552505060405192839003602001909220600301805493151560ff199094169390931790925550600090505b848110156111c357600160098a8a6040518083838082843780830192505050925050509081526020016040518091039020600101600088888581811061118a57fe5b602090810292909201356001600160a01b0316835250810191909152604001600020805460ff1916911515919091179055600101611148565b50816112135760016009898960405180838380828437919091019485525050604080516020948190038501902060008080526002909101909452909220805460ff19169315159390931790925550505b60005b8281101561129157600160098a8a6040518083838082843780830192505050925050509081526020016040518091039020600201600086868581811061125857fe5b602090810292909201356001600160a01b0316835250810191909152604001600020805460ff1916911515919091179055600101611216565b50600a8054600181810180845560009390935291906112d3907fc65a7bb8d6351c1cf70c95a316cc6a92839c986682d98bc35f958f4883f9d2a8018b8b61260d565b50036009898960405180838380828437919091019485525050604051928390036020019092206004019290925550505050505050505050565b60006001600160a01b0382166113535760405162461bcd60e51b815260040180806020018281038252602a8152602001806127d2602a913960400191505060405180910390fd5b6001600160a01b0382166000908152600360205260409020610b8d906120c5565b60006009600a848154811061138557fe5b9060005260206000200160405180828054600181600116156101000203166002900480156113ea5780601f106113c85761010080835404028352918201916113ea565b820191906000526020600020905b8154815290600101906020018083116113d6575b50509283525050604080519182900360209081019092206000808052600290910190925290205460ff1615156001141561142657506001610b8d565b6009600a848154811061143557fe5b90600052602060002001604051808280546001816001161561010002031660029004801561149a5780601f1061147857610100808354040283529182019161149a565b820191906000526020600020905b815481529060010190602001808311611486575b5050928352505060408051602092819003830190206001600160a01b0394909416600090815260029094019091529091205460ff1692915050565b600f8054604080516020601f600260001961010060018816150201909516949094049384018190048102820181019092528281526060939092909183018282801561091a5780601f106108ef5761010080835404028352916020019161091a565b6001600160a01b03166000908152600b602052604090205490565b6001600160a01b0382163314156115af576040805162461bcd60e51b815260206004820152601960248201527f4552433732313a20617070726f766520746f2063616c6c657200000000000000604482015290519081900360640190fd5b3360008181526004602090815260408083206001600160a01b03871680855290835292819020805460ff1916861515908117909155815190815290519293927f17307eab39ab6107e8899845ad3d59bd9653f200f220920489ca2b5937696c31929181900390910190a35050565b611628848484610a9e565b611634848484846120c9565b61166f5760405162461bcd60e51b81526004018080602001828103825260328152602001806126f16032913960400191505060405180910390fd5b50505050565b606061168082611c12565b6116bb5760405162461bcd60e51b815260040180806020018281038252602f8152602001806128ba602f913960400191505060405180910390fd5b6000828152600c6020526040812054600a80546009929081106116da57fe5b90600052602060002001604051808280546001816001161561010002031660029004801561173f5780601f1061171d57610100808354040283529182019161173f565b820191906000526020600020905b81548152906001019060200180831161172b575b50509283525050604051908190036020019020600301546001600160a01b036101009091041614611943576000828152600c6020526040902054600a805460099290811061178957fe5b9060005260206000200160405180828054600181600116156101000203166002900480156117ee5780601f106117cc5761010080835404028352918201916117ee565b820191906000526020600020905b8154815290600101906020018083116117da575b50509283525050604080519182900360200182206003015463c87b56dd60e01b83526004830185905290516001600160a01b03610100909204919091169163c87b56dd916024808301926000929190829003018186803b15801561185157600080fd5b505afa158015611865573d6000803e3d6000fd5b505050506040513d6000823e601f3d908101601f19168201604052602081101561188e57600080fd5b8101908080516040519392919084600160201b8211156118ad57600080fd5b9083019060208201858111156118c257600080fd5b8251600160201b8111828201881017156118db57600080fd5b82525081516020918201929091019080838360005b838110156119085781810151838201526020016118f0565b50505050905090810190601f1680156119355780820380516001836020036101000a031916815260200191505b506040525050509050610889565b6000828152600d602090815260409182902080548351601f6002600019610100600186161502019093169290920491820184900484028101840190945280845290918301828280156119d65780601f106119ab576101008083540402835291602001916119d6565b820191906000526020600020905b8154815290600101906020018083116119b957829003601f168201915b50505050509050610889565b6000836119ee81611fd3565b611a295760405162461bcd60e51b81526004018080602001828103825260348152602001806129f66034913960400191505060405180910390fd5b611a338133611374565b611a6e5760405162461bcd60e51b81526004018080602001828103825260278152602001806127ab6027913960400191505060405180910390fd5b6001600160a01b0386166000908152600b6020526040812054611a92908890610ba5565b9050611a9e8782611fda565b60408051602080820183528882526000848152600c82528381209251909255600d905220611acd90868661260d565b50336001600160a01b0316876001600160a01b0316600a8881548110611aef57fe5b906000526020600020016040518082805460018160011615610100020316600290048015611b545780601f10611b32576101008083540402835291820191611b54565b820191906000526020600020905b815481529060010190602001808311611b40575b50506040805191829003822087835290519093507f8af9c7c4f2413d56d919f89b29336eab0ed2f54976f0934a2360ab013bc957a192509081900360200190a460405181906001600160a01b0389169033906000805160206128e983398151915290600090a46001600160a01b0387166000908152600b6020526040902080546001019055915050949350505050565b6001600160a01b03918216600090815260046020908152604080832093909416825291909152205460ff1690565b6000908152600160205260409020546001600160a01b0316151590565b6000818152600c6020526040812054600a8054600992908110611c4e57fe5b906000526020600020016040518082805460018160011615610100020316600290048015611cb35780601f10611c91576101008083540402835291820191611cb3565b820191906000526020600020905b815481529060010190602001808311611c9f575b505092835250506040519081900360200190206003015460ff1680611d8a57506000828152600c6020526040902054600a8054600992908110611cf257fe5b906000526020600020016040518082805460018160011615610100020316600290048015611d575780601f10611d35576101008083540402835291820191611d57565b820191906000526020600020905b815481529060010190602001808311611d43575b5050928352505060408051602092819003830190206001600160a01b0387166000908152600190910190925290205460ff165b949350505050565b6000818152600c6020526040812054600a8054600992908110611db157fe5b906000526020600020016040518082805460018160011615610100020316600290048015611e165780601f10611df4576101008083540402835291820191611e16565b820191906000526020600020905b815481529060010190602001808311611e02575b5050928352505060408051602092819003830190206001600160a01b0395909516600090815260019095019091529092205460ff1692915050565b826001600160a01b0316611e6482610f44565b6001600160a01b031614611ea95760405162461bcd60e51b81526004018080602001828103825260298152602001806128916029913960400191505060405180910390fd5b6001600160a01b038216611eee5760405162461bcd60e51b81526004018080602001828103825260248152602001806127236024913960400191505060405180910390fd5b611ef7816121fc565b6001600160a01b0383166000908152600360205260409020611f1890612239565b6001600160a01b0382166000908152600360205260409020611f3990612250565b60008181526001602052604080822080546001600160a01b0319166001600160a01b0386811691821790925591518493918716916000805160206128e983398151915291a4505050565b611f8d3382612259565b611fc85760405162461bcd60e51b81526004018080602001828103825260318152602001806129656031913960400191505060405180910390fd5b610b0e8383836122f5565b600a541190565b611fe48282612314565b611fee8282612433565b611ff781612471565b5050565b80516000908290612010576000915050610889565b60005b81518110156120bb57602182828151811061202a57fe5b016020015160f81c60000b1280159061205a5750604082828151811061204c57fe5b016020015160f81c60000b13155b8061209e5750605b82828151811061206e57fe5b016020015160f81c60000b1280159061209e5750607e82828151811061209057fe5b016020015160f81c60000b13155b156120a8576120b3565b600092505050610889565b600101612013565b5060019392505050565b5490565b60006120dd846001600160a01b03166124b5565b6120e957506001611d8a565b604051630a85bd0160e11b815233600482018181526001600160a01b03888116602485015260448401879052608060648501908152865160848601528651600095928a169463150b7a029490938c938b938b939260a4019060208501908083838e5b8381101561216357818101518382015260200161214b565b50505050905090810190601f1680156121905780820380516001836020036101000a031916815260200191505b5095505050505050602060405180830381600087803b1580156121b257600080fd5b505af11580156121c6573d6000803e3d6000fd5b505050506040513d60208110156121dc57600080fd5b50516001600160e01b031916630a85bd0160e11b14915050949350505050565b6000818152600260205260409020546001600160a01b03161561223657600081815260026020526040902080546001600160a01b03191690555b50565b805461224c90600163ffffffff6124bb16565b9055565b80546001019055565b600061226482611c12565b61229f5760405162461bcd60e51b815260040180806020018281038252602c815260200180612747602c913960400191505060405180910390fd5b60006122aa83610f44565b9050806001600160a01b0316846001600160a01b031614806122e55750836001600160a01b03166122da84610925565b6001600160a01b0316145b80611d8a5750611d8a8185611be4565b612300838383611e51565b61230a8382612518565b610b0e8282612433565b6001600160a01b03821661236f576040805162461bcd60e51b815260206004820181905260248201527f4552433732313a206d696e7420746f20746865207a65726f2061646472657373604482015290519081900360640190fd5b61237881611c12565b156123ca576040805162461bcd60e51b815260206004820152601c60248201527f4552433732313a20746f6b656e20616c7265616479206d696e74656400000000604482015290519081900360640190fd5b600081815260016020908152604080832080546001600160a01b0319166001600160a01b03871690811790915583526003909152902061240990612250565b60405181906001600160a01b038416906000906000805160206128e9833981519152908290a45050565b6001600160a01b0390911660009081526005602081815260408084208054868652600684529185208290559282526001810183559183529091200155565b600780546000838152600860205260408120829055600182018355919091527fa66cc928b5edb82af9bd49922954155ab7b0942694bea4ce44661d9a8736c6880155565b3b151590565b600082821115612512576040805162461bcd60e51b815260206004820152601e60248201527f536166654d6174683a207375627472616374696f6e206f766572666c6f770000604482015290519081900360640190fd5b50900390565b6001600160a01b03821660009081526005602052604081205461254290600163ffffffff6124bb16565b6000838152600660205260409020549091508082146125dd576001600160a01b038416600090815260056020526040812080548490811061257f57fe5b906000526020600020015490508060056000876001600160a01b03166001600160a01b0316815260200190815260200160002083815481106125bd57fe5b600091825260208083209091019290925591825260069052604090208190555b6001600160a01b038416600090815260056020526040902080549061260690600019830161268b565b5050505050565b828054600181600116156101000203166002900490600052602060002090601f016020900481019282601f1061264e5782800160ff1982351617855561267b565b8280016001018555821561267b579182015b8281111561267b578235825591602001919060010190612660565b506126879291506126ab565b5090565b815481835581811115610b0e57600083815260209020610b0e9181019083015b61092291905b8082111561268757600081556001016126b156fe455243373231456e756d657261626c653a206f776e657220696e646578206f7574206f6620626f756e64734552433732313a207472616e7366657220746f206e6f6e20455243373231526563656976657220696d706c656d656e7465724552433732313a207472616e7366657220746f20746865207a65726f20616464726573734552433732313a206f70657261746f7220717565727920666f72206e6f6e6578697374656e7420746f6b656e4552433732313a20617070726f76652063616c6c6572206973206e6f74206f776e6572206e6f7220617070726f76656420666f7220616c6c5469636b6574466f7267653a3a6d696e74207c20756e617574686f72697a6564206d696e7465724552433732313a2062616c616e636520717565727920666f7220746865207a65726f20616464726573734552433732313a206f776e657220717565727920666f72206e6f6e6578697374656e7420746f6b656e5469636b6574466f7267653a3a63726561746553636f7065207c206e616d6520656d707479206f72207769746820696e76616c696420636861726163746572734552433732313a20617070726f76656420717565727920666f72206e6f6e6578697374656e7420746f6b656e4552433732313a207472616e73666572206f6620746f6b656e2074686174206973206e6f74206f776e4552433732314d657461646174613a2055524920717565727920666f72206e6f6e6578697374656e7420746f6b656eddf252ad1be2c89b69c2b068fc378daa952ba7f163c4a11628f55a4df523b3ef4552433732313a20617070726f76616c20746f2063757272656e74206f776e65724552433732313a207472616e7366657220697320696c6c6567616c207769746820676976656e2073636f706520616e6420706172616d65746572734552433732313a207472616e736665722063616c6c6572206973206e6f74206f776e6572206e6f7220617070726f7665645469636b6574466f7267653a3a63726561746553636f7065207c2073636f7065206e616d6520616c726561647920696e20757365455243373231456e756d657261626c653a20676c6f62616c20696e646578206f7574206f6620626f756e64735469636b6574466f7267653a3a6d696e74207c20696e76616c69642073636f706520666f72207469636b6574206d696e74696e67a265627a7a723158205326ed1856cd6efa59fb4edc777e8d3252029c29d96acae9a46cc72ace53e98f64736f6c634300050f0032",
  "source": "pragma solidity 0.5.15;\n\nimport \"@openzeppelin/contracts/token/ERC721/ERC721.sol\";\nimport \"@openzeppelin/contracts/token/ERC721/ERC721Enumerable.sol\";\nimport \"./ITokenUriProvider.sol\";\n\n//\n//              .-------..___\n//              '-._     :_.-'\n//                 ) _ (\n//                '-' '-'\n//     \n//               \n//            \n//\ncontract TicketForge is ERC721, ERC721Enumerable {\n    event Mint(string indexed scope, address indexed owner, address indexed issuer, uint256 ticketId);\n\n    /**\n    * @notice Represents a Scope. All tickets should belong to a scope. A scope adds\n    *         rules to the ticket's mechanisms.\n    */\n    struct Scope {\n        bool exists;\n        mapping (address => bool) transfer_admins;\n        mapping (address => bool) mint_admins;\n        bool user_exchangeable;\n        address tokenuri_provider;\n        uint256 index;\n    }\n\n    struct Ticket {\n        uint256 scope;\n    }\n\n    mapping (string => Scope)   private scopes;\n    string[]                    private scopeByIndex;\n    mapping (address => uint256) public mint_nonce;\n    mapping (uint256 => Ticket) private ticketInfos;\n    mapping (uint256 => string) private ticketURIs;\n    string                      private _name;\n    string                      private _symbol;\n\n    constructor(string memory contract_name, string memory symbol) public {\n        _name = contract_name;\n        _symbol = symbol;\n    }\n\n    /**\n     *  @notice Utility to get scope's existence and tokenURI provider.\n     *\n     *  @param scope_name Name of the scope to check.\n     *\n     */\n    function getScope(string calldata scope_name)\n    external view returns (bool exists, address tokenuri_provider, uint256 scope_index) {\n        return (scopes[scope_name].exists, scopes[scope_name].tokenuri_provider, scopes[scope_name].index);\n    }\n\n    /**\n     *  @notice Utility to know if a provided address is a admin of provided scope name\n     *\n     *  @param scope_name Name of the scope to check.\n     *\n     *  @param admin Address to check.\n     *\n     */\n    function isScopeAdmin(string calldata scope_name, address admin) external view returns (bool) {\n        return scopes[scope_name].transfer_admins[admin];\n    }\n\n    /**\n     *  @notice Utility to know if a provided address is a mint admin able to create tickets.\n     *          If `address(0)` is a mint admin, this will return true for all addresses.\n     *\n     *  @param scopeIndex index of scope to check\n     *\n     *  @param minter address of minter to check\n     *\n     */\n    function isAllowedMinter(uint256 scopeIndex, address minter) public view returns (bool) {\n        if (scopes[scopeByIndex[scopeIndex]].mint_admins[address(0)] == true) {\n            return true;\n        }\n\n        return scopes[scopeByIndex[scopeIndex]].mint_admins[minter];\n    }\n\n    /**\n     *  @notice Utility to recover ERC-721 Metadata Name\n     *\n     */\n    function name() external view returns (string memory) {\n        return _name;\n    }\n\n    /**\n     *  @notice Utility to recover ERC-721 Metadata Symbol\n     *\n     */\n    function symbol() external view returns (string memory) {\n        return _symbol;\n    }\n\n    /**\n     *  @notice Utility to recover the tokenUri for a specific ticketId.\n     *          If a TokenUri provider is set on the scope, will call him instead.\n     *\n     *  @param ticketId Id of Ticket\n     *\n     */\n    function tokenURI(uint256 ticketId) external view returns (string memory) {\n        require(_exists(ticketId), \"ERC721Metadata: URI query for nonexistent token\");\n\n        if (scopes[scopeByIndex[ticketInfos[ticketId].scope]].tokenuri_provider != address(0)) {\n            return ITokenUriProvider(\n                scopes[scopeByIndex[ticketInfos[ticketId].scope]].tokenuri_provider\n            ).tokenURI(ticketId);\n        } else {\n            return ticketURIs[ticketId];\n        }\n    }\n\n    modifier mintCheck(uint256 scopeIndex) {\n        require(scopeByIndexExists(scopeIndex), \"TicketForge::mint | invalid scope for ticket minting\");\n        require(isAllowedMinter(scopeIndex, msg.sender), \"TicketForge::mint | unauthorized minter\");\n        _;\n    }\n\n    /**\n     *  @notice Creates an immutable scope. Define transfer admins that can trigger any transfers\n     *          on any user's behalf. This is meant to delegate logics like marketplaces to other\n     *          contracts. Do not use this to set wallets as admins ...\n     *          The tokenuri_provider is a contract that implement the TokenURIProvider interface.\n     *          This contract will be called to resolve tokenURIs. Set to 0x000.. to use a normal\n     *          behavior where each token should have its own tokenURI.\n     *\n     *  @dev The function MUST throw if the provided name is empty\n     *\n     *  @dev The function MUST throw if the provided name contains uppercase letters\n     *\n     *  @dev The function MUST throw if the provided name is already defined\n     *\n     *  @param scope_name Name to give to the new scope\n     *\n     *  @param tokenuri_provider Address of TokenURIProvider contract. `address(0)` is none should be used.\n     *\n     *  @param transfer_admins Array of addresses. They all become transfer admins for the scope's tickets. This\n     *                         means they can trigger any transfers. Made to be used on contracts like marketplaces.\n     *\n     *  @param mint_admins Array of address allowed to mint tickets\n     *\n     *  @param user_exchangeable True if users can exchange tickets outside of the allowed transfer contracts\n     */\n    function createScope(\n        string calldata scope_name,\n        address tokenuri_provider,\n        address[] calldata transfer_admins,\n        address[] calldata mint_admins,\n        bool user_exchangeable\n    ) external {\n        require(verifyScopeName(scope_name) == true,\n            \"TicketForge::createScope | name empty or with invalid characters\");\n        require(scopes[scope_name].exists == false,\n            \"TicketForge::createScope | scope name already in use\");\n\n        scopes[scope_name].exists = true;\n        scopes[scope_name].tokenuri_provider = tokenuri_provider;\n        scopes[scope_name].user_exchangeable = user_exchangeable;\n\n        for (uint idx = 0; idx < transfer_admins.length; ++idx) {\n            scopes[scope_name].transfer_admins[transfer_admins[idx]] = true;\n        }\n\n        if (mint_admins.length == 0) {\n            scopes[scope_name].mint_admins[address(0)] = true;\n        }\n\n        for (uint idx = 0; idx < mint_admins.length; ++idx) {\n            scopes[scope_name].mint_admins[mint_admins[idx]] = true;\n        }\n\n        scopes[scope_name].index = scopeByIndex.push(scope_name) - 1;\n    }\n\n    /**\n     * @notice Retrieves the current mint nonce of an address\n     *\n     * @param owner Address to check\n     */\n    function getMintNonce(address owner) public view returns (uint256) {\n        return mint_nonce[owner];\n    }\n\n    /**\n     * @notice Generates the deterministic mint ID for an owner\n     *\n     * @param owner Address of initial token owner\n     * @param _mint_nonce Nonce of owner mintings\n     */\n    function getTokenID(address owner, uint256 _mint_nonce) public pure returns (uint256) {\n\n        bytes32 hash = keccak256(\n            abi.encodePacked(\n                owner,\n                _mint_nonce\n            )\n        );\n\n        return uint256(hash);\n    }\n\n    /**\n     *  @notice Create a new ERC-721 token assigned to given address, under specified scope\n     *\n     *  @param to Address of initial owner\n     *  @param scopeIndex Index of desired scope\n     */\n    function mint(address to, uint256 scopeIndex)\n    external\n    mintCheck(scopeIndex)\n    returns (uint256) {\n\n        uint256 id = getTokenID(to, mint_nonce[to]);\n\n        _mint(to, id);\n        ticketInfos[id] = Ticket({scope: scopeIndex});\n        emit Mint(scopeByIndex[scopeIndex], to, msg.sender, id);\n        emit Transfer(msg.sender, to, id);\n        ++mint_nonce[to];\n\n        return id;\n    }\n\n    /**\n     *  @notice Creates a new ERC-721 token assigned to given address, under specified scope. Also\n     *          assigns given token uri.\n     *\n     *  @param to Address of initial owner\n     *  @param scopeIndex Index of desired scope\n     *  @param tokenUri Token Uri to assign to new token\n     */\n    function mint(address to, uint256 scopeIndex, string calldata tokenUri)\n    external\n    mintCheck(scopeIndex)\n    returns (uint256) {\n        uint256 id = getTokenID(to, mint_nonce[to]);\n\n        _mint(to, id);\n        ticketInfos[id] = Ticket({scope: scopeIndex});\n        ticketURIs[id] = tokenUri;\n        emit Mint(scopeByIndex[scopeIndex], to, msg.sender, id);\n        emit Transfer(msg.sender, to, id);\n        ++mint_nonce[to];\n\n        return id;\n    }\n\n    /**\n     * @dev Transfers the ownership of a given token ID to another address.\n     * Usage of this method is discouraged, use `safeTransferFrom` whenever possible.\n     * Requires the msg.sender to be the owner, approved, or operator.\n     *\n     * @param from current owner of the token\n     * @param to address to receive the ownership of the given token ID\n     * @param ticketId uint256 ID of the token to be transferred\n     */\n    function transferFrom(address from, address to, uint256 ticketId) public {\n        require(_isTransferLegal(msg.sender, from, ticketId),\n            \"ERC721: transfer is illegal with given scope and parameters\");\n\n        if (_isTransferAdmin(msg.sender, ticketId)) {\n            ERC721._transferFrom(from, to, ticketId);\n        } else {\n            ERC721.transferFrom(from, to, ticketId);\n        }\n    }\n\n    /**\n     * @dev Safely transfers the ownership of a given token ID to another address\n     * If the target address is a contract, it must implement `onERC721Received`,\n     * which is called upon a safe transfer, and return the magic value\n     * `bytes4(keccak256(\"onERC721Received(address,address,uint256,bytes)\"))`; otherwise,\n     * the transfer is reverted.\n     * Requires the msg.sender to be the owner, approved, or operator\n     *\n     * @param from current owner of the token\n     * @param to address to receive the ownership of the given token ID\n     * @param ticketId uint256 ID of the token to be transferred\n     */\n    function safeTransferFrom(address from, address to, uint256 ticketId) public {\n        TicketForge.safeTransferFrom(from, to, ticketId, \"\");\n    }\n\n    /**\n     * @dev Safely transfers the ownership of a given token ID to another address\n     * If the target address is a contract, it must implement `onERC721Received`,\n     * which is called upon a safe transfer, and return the magic value\n     * `bytes4(keccak256(\"onERC721Received(address,address,uint256,bytes)\"))`; otherwise,\n     * the transfer is reverted.\n     * Requires the msg.sender to be the owner, approved, or operator\n     *\n     * @param from current owner of the token\n     * @param to address to receive the ownership of the given token ID\n     * @param ticketId uint256 ID of the token to be transferred\n     * @param _data bytes data to send along with a safe transfer check\n     */\n    function safeTransferFrom(address from, address to, uint256 ticketId, bytes memory _data) public {\n        TicketForge.transferFrom(from, to, ticketId);\n        require(_checkOnERC721Received(from, to, ticketId, _data),\n            \"ERC721: transfer to non ERC721Receiver implementer\");\n    }\n\n    function verifyScopeName(string memory scope_name) internal pure returns (bool) {\n        bytes memory check_bytes = bytes(scope_name);\n\n        if (check_bytes.length == 0) return false;\n\n        for (uint idx = 0; idx < check_bytes.length; ++idx) {\n            if ((int8(check_bytes[idx]) >= 33 && int8(check_bytes[idx]) <= 64) || // Ascii values from ! to @\n                (int8(check_bytes[idx]) >= 91 && int8(check_bytes[idx]) <= 126)) // Ascii values from [ to ~\n            {\n                continue ;\n            }\n            return false;\n        }\n\n        return true;\n    }\n\n    function _isTransferLegal(address caller, address from, uint256 ticketId) internal view returns (bool) {\n        return scopes[scopeByIndex[ticketInfos[ticketId].scope]].user_exchangeable\n        || scopes[scopeByIndex[ticketInfos[ticketId].scope]].transfer_admins[caller];\n    }\n\n    function _isTransferAdmin(address caller, uint256 ticketId) internal view returns (bool) {\n        return scopes[scopeByIndex[ticketInfos[ticketId].scope]].transfer_admins[caller];\n    }\n\n    function scopeByIndexExists(uint256 index) internal view returns (bool) {\n        return scopeByIndex.length > index;\n    }\n\n}\n",
  "sourcePath": "/Users/mortimr/projects/repo/modules/@contracts_ticketforge/contracts/TicketForge.sol",
  "compiler": {
    "name": "solc",
    "version": "0.5.15+commit.6a57276f.Emscripten.clang"
  },
  "schemaVersion": "3.0.9",
  "updatedAt": "2020-05-20T14:30:49.882Z",
  "devdoc": {
    "methods": {
      "approve(address,uint256)": {
        "details": "Approves another address to transfer the given token ID The zero address indicates there is no approved address. There can only be one approved address per token at a given time. Can only be called by the token owner or an approved operator.",
        "params": {
          "to": "address to be approved for the given token ID",
          "tokenId": "uint256 ID of the token to be approved"
        }
      },
      "balanceOf(address)": {
        "details": "Gets the balance of the specified address.",
        "params": {
          "owner": "address to query the balance of"
        },
        "return": "uint256 representing the amount owned by the passed address"
      },
      "createScope(string,address,address[],address[],bool)": {
        "details": "The function MUST throw if the provided name is emptyThe function MUST throw if the provided name contains uppercase lettersThe function MUST throw if the provided name is already defined",
        "params": {
          "mint_admins": "Array of address allowed to mint tickets",
          "scope_name": "Name to give to the new scope",
          "tokenuri_provider": "Address of TokenURIProvider contract. `address(0)` is none should be used.",
          "transfer_admins": "Array of addresses. They all become transfer admins for the scope's tickets. This                        means they can trigger any transfers. Made to be used on contracts like marketplaces.",
          "user_exchangeable": "True if users can exchange tickets outside of the allowed transfer contracts"
        }
      },
      "getApproved(uint256)": {
        "details": "Gets the approved address for a token ID, or zero if no address set Reverts if the token ID does not exist.",
        "params": {
          "tokenId": "uint256 ID of the token to query the approval of"
        },
        "return": "address currently approved for the given token ID"
      },
      "getMintNonce(address)": {
        "params": {
          "owner": "Address to check"
        }
      },
      "getScope(string)": {
        "params": {
          "scope_name": "Name of the scope to check.     "
        }
      },
      "getTokenID(address,uint256)": {
        "params": {
          "_mint_nonce": "Nonce of owner mintings",
          "owner": "Address of initial token owner"
        }
      },
      "isAllowedMinter(uint256,address)": {
        "params": {
          "minter": "address of minter to check     ",
          "scopeIndex": "index of scope to check"
        }
      },
      "isApprovedForAll(address,address)": {
        "details": "Tells whether an operator is approved by a given owner.",
        "params": {
          "operator": "operator address which you want to query the approval of",
          "owner": "owner address which you want to query the approval of"
        },
        "return": "bool whether the given operator is approved by the given owner"
      },
      "isScopeAdmin(string,address)": {
        "params": {
          "admin": "Address to check.     ",
          "scope_name": "Name of the scope to check."
        }
      },
      "mint(address,uint256)": {
        "params": {
          "scopeIndex": "Index of desired scope",
          "to": "Address of initial owner"
        }
      },
      "mint(address,uint256,string)": {
        "params": {
          "scopeIndex": "Index of desired scope",
          "to": "Address of initial owner",
          "tokenUri": "Token Uri to assign to new token"
        }
      },
      "ownerOf(uint256)": {
        "details": "Gets the owner of the specified token ID.",
        "params": {
          "tokenId": "uint256 ID of the token to query the owner of"
        },
        "return": "address currently marked as the owner of the given token ID"
      },
      "safeTransferFrom(address,address,uint256)": {
        "details": "Safely transfers the ownership of a given token ID to another address If the target address is a contract, it must implement `onERC721Received`, which is called upon a safe transfer, and return the magic value `bytes4(keccak256(\"onERC721Received(address,address,uint256,bytes)\"))`; otherwise, the transfer is reverted. Requires the msg.sender to be the owner, approved, or operator",
        "params": {
          "from": "current owner of the token",
          "ticketId": "uint256 ID of the token to be transferred",
          "to": "address to receive the ownership of the given token ID"
        }
      },
      "safeTransferFrom(address,address,uint256,bytes)": {
        "details": "Safely transfers the ownership of a given token ID to another address If the target address is a contract, it must implement `onERC721Received`, which is called upon a safe transfer, and return the magic value `bytes4(keccak256(\"onERC721Received(address,address,uint256,bytes)\"))`; otherwise, the transfer is reverted. Requires the msg.sender to be the owner, approved, or operator",
        "params": {
          "_data": "bytes data to send along with a safe transfer check",
          "from": "current owner of the token",
          "ticketId": "uint256 ID of the token to be transferred",
          "to": "address to receive the ownership of the given token ID"
        }
      },
      "setApprovalForAll(address,bool)": {
        "details": "Sets or unsets the approval of a given operator An operator is allowed to transfer all tokens of the sender on their behalf.",
        "params": {
          "approved": "representing the status of the approval to be set",
          "to": "operator address to set the approval"
        }
      },
      "supportsInterface(bytes4)": {
        "details": "See `IERC165.supportsInterface`.     * Time complexity O(1), guaranteed to always use less than 30 000 gas."
      },
      "tokenByIndex(uint256)": {
        "details": "Gets the token ID at a given index of all the tokens in this contract Reverts if the index is greater or equal to the total number of tokens.",
        "params": {
          "index": "uint256 representing the index to be accessed of the tokens list"
        },
        "return": "uint256 token ID at the given index of the tokens list"
      },
      "tokenOfOwnerByIndex(address,uint256)": {
        "details": "Gets the token ID at a given index of the tokens list of the requested owner.",
        "params": {
          "index": "uint256 representing the index to be accessed of the requested tokens list",
          "owner": "address owning the tokens list to be accessed"
        },
        "return": "uint256 token ID at the given index of the tokens list owned by the requested address"
      },
      "tokenURI(uint256)": {
        "params": {
          "ticketId": "Id of Ticket     "
        }
      },
      "totalSupply()": {
        "details": "Gets the total amount of tokens stored by the contract.",
        "return": "uint256 representing the total amount of tokens"
      },
      "transferFrom(address,address,uint256)": {
        "details": "Transfers the ownership of a given token ID to another address. Usage of this method is discouraged, use `safeTransferFrom` whenever possible. Requires the msg.sender to be the owner, approved, or operator.",
        "params": {
          "from": "current owner of the token",
          "ticketId": "uint256 ID of the token to be transferred",
          "to": "address to receive the ownership of the given token ID"
        }
      }
    }
  },
  "userdoc": {
    "methods": {
      "createScope(string,address,address[],address[],bool)": {
        "notice": "Creates an immutable scope. Define transfer admins that can trigger any transfers         on any user's behalf. This is meant to delegate logics like marketplaces to other         contracts. Do not use this to set wallets as admins ...         The tokenuri_provider is a contract that implement the TokenURIProvider interface.         This contract will be called to resolve tokenURIs. Set to 0x000.. to use a normal         behavior where each token should have its own tokenURI."
      },
      "getMintNonce(address)": {
        "notice": "Retrieves the current mint nonce of an address"
      },
      "getScope(string)": {
        "notice": "Utility to get scope's existence and tokenURI provider."
      },
      "getTokenID(address,uint256)": {
        "notice": "Generates the deterministic mint ID for an owner"
      },
      "isAllowedMinter(uint256,address)": {
        "notice": "Utility to know if a provided address is a mint admin able to create tickets.         If `address(0)` is a mint admin, this will return true for all addresses."
      },
      "isScopeAdmin(string,address)": {
        "notice": "Utility to know if a provided address is a admin of provided scope name"
      },
      "mint(address,uint256)": {
        "notice": "Create a new ERC-721 token assigned to given address, under specified scope"
      },
      "mint(address,uint256,string)": {
        "notice": "Creates a new ERC-721 token assigned to given address, under specified scope. Also         assigns given token uri."
      },
      "name()": {
        "notice": "Utility to recover ERC-721 Metadata Name     "
      },
      "symbol()": {
        "notice": "Utility to recover ERC-721 Metadata Symbol     "
      },
      "tokenURI(uint256)": {
        "notice": "Utility to recover the tokenUri for a specific ticketId.         If a TokenUri provider is set on the scope, will call him instead."
      }
    }
  }
}