{
  "contractName": "TokenUriProviderExample",
  "abi": [
    {
      "constant": true,
      "inputs": [
        {
          "internalType": "uint256",
          "name": "id",
          "type": "uint256"
        }
      ],
      "name": "tokenURI",
      "outputs": [
        {
          "internalType": "string",
          "name": "uri",
          "type": "string"
        }
      ],
      "payable": false,
      "stateMutability": "view",
      "type": "function"
    }
  ],
  "bytecode": "0x608060405234801561001057600080fd5b5061010e806100206000396000f3fe6080604052348015600f57600080fd5b506004361060285760003560e01c8063c87b56dd14602d575b600080fd5b604760048036036020811015604157600080fd5b503560b9565b6040805160208082528351818301528351919283929083019185019080838360005b83811015607f5781810151838201526020016069565b50505050905090810190601f16801560ab5780820380516001836020036101000a031916815260200191505b509250505060405180910390f35b506040805180820190915260058152641cd85b1d5d60da1b60208201529056fea265627a7a72315820538d470b26bd074391351bda37bd2ab31ffadf2dde2c36363f63bf3caa9927fe64736f6c634300050f0032",
  "source": "pragma solidity 0.5.15;\n\nimport \"./ITokenUriProvider.sol\";\n\ncontract TokenUriProviderExample is ITokenUriProvider {\n\n    function tokenURI(uint256 id) external view returns (string memory uri) {\n        id;\n        return \"salut\";\n    }\n\n}\n",
  "sourcePath": "/Users/mortimr/projects/repo/modules/@contracts_ticketforge/contracts/TokenUriProviderExample.sol",
  "compiler": {
    "name": "solc",
    "version": "0.5.15+commit.6a57276f.Emscripten.clang"
  },
  "schemaVersion": "3.0.9",
  "updatedAt": "2020-05-20T13:54:58.190Z",
  "devdoc": {
    "methods": {}
  },
  "userdoc": {
    "methods": {}
  }
}