{
  "contractName": "ValidERC721Receiver",
  "abi": [
    {
      "constant": true,
      "inputs": [],
      "name": "last_data",
      "outputs": [
        {
          "internalType": "bytes",
          "name": "",
          "type": "bytes"
        }
      ],
      "payable": false,
      "stateMutability": "view",
      "type": "function"
    },
    {
      "constant": true,
      "inputs": [],
      "name": "last_from",
      "outputs": [
        {
          "internalType": "address",
          "name": "",
          "type": "address"
        }
      ],
      "payable": false,
      "stateMutability": "view",
      "type": "function"
    },
    {
      "constant": true,
      "inputs": [],
      "name": "last_operator",
      "outputs": [
        {
          "internalType": "address",
          "name": "",
          "type": "address"
        }
      ],
      "payable": false,
      "stateMutability": "view",
      "type": "function"
    },
    {
      "constant": true,
      "inputs": [],
      "name": "last_tokenId",
      "outputs": [
        {
          "internalType": "uint256",
          "name": "",
          "type": "uint256"
        }
      ],
      "payable": false,
      "stateMutability": "view",
      "type": "function"
    },
    {
      "constant": false,
      "inputs": [
        {
          "internalType": "address",
          "name": "operator",
          "type": "address"
        },
        {
          "internalType": "address",
          "name": "from",
          "type": "address"
        },
        {
          "internalType": "uint256",
          "name": "tokenId",
          "type": "uint256"
        },
        {
          "internalType": "bytes",
          "name": "data",
          "type": "bytes"
        }
      ],
      "name": "onERC721Received",
      "outputs": [
        {
          "internalType": "bytes4",
          "name": "",
          "type": "bytes4"
        }
      ],
      "payable": false,
      "stateMutability": "nonpayable",
      "type": "function"
    }
  ],
  "bytecode": "0x608060405234801561001057600080fd5b506103da806100206000396000f3fe608060405234801561001057600080fd5b50600436106100575760003560e01c8063150b7a021461005c57806322ab1bba1461013f57806334c6fd96146101bc5780639c372155146101e05780639dacaf13146101fa575b600080fd5b6101226004803603608081101561007257600080fd5b6001600160a01b038235811692602081013590911691604082013591908101906080810160608201356401000000008111156100ad57600080fd5b8201836020820111156100bf57600080fd5b803590602001918460018302840111640100000000831117156100e157600080fd5b91908080601f016020809104026020016040519081016040528093929190818152602001838380828437600092019190915250929550610202945050505050565b604080516001600160e01b03199092168252519081900360200190f35b610147610258565b6040805160208082528351818301528351919283929083019185019080838360005b83811015610181578181015183820152602001610169565b50505050905090810190601f1680156101ae5780820380516001836020036101000a031916815260200191505b509250505060405180910390f35b6101c46102e6565b604080516001600160a01b039092168252519081900360200190f35b6101e86102f5565b60408051918252519081900360200190f35b6101c46102fb565b600080546001600160a01b038087166001600160a01b031992831617835560018054918716919092161790556002839055815161024690600390602085019061030a565b50630a85bd0160e11b95945050505050565b6003805460408051602060026001851615610100026000190190941693909304601f810184900484028201840190925281815292918301828280156102de5780601f106102b3576101008083540402835291602001916102de565b820191906000526020600020905b8154815290600101906020018083116102c157829003601f168201915b505050505081565b6000546001600160a01b031681565b60025481565b6001546001600160a01b031681565b828054600181600116156101000203166002900490600052602060002090601f016020900481019282601f1061034b57805160ff1916838001178555610378565b82800160010185558215610378579182015b8281111561037857825182559160200191906001019061035d565b50610384929150610388565b5090565b6103a291905b80821115610384576000815560010161038e565b9056fea265627a7a7231582061da859da4723af37ad48ba71f33f74fa42d6161e4415a08692b995e6ff9b9a864736f6c634300050f0032",
  "source": "pragma solidity 0.5.15;\n\nimport \"@openzeppelin/contracts/token/ERC721/IERC721Receiver.sol\";\n\ncontract ValidERC721Receiver is IERC721Receiver {\n    bytes4 private constant _ERC721_RECEIVED = 0x150b7a02;\n\n    address public last_operator;\n    address public last_from;\n    uint256 public last_tokenId;\n    bytes public last_data;\n\n\n    function onERC721Received(address operator, address from, uint256 tokenId, bytes memory data)\n    public returns (bytes4) {\n        last_operator = operator;\n        last_from = from;\n        last_tokenId = tokenId;\n        last_data = data;\n        return _ERC721_RECEIVED;\n    }\n}\n\n",
  "sourcePath": "/Users/mortimr/projects/repo/modules/@contracts_ticketforge/contracts/ValidERC721Receiver.sol",
  "compiler": {
    "name": "solc",
    "version": "0.5.15+commit.6a57276f.Emscripten.clang"
  },
  "schemaVersion": "3.0.9",
  "updatedAt": "2020-07-16T15:41:30.512Z",
  "devdoc": {
    "methods": {}
  },
  "userdoc": {
    "methods": {}
  }
}