{
  "contractName": "T721Controller_v0",
  "abi": [
    {
      "inputs": [
        {
          "internalType": "address",
          "name": "_t721",
          "type": "address"
        },
        {
          "internalType": "uint256",
          "name": "_chain_id",
          "type": "uint256"
        }
      ],
      "payable": false,
      "stateMutability": "nonpayable",
      "type": "constructor"
    },
    {
      "anonymous": false,
      "inputs": [
        {
          "indexed": true,
          "internalType": "bytes32",
          "name": "group",
          "type": "bytes32"
        },
        {
          "indexed": true,
          "internalType": "bytes32",
          "name": "attachment",
          "type": "bytes32"
        },
        {
          "indexed": true,
          "internalType": "uint256",
          "name": "ticket_id",
          "type": "uint256"
        },
        {
          "indexed": false,
          "internalType": "uint256",
          "name": "amount",
          "type": "uint256"
        },
        {
          "indexed": false,
          "internalType": "uint256",
          "name": "code",
          "type": "uint256"
        }
      ],
      "name": "Attach",
      "type": "event"
    },
    {
      "anonymous": false,
      "inputs": [
        {
          "indexed": true,
          "internalType": "bytes32",
          "name": "group",
          "type": "bytes32"
        },
        {
          "indexed": true,
          "internalType": "bytes32",
          "name": "category",
          "type": "bytes32"
        },
        {
          "indexed": true,
          "internalType": "address",
          "name": "owner",
          "type": "address"
        },
        {
          "indexed": false,
          "internalType": "uint256",
          "name": "ticket_id",
          "type": "uint256"
        },
        {
          "indexed": false,
          "internalType": "address",
          "name": "buyer",
          "type": "address"
        },
        {
          "indexed": false,
          "internalType": "uint256",
          "name": "code",
          "type": "uint256"
        }
      ],
      "name": "Mint",
      "type": "event"
    },
    {
      "anonymous": false,
      "inputs": [
        {
          "indexed": true,
          "internalType": "address",
          "name": "trigger",
          "type": "address"
        },
        {
          "indexed": true,
          "internalType": "address",
          "name": "target",
          "type": "address"
        },
        {
          "indexed": true,
          "internalType": "address",
          "name": "currency",
          "type": "address"
        },
        {
          "indexed": false,
          "internalType": "uint256",
          "name": "amount",
          "type": "uint256"
        },
        {
          "indexed": false,
          "internalType": "uint256",
          "name": "code",
          "type": "uint256"
        }
      ],
      "name": "Withdraw",
      "type": "event"
    },
    {
      "constant": true,
      "inputs": [
        {
          "internalType": "address",
          "name": "",
          "type": "address"
        },
        {
          "internalType": "uint256",
          "name": "",
          "type": "uint256"
        }
      ],
      "name": "authorization_code_registry",
      "outputs": [
        {
          "internalType": "bool",
          "name": "",
          "type": "bool"
        }
      ],
      "payable": false,
      "stateMutability": "view",
      "type": "function"
    },
    {
      "constant": true,
      "inputs": [
        {
          "internalType": "address",
          "name": "",
          "type": "address"
        }
      ],
      "name": "group_nonce",
      "outputs": [
        {
          "internalType": "uint256",
          "name": "",
          "type": "uint256"
        }
      ],
      "payable": false,
      "stateMutability": "view",
      "type": "function"
    },
    {
      "constant": true,
      "inputs": [],
      "name": "t721",
      "outputs": [
        {
          "internalType": "contract ITicketForge_v0",
          "name": "",
          "type": "address"
        }
      ],
      "payable": false,
      "stateMutability": "view",
      "type": "function"
    },
    {
      "constant": true,
      "inputs": [
        {
          "internalType": "uint256",
          "name": "",
          "type": "uint256"
        }
      ],
      "name": "tickets",
      "outputs": [
        {
          "internalType": "bool",
          "name": "active",
          "type": "bool"
        },
        {
          "internalType": "bytes32",
          "name": "group",
          "type": "bytes32"
        },
        {
          "internalType": "bytes32",
          "name": "category",
          "type": "bytes32"
        }
      ],
      "payable": false,
      "stateMutability": "view",
      "type": "function"
    },
    {
      "constant": true,
      "inputs": [
        {
          "internalType": "bytes32",
          "name": "group",
          "type": "bytes32"
        },
        {
          "internalType": "address",
          "name": "currency",
          "type": "address"
        }
      ],
      "name": "balanceOf",
      "outputs": [
        {
          "internalType": "uint256",
          "name": "",
          "type": "uint256"
        }
      ],
      "payable": false,
      "stateMutability": "view",
      "type": "function"
    },
    {
      "constant": true,
      "inputs": [
        {
          "internalType": "address",
          "name": "_owner",
          "type": "address"
        },
        {
          "internalType": "string",
          "name": "id",
          "type": "string"
        }
      ],
      "name": "getGroupID",
      "outputs": [
        {
          "internalType": "bytes32",
          "name": "",
          "type": "bytes32"
        }
      ],
      "payable": false,
      "stateMutability": "pure",
      "type": "function"
    },
    {
      "constant": false,
      "inputs": [
        {
          "internalType": "address",
          "name": "event_controller",
          "type": "address"
        },
        {
          "internalType": "string",
          "name": "id",
          "type": "string"
        },
        {
          "internalType": "address",
          "name": "currency",
          "type": "address"
        },
        {
          "internalType": "uint256",
          "name": "amount",
          "type": "uint256"
        },
        {
          "internalType": "address",
          "name": "target",
          "type": "address"
        },
        {
          "internalType": "uint256",
          "name": "code",
          "type": "uint256"
        },
        {
          "internalType": "uint256",
          "name": "expiration",
          "type": "uint256"
        },
        {
          "internalType": "bytes",
          "name": "signature",
          "type": "bytes"
        }
      ],
      "name": "withdraw",
      "outputs": [],
      "payable": false,
      "stateMutability": "nonpayable",
      "type": "function"
    },
    {
      "constant": true,
      "inputs": [
        {
          "internalType": "uint256",
          "name": "ticket_id",
          "type": "uint256"
        }
      ],
      "name": "getTicketAffiliation",
      "outputs": [
        {
          "internalType": "bool",
          "name": "active",
          "type": "bool"
        },
        {
          "internalType": "bytes32",
          "name": "group",
          "type": "bytes32"
        },
        {
          "internalType": "bytes32",
          "name": "category",
          "type": "bytes32"
        }
      ],
      "payable": false,
      "stateMutability": "view",
      "type": "function"
    },
    {
      "constant": true,
      "inputs": [
        {
          "internalType": "address",
          "name": "_owner",
          "type": "address"
        },
        {
          "internalType": "uint256",
          "name": "code",
          "type": "uint256"
        }
      ],
      "name": "isCodeConsummable",
      "outputs": [
        {
          "internalType": "bool",
          "name": "",
          "type": "bool"
        }
      ],
      "payable": false,
      "stateMutability": "view",
      "type": "function"
    },
    {
      "constant": false,
      "inputs": [
        {
          "internalType": "string",
          "name": "id",
          "type": "string"
        },
        {
          "internalType": "bytes32[]",
          "name": "b32",
          "type": "bytes32[]"
        },
        {
          "internalType": "uint256[]",
          "name": "uints",
          "type": "uint256[]"
        },
        {
          "internalType": "address[]",
          "name": "addr",
          "type": "address[]"
        },
        {
          "internalType": "bytes",
          "name": "bs",
          "type": "bytes"
        }
      ],
      "name": "attach",
      "outputs": [],
      "payable": false,
      "stateMutability": "nonpayable",
      "type": "function"
    },
    {
      "constant": false,
      "inputs": [
        {
          "internalType": "string",
          "name": "id",
          "type": "string"
        },
        {
          "internalType": "bytes32[]",
          "name": "b32",
          "type": "bytes32[]"
        },
        {
          "internalType": "uint256[]",
          "name": "uints",
          "type": "uint256[]"
        },
        {
          "internalType": "address[]",
          "name": "addr",
          "type": "address[]"
        },
        {
          "internalType": "bytes",
          "name": "bs",
          "type": "bytes"
        }
      ],
      "name": "mint",
      "outputs": [],
      "payable": false,
      "stateMutability": "nonpayable",
      "type": "function"
    },
    {
      "constant": true,
      "inputs": [
        {
          "internalType": "address",
          "name": "controller",
          "type": "address"
        },
        {
          "internalType": "string",
          "name": "id",
          "type": "string"
        },
        {
          "internalType": "uint256",
          "name": "ticketId",
          "type": "uint256"
        }
      ],
      "name": "hasAuthorityUpon",
      "outputs": [
        {
          "internalType": "bool",
          "name": "",
          "type": "bool"
        }
      ],
      "payable": false,
      "stateMutability": "view",
      "type": "function"
    }
  ],
  "bytecode": "0x608060405234801561001057600080fd5b5060405162002b1d38038062002b1d8339818101604052604081101561003557600080fd5b508051602091820151604080518082018252600f81526e2a1b99189021b7b73a3937b63632b960891b818601528151808301835260018152600360fc1b818701528251608081018452828152958601819052918501839052306060860152929391929183906100ac906001600160e01b036100da16565b6000555050600280546001600160a01b0319166001600160a01b0394909416939093179092555061015e9050565b6000604051808062002acb60529139604080519182900360520182208551805160209182012081880151805190830120888501516060808b015185890196909652878701939093529186015260808501526001600160a01b0390911660a0808501919091528251808503909101815260c09093019091528151910120915050919050565b61295d806200016e6000396000f3fe608060405234801561001057600080fd5b50600436106100b45760003560e01c8063add0b5f811610071578063add0b5f814610857578063ade373ae14610883578063b168e96e146108a9578063c2038236146108c6578063cee6edfc146108f2578063fc4564a614610916576100b4565b806314155226146100b957806350b44712146100f95780635112e7c214610136578063574c30ea146103e75780636ac69f28146104e257806389d9b56b146105a8575b600080fd5b6100e5600480360360408110156100cf57600080fd5b506001600160a01b038135169060200135610994565b604080519115158252519081900360200190f35b6101166004803603602081101561010f57600080fd5b50356109c0565b604080519315158452602084019290925282820152519081900360600190f35b6103e5600480360360a081101561014c57600080fd5b810190602081018135600160201b81111561016657600080fd5b82018360208201111561017857600080fd5b803590602001918460018302840111600160201b8311171561019957600080fd5b91908080601f0160208091040260200160405190810160405280939291908181526020018383808284376000920191909152509295949360208101935035915050600160201b8111156101eb57600080fd5b8201836020820111156101fd57600080fd5b803590602001918460208302840111600160201b8311171561021e57600080fd5b9190808060200260200160405190810160405280939291908181526020018383602002808284376000920191909152509295949360208101935035915050600160201b81111561026d57600080fd5b82018360208201111561027f57600080fd5b803590602001918460208302840111600160201b831117156102a057600080fd5b9190808060200260200160405190810160405280939291908181526020018383602002808284376000920191909152509295949360208101935035915050600160201b8111156102ef57600080fd5b82018360208201111561030157600080fd5b803590602001918460208302840111600160201b8311171561032257600080fd5b9190808060200260200160405190810160405280939291908181526020018383602002808284376000920191909152509295949360208101935035915050600160201b81111561037157600080fd5b82018360208201111561038357600080fd5b803590602001918460018302840111600160201b831117156103a457600080fd5b91908080601f0160208091040260200160405190810160405280939291908181526020018383808284376000920191909152509295506109e5945050505050565b005b6103e560048036036101008110156103fe57600080fd5b6001600160a01b038235169190810190604081016020820135600160201b81111561042857600080fd5b82018360208201111561043a57600080fd5b803590602001918460018302840111600160201b8311171561045b57600080fd5b919390926001600160a01b03833581169360208101359360408201359092169260608201359260808301359290919060c081019060a00135600160201b8111156104a457600080fd5b8201836020820111156104b657600080fd5b803590602001918460018302840111600160201b831117156104d757600080fd5b5090925090506111e7565b610596600480360360408110156104f857600080fd5b6001600160a01b038235169190810190604081016020820135600160201b81111561052257600080fd5b82018360208201111561053457600080fd5b803590602001918460018302840111600160201b8311171561055557600080fd5b91908080601f01602080910402602001604051908101604052809392919081815260200183838082843760009201919091525092955061153a945050505050565b60408051918252519081900360200190f35b6103e5600480360360a08110156105be57600080fd5b810190602081018135600160201b8111156105d857600080fd5b8201836020820111156105ea57600080fd5b803590602001918460018302840111600160201b8311171561060b57600080fd5b91908080601f0160208091040260200160405190810160405280939291908181526020018383808284376000920191909152509295949360208101935035915050600160201b81111561065d57600080fd5b82018360208201111561066f57600080fd5b803590602001918460208302840111600160201b8311171561069057600080fd5b9190808060200260200160405190810160405280939291908181526020018383602002808284376000920191909152509295949360208101935035915050600160201b8111156106df57600080fd5b8201836020820111156106f157600080fd5b803590602001918460208302840111600160201b8311171561071257600080fd5b9190808060200260200160405190810160405280939291908181526020018383602002808284376000920191909152509295949360208101935035915050600160201b81111561076157600080fd5b82018360208201111561077357600080fd5b803590602001918460208302840111600160201b8311171561079457600080fd5b9190808060200260200160405190810160405280939291908181526020018383602002808284376000920191909152509295949360208101935035915050600160201b8111156107e357600080fd5b8201836020820111156107f557600080fd5b803590602001918460018302840111600160201b8311171561081657600080fd5b91908080601f0160208091040260200160405190810160405280939291908181526020018383808284376000920191909152509295506115e7945050505050565b6100e56004803603604081101561086d57600080fd5b506001600160a01b038135169060200135611d34565b6105966004803603602081101561089957600080fd5b50356001600160a01b0316611d54565b610116600480360360208110156108bf57600080fd5b5035611d66565b610596600480360360408110156108dc57600080fd5b50803590602001356001600160a01b0316611d89565b6108fa611db1565b604080516001600160a01b039092168252519081900360200190f35b6100e56004803603606081101561092c57600080fd5b6001600160a01b038235169190810190604081016020820135600160201b81111561095657600080fd5b82018360208201111561096857600080fd5b803590602001918460018302840111600160201b8311171561098957600080fd5b919350915035611dc0565b6001600160a01b03919091166000908152600560209081526040808320938352929052205460ff161590565b60046020526000908152604090208054600182015460029092015460ff909116919083565b604080516020810190915260008082528451600292839290918190841115610a3e5760405162461bcd60e51b81526004018080602001828103825260418152602001806124556041913960600191505060405180910390fd5b600287511015610a7f5760405162461bcd60e51b81526004018080602001828103825260308152602001806127616030913960400191505060405180910390fd5b600088600081518110610a8e57fe5b6020026020010151905087600081518110610aa557fe5b60200260200101519250600088600181518110610abe57fe5b60200260200101519050610ad2848d61153a565b92508115610c89578160020260028b51031015610b205760405162461bcd60e51b815260040180806020018281038252602b815260200180612636602b913960400191505060405180910390fd5b8160028a51031015610b635760405162461bcd60e51b815260040180806020018281038252602a81526020018061260c602a913960400191505060405180910390fd5b60005b82811015610c7a57610baf868c836002028b0181518110610b8357fe5b602002602001015160405160200180828152602001915050604051602081830303815290604052611e36565b9550610bc9868c836002028b6001010181518110610b8357fe5b9550610c1b868b838a0181518110610bdd57fe5b602002602001015160405160200180826001600160a01b03166001600160a01b03168152602001915050604051602081830303815290604052611e36565b9550610c72848c836002028b0181518110610c3257fe5b60200260200101518d846002028c6001010181518110610c4e57fe5b60200260200101518d858c0181518110610c6457fe5b602002602001015186611eb3565b600101610b66565b50816002028701965081860195505b505060008589510311610ccd5760405162461bcd60e51b815260040180806020018281038252602a8152602001806126fc602a913960400191505060405180910390fd5b6000888681518110610cdb57fe5b6020026020010151905085600101955060008111610d2a5760405162461bcd60e51b815260040180806020018281038252602c815260200180612661602c913960400191505060405180910390fd5b808a5114610d695760405162461bcd60e51b81526004018080602001828103825260258152602001806127916025913960400191505060405180910390fd5b806041885181610d7557fe5b04148015610d8c57506041875181610d8957fe5b06155b610dc75760405162461bcd60e51b81526004018080602001828103825260368152602001806128f36036913960400191505060405180910390fd5b808589510314610e085760405162461bcd60e51b815260040180806020018281038252602a8152602001806124da602a913960400191505060405180910390fd5b80600202868a510314610e4c5760405162461bcd60e51b815260040180806020018281038252602b815260200180612598602b913960400191505060405180910390fd5b60005b818110156111d9576060610e688983604102604161201e565b905060008b836002028a0181518110610e7d57fe5b6020026020010151905060008c846002028b6001010181518110610e9d57fe5b6020026020010151905060008e8581518110610eb557fe5b6020026020010151905060008d868c0181518110610ecf57fe5b6020026020010151905060008f600181518110610ee857fe5b6020026020010151905080421115610f315760405162461bcd60e51b81526004018080602001828103825260238152602001806125c36023913960400191505060405180910390fd5b60008b8a85888560405160200180806020018060200187815260200186815260200185815260200184815260200183810383526004815260200180631b5a5b9d60e21b815250602001838103825288818151815260200191508051906020019080838360005b83811015610faf578181015183820152602001610f97565b50505050905090810190601f168015610fdc5780820380516001836020036101000a031916815260200191505b509750505050505050506040516020818303038152906040528051906020012090508a6001600160a01b031661103e60405180606001604052808e6001600160a01b03168152602001866001600160a01b03168152602001848152508961209e565b6001600160a01b031614611099576040805162461bcd60e51b815260206004820152601f60248201527f54373231433a3a6d696e74207c20696e76616c6964207369676e617475726500604482015290519081900360640190fd5b6110a38b87612179565b5050600254604080516340c10f1960e01b81526001600160a01b03848116600483015260248201879052915160009392909216916340c10f199160448082019260209290919082900301818787803b1580156110fe57600080fd5b505af1158015611112573d6000803e3d6000fd5b505050506040513d602081101561112857600080fd5b50516040805160608082018352600180835260208084018f81528486018a81526000888152600484528790209551865460ff191690151517865590519285019290925590516002909301929092558251848152339281019290925281830189905291519293506001600160a01b0385169286928d927fe8102b212636be533c5229780374a660400f2669df05637094313b977f907302929081900390910190a4505050505050806001019050610e4f565b505050505050505050505050565b60006112298b8b8b8080601f01602080910402602001604051908101604052809392919081815260200183838082843760009201919091525061153a92505050565b604080518082018390526001600160a01b03808c166060830152608082018b9052891660a082015260c0810188905260e0808201889052602080830191909152600861010083015267776974686472617760c01b61012080840191909152835180840390910181526101409092019092528051910120909150428510156112e15760405162461bcd60e51b81526004018080602001828103825260268152602001806127ea6026913960400191505060405180910390fd5b8b6001600160a01b031661135760405180606001604052808f6001600160a01b031681526020018a6001600160a01b031681526020018481525086868080601f01602080910402602001604051908101604052809392919081815260200183838082843760009201919091525061209e92505050565b6001600160a01b03161461139c5760405162461bcd60e51b81526004018080602001828103825260238152602001806126b26023913960400191505060405180910390fd5b60008281526001602090815260408083206001600160a01b038d1684529091529020548811156113fd5760405162461bcd60e51b81526004018080602001828103825260218152602001806128106021913960400191505060405180910390fd5b6114078c87612179565b886001600160a01b031663a9059cbb888a6040518363ffffffff1660e01b815260040180836001600160a01b03166001600160a01b0316815260200182815260200192505050602060405180830381600087803b15801561146757600080fd5b505af115801561147b573d6000803e3d6000fd5b505050506040513d602081101561149157600080fd5b505060008281526001602090815260408083206001600160a01b038d1684529091529020546114c6908963ffffffff61220c16565b60008381526001602090815260408083206001600160a01b03808f16808652918452938290209490945580518c81529182018a90528051928b169233927ffbde797d201c681b91056529119e0b02407c7bb96a4a2c75c01fc9667232c8db92908290030190a4505050505050505050505050565b6000828260405160200180836001600160a01b03166001600160a01b0316815260200180602001828103825283818151815260200191508051906020019080838360005b8381101561159657818101518382015260200161157e565b50505050905090810190601f1680156115c35780820380516001836020036101000a031916815260200191505b50935050505060405160208183030381529060405280519060200120905092915050565b6040805160208101909152600080825284516002928392909183111561163e5760405162461bcd60e51b81526004018080602001828103825260438152602001806125556043913960600191505060405180910390fd5b60028651101561167f5760405162461bcd60e51b81526004018080602001828103825260448152602001806124966044913960600191505060405180910390fd5b60008760008151811061168e57fe5b60200260200101519050866000815181106116a557fe5b602002602001015191506000876001815181106116be57fe5b6020026020010151905060006116d4848d61153a565b90508215611821578260020260018b510310156117225760405162461bcd60e51b815260040180806020018281038252602d81526020018061286d602d913960400191505060405180910390fd5b8260028a510310156117655760405162461bcd60e51b815260040180806020018281038252602c81526020018061289a602c913960400191505060405180910390fd5b60005b8381101561181257611785868c836002028b0181518110610b8357fe5b955061179f868c836002028b6001010181518110610b8357fe5b95506117b3868b838a0181518110610bdd57fe5b955061180a828c836002028b01815181106117ca57fe5b60200260200101518d846002028c60010101815181106117e657fe5b60200260200101518d858c01815181106117fc57fe5b602002602001015187611eb3565b600101611768565b50826002028701965082860195505b505050600084885103116118665760405162461bcd60e51b81526004018080602001828103825260308152602001806125046030913960400191505060405180910390fd5b600087858151811061187457fe5b60200260200101519050846001019450600081116118c35760405162461bcd60e51b81526004018080602001828103825260348152602001806127b66034913960400191505060405180910390fd5b808951146119025760405162461bcd60e51b81526004018080602001828103825260278152602001806126d56027913960400191505060405180910390fd5b8060030285895103146119465760405162461bcd60e51b815260040180806020018281038252602d8152602001806128c6602d913960400191505060405180910390fd5b80604187518161195257fe5b041480156119695750604186518161196657fe5b06155b6119a45760405162461bcd60e51b815260040180806020018281038252603c815260200180612831603c913960400191505060405180910390fd5b60005b81811015611d2757600089826003028801815181106119c257fe5b6020026020010151905060606119dd8984604102604161201e565b9050606060008d85815181106119ef57fe5b6020026020010151905060008d600181518110611a0857fe5b6020026020010151905060008e876003028d6001010181518110611a2857fe5b6020026020010151905081421115611a715760405162461bcd60e51b815260040180806020018281038252602581526020018061268d6025913960400191505060405180910390fd5b898387838560405160200180806020018060200187815260200186815260200185815260200184815260200183810383526006815260200180650c2e8e8c2c6d60d31b815250602001838103825288818151815260200191508051906020019080838360005b83811015611aef578181015183820152602001611ad7565b50505050905090810190601f168015611b1c5780820380516001836020036101000a031916815260200191505b509750505050505050506040516020818303038152906040529350611b418982612179565b5050506000818051906020012090506000600260009054906101000a90046001600160a01b03166001600160a01b0316636352211e8f886003028e6002010181518110611b8a57fe5b60200260200101516040518263ffffffff1660e01b81526004018082815260200191505060206040518083038186803b158015611bc657600080fd5b505afa158015611bda573d6000803e3d6000fd5b505050506040513d6020811015611bf057600080fd5b5051604080516060810182526001600160a01b03808c16808352908416602083015291810185905291925090611c26908661209e565b6001600160a01b031614611c6b5760405162461bcd60e51b81526004018080602001828103825260218152602001806125346021913960400191505060405180910390fd5b505050506000611c7b858e61153a565b905060008c8481518110611c8b57fe5b6020026020010151905060008c856003028b6001010181518110611cab57fe5b6020026020010151905060008d866003028c6002010181518110611ccb57fe5b602002602001015190508083857f45637791524519c9ee9cbcdc2d12b1a544365aa04e0545c28c8c7275092cf1138886604051808381526020018281526020019250505060405180910390a450505050508060010190506119a7565b5050505050505050505050565b600560209081526000928352604080842090915290825290205460ff1681565b60036020526000908152604090205481565b60009081526004602052604090208054600182015460029092015460ff90911692565b60009182526001602090815260408084206001600160a01b0393909316845291905290205490565b6002546001600160a01b031681565b60008181526004602052604081205460ff168015611e2d5750611e198585858080601f01602080910402602001604051908101604052809392919081815260200183838082843760009201919091525061153a92505050565b600083815260046020526040902060010154145b95945050505050565b6060806040519050835180825260208201818101602087015b81831015611e67578051835260209283019201611e4f565b50855184518101855292509050808201602086015b81831015611e94578051835260209283019201611e7c565b508651929092011591909101601f01601f191660405250905092915050565b604080516323b872dd60e01b81523360048201523060248201526044810186905290516001600160a01b038416916323b872dd9160648083019260209291908290030181600087803b158015611f0857600080fd5b505af1158015611f1c573d6000803e3d6000fd5b505050506040513d6020811015611f3257600080fd5b50508215611fc057604080516323b872dd60e01b81523360048201526001600160a01b038381166024830152604482018690529151918416916323b872dd916064808201926020929091908290030181600087803b158015611f9357600080fd5b505af1158015611fa7573d6000803e3d6000fd5b505050506040513d6020811015611fbd57600080fd5b50505b60008581526001602090815260408083206001600160a01b0386168452909152902054611ff3908563ffffffff61226916565b60009586526001602090815260408088206001600160a01b0390951688529390529190942055505050565b60608183018451101561203057600080fd5b60608215801561204b57604051915060208201604052612095565b6040519150601f8416801560200281840101858101878315602002848b0101015b8183101561208457805183526020928301920161206c565b5050858452601f01601f1916604052505b50949350505050565b60006120a8612434565b6120b1836122ca565b9050600080546120c0866123c6565b604051602001808061190160f01b8152506002018381526020018281526020019250505060405160208183030381529060405280519060200120905060018183600001518460200151856040015160405160008152602001604052604051808581526020018460ff1660ff1681526020018381526020018281526020019450505050506020604051602081039080840390855afa158015612165573d6000803e3d6000fd5b5050604051601f1901519695505050505050565b6001600160a01b038216600090815260056020908152604080832084845290915290205460ff16156121dc5760405162461bcd60e51b81526004018080602001828103825260268152602001806125e66026913960400191505060405180910390fd5b6001600160a01b03909116600090815260056020908152604080832093835292905220805460ff19166001179055565b600082821115612263576040805162461bcd60e51b815260206004820152601e60248201527f536166654d6174683a207375627472616374696f6e206f766572666c6f770000604482015290519081900360640190fd5b50900390565b6000828201838110156122c3576040805162461bcd60e51b815260206004820152601b60248201527f536166654d6174683a206164646974696f6e206f766572666c6f770000000000604482015290519081900360640190fd5b9392505050565b6122d2612434565b8151604114612328576040805162461bcd60e51b815260206004820152601860248201527f496e76616c6964207369676e6174757265206c656e6774680000000000000000604482015290519081900360640190fd5b60208201516040830151604184015160ff16601b81101561234757601b015b8060ff16601b148061235c57508060ff16601c145b6123a2576040805162461bcd60e51b8152602060048201526012602482015271125b9d985b1a59081d88185c99dd5b595b9d60721b604482015290519081900360640190fd5b6040805160608101825260ff90921682526020820193909352918201529050919050565b60006040518080612726603b91396040805191829003603b018220855160208088015188850151828701949094526001600160a01b03928316868601529190911660608501526080808501929092528251808503909201825260a09093019091528051910120915050919050565b60408051606081018252600080825260208201819052918101919091529056fe54373231433a3a6d696e74207c206d697373696e672075696e74735b30202620315d202863757272656e6379206e756d62657220262065787069726174696f6e2954373231433a3a617474616368207c206d697373696e6720616464725b305d20286576656e7420636f6e74726f6c6c657220616e64206665655f636f6c6c6563746f722954373231433a3a6d696e74207c206e6f7420656e6f756768207370616365206f6e20616464722028322954373231433a3a617474616368207c206d697373696e67206174746163686d656e74436f756e74206f6e2075696e747354373231433a3a617474616368207c20696e76616c6964207369676e617475726554373231433a3a617474616368207c206d697373696e672075696e74735b30202620315d202863757272656e6379206e756d62657220262065787069726174696f6e2954373231433a3a6d696e74207c206e6f7420656e6f756768207370616365206f6e2075696e74732028322954373231433a3a6d696e74207c20617574686f72697a6174696f6e206578706972656454373231433a3a636f6e73756d65436f6465207c20636f646520616c7265616479207573656454373231433a3a6d696e74207c206e6f7420656e6f756768207370616365206f6e20616464722028312954373231433a3a6d696e74207c206e6f7420656e6f756768207370616365206f6e2075696e74732028312954373231433a3a6d696e74207c2077687920776f756c6420796f75206d696e742030207469636b657473203f54373231433a3a617474616368207c20617574686f72697a6174696f6e206578706972656454373231433a3a7769746864726177207c20696e76616c6964207369676e617475726554373231433a3a617474616368207c206e6f7420656e6f756768207370616365206f6e2062333254373231433a3a6d696e74207c206d697373696e67207469636b6574436f756e74206f6e2075696e7473417574686f72697a6174696f6e286164647265737320656d69747465722c61646472657373206772616e7465652c6279746573333220686173682954373231433a3a6d696e74207c206d697373696e6720616464725b305d20286576656e7420636f6e74726f6c6c65722954373231433a3a6d696e74207c206e6f7420656e6f756768207370616365206f6e2062333254373231433a3a617474616368207c2077687920776f756c6420796f75206174746163682030206174746163686d656e7473203f543732313a3a7769746864726177207c20617574686f72697a6174696f6e206578706972656454373231433a3a7769746864726177207c2062616c616e636520746f6f206c6f7754373231433a3a6174746163686d656e74207c206e6f7420656e6f756768207370616365206f7220696e76616c6964206c656e677468206f6e20627354373231433a3a617474616368207c206e6f7420656e6f756768207370616365206f6e2075696e74732028312954373231433a3a617474616368207c206e6f7420656e6f756768207370616365206f6e20616464722028312954373231433a3a617474616368207c206e6f7420656e6f756768207370616365206f6e2075696e74732028322954373231433a3a6d696e74207c206e6f7420656e6f756768207370616365206f7220696e76616c6964206c656e677468206f6e206273a265627a7a7231582015a9314a1ad323f8cf90f639d3ba4fbf494dc24921aaaa9eb2383bef52216a8864736f6c634300050f0032454950373132446f6d61696e28737472696e67206e616d652c737472696e672076657273696f6e2c75696e7432353620636861696e49642c6164647265737320766572696679696e67436f6e747261637429",
  "source": "pragma solidity 0.5.15;\n\nimport \"./ITicketForge_v0.sol\";\nimport \"@openzeppelin/contracts/token/ERC20/IERC20.sol\";\nimport \"@openzeppelin/contracts/math/SafeMath.sol\";\nimport \"./T721ControllerDomain_v0.sol\";\nimport \"./BytesUtil_v0.sol\";\n\n// @notice the T721Controller handles all the ticket minting and attachments\ncontract T721Controller_v0 is T721ControllerDomain_v0 {\n\n    using SafeMath for uint256;\n\n    event Mint(\n        bytes32 indexed group,\n        bytes32 indexed category,\n        address indexed owner,\n        uint256 ticket_id,\n        address buyer,\n        uint256 code\n    );\n\n    event Attach(\n        bytes32 indexed group,\n        bytes32 indexed attachment,\n        uint256 indexed ticket_id,\n        uint256 amount,\n        uint256 code\n    );\n\n    event Withdraw(\n        address indexed trigger,\n        address indexed target,\n        address indexed currency,\n        uint256 amount,\n        uint256 code\n    );\n\n    struct Currency {\n        bool active;\n        uint256 fix;\n        uint256 variable;\n    }\n\n    struct Affiliation {\n        bool active;\n        bytes32 group;\n        bytes32 category;\n    }\n\n    mapping (bytes32 => mapping (address => uint256)) balances;\n\n    ITicketForge_v0                     public t721;\n    mapping (address => uint)           public group_nonce;\n    mapping (uint256 => Affiliation)    public tickets;\n    mapping (address => mapping (uint256 => bool))           public authorization_code_registry;\n\n    constructor(address _t721, uint256 _chain_id)\n    T721ControllerDomain_v0(\"T721 Controller\", \"0\", _chain_id)\n    public {\n        t721 = ITicketForge_v0(_t721);\n    }\n\n    /**\n     * @notice Retrieve the current balance for a group\n     *\n     * @param group ID of the group\n     *\n     * @param currency Currency balance to inspect\n     */\n    function balanceOf(bytes32 group, address currency) public view returns (uint256) {\n        return balances[group][currency];\n    }\n\n    /**\n     * @notice Get identifier for the combo controller + id\n     *\n     * @param _owner The address of the controller\n     *\n     * @param id The id of the event\n     */\n    function getGroupID(address _owner, string memory id) public pure returns (bytes32) {\n        return keccak256(abi.encode(\n                _owner,\n                id\n            ));\n    }\n\n    /**\n     * @notice Withdraw event funds\n     *\n     * @param event_controller The address controlling the event\n     *\n     * @param id The event identifier\n     *\n     * @param currency The currency to withdraw\n     *\n     * @param amount The amount to withdraw\n     *\n     * @param target The recipient of the withdraw\n     *\n     * @param code The authorization code\n     *\n     * @param expiration Expiration timestamp of the authorization\n     *\n     * @param signature The signature to use to withdraw\n     */\n    function withdraw(\n        address event_controller,\n        string calldata id,\n        address currency,\n        uint256 amount,\n        address target,\n        uint256 code,\n        uint256 expiration,\n        bytes calldata signature\n    ) external {\n\n        bytes32 group = getGroupID(event_controller, id);\n\n        bytes32 hash = keccak256(\n            abi.encode(\n                \"withdraw\",\n                group,\n                currency,\n                amount,\n                target,\n                code,\n                expiration\n            )\n        );\n\n        require(block.timestamp <= expiration, \"T721::withdraw | authorization expired\");\n        require(verify(Authorization(event_controller, target, hash), signature) == event_controller,\n            \"T721C::withdraw | invalid signature\");\n        require(balances[group][currency] >= amount, \"T721C::withdraw | balance too low\");\n        consumeCode(event_controller, code);\n\n        IERC20(currency).transfer(target, amount);\n\n        balances[group][currency] = balances[group][currency].sub(amount);\n\n        emit Withdraw(msg.sender, target, currency, amount, code);\n    }\n\n    /**\n     * @notice Utility to recover group and category for a ticket id\n     *\n     * @param ticket_id The unique ticket id\n     */\n    function getTicketAffiliation(\n        uint256 ticket_id\n    ) external view returns (bool active, bytes32 group, bytes32 category) {\n        return (tickets[ticket_id].active, tickets[ticket_id].group, tickets[ticket_id].category);\n    }\n\n    /**\n     * @notice Helper used to verify if a unique consummable ID is available\n     *\n     * @param _owner The ticket issuer address\n     *\n     * @param code The code to consume\n     */\n    function consumeCode(address _owner, uint256 code) internal {\n        require(authorization_code_registry[_owner][code] == false, \"T721C::consumeCode | code already used\");\n\n        authorization_code_registry[_owner][code] = true;\n    }\n\n    /**\n     * @notice Helper used to verify if a unique consummable ID is available\n     *\n     * @param _owner The ticket issuer address\n     *\n     * @param code The code to verify\n     */\n    function isCodeConsummable(address _owner, uint256 code) public view returns (bool) {\n        return !authorization_code_registry[_owner][code];\n    }\n\n    function executePayement(\n        bytes32 group,\n        uint256 amount,\n        uint256 fee,\n        address currency,\n        address fee_collector\n    ) internal {\n\n        IERC20(currency).transferFrom(msg.sender, address(this), amount);\n        if (fee > 0) {\n            IERC20(currency).transferFrom(msg.sender, fee_collector, fee);\n        }\n\n        balances[group][currency] = balances[group][currency].add(amount);\n\n    }\n\n    /**\n     * @notice This is the core pre-purchase creation method. It binds attachments in exchange of payment.\n     *\n     * @param id This is the identifier of the event. When combining event controller address and this is, we get a\n     *           unique identifier used to regroup the tickets.\n     *\n     * @param b32 This parameter contains all the bytes32 arguments required to pay and mint the tickets\n     *\n     *                                +> There are no bytes32 arguments for the payment logics\n     *        |                       |\n     *\n     *                                +> These are the arguments used for the attachment logics\n     *        | attachment_1_category | < An attachment name is specified for each attachment\n     *        | attachment_2_category |\n     *        | attachment_3_category |\n     *        | attachment_4_category |\n     *        | attachment_5_category |\n     *\n     * @param uints This parameter contains all the uin256 arguments required to pay and attach the attachments\n     *\n     *                            +> These are the arguments used for the payment logics\n     *        | currency_count    | < This is the number of currency to use for the payment (in our example: 2)\n     *        | expiration        | < This is the authorization expiration timestamp\n     *        | currency_1_price  | < For each currency, the price paid to the organizer\n     *        | currency_1_fee    | < For each currency, the extra fee for T721\n     *        | currency_2_price  |\n     *        | currency_2_fee    |\n     *\n     *                            +> These are the arguments used for the minting process\n     *        | attachment_count  | < This is the number of tickets to mint\n     *        | amount_1          | < The amount of attachment to add for this type.\n     *        | code_1            | < The authorization code\n     *        | ticket_id_1       | < The ID of the ticket on which to bind the attachments\n     *        | amount_2          |\n     *        | code_2            |\n     *        | ticket_id_2       |\n     *        | amount_3          |\n     *        | code_3            |\n     *        | ticket_id_3       |\n     *        | amount_4          |\n     *        | code_4            |\n     *        | ticket_id_4       |\n     *        | amount_5          |\n     *        | code_5            |\n     *        | ticket_id_5       |\n     *\n     * @param addr This parameter contains all the address arguments required to pay and attach the attachments\n     *\n     *                            +> These are the arguments used for the payment logics\n     *        | event_controller  | < The address of the controller\n     *        | currency_1        | < The address of each currency\n     *        | currency_2        |\n     *\n     *                            +> There are no address arguments for attachment process\n     *        |                   |\n     *\n     * @param bs This parameter contains bytes used to pay and attach the attachments. The notation argument[23]\n     *           means it's a 23 bytes segment.\n     *\n     *                            +> There are no bytes arguments for the payment process\n     *        |                   |\n     *\n     *                            +> These are the arguments used for the attachment process\n     *        | auth_sig_1[65]     | < For each attachment, an authorization signature made of unique parameters\n     *        | auth_sig_2[65]     |\n     *        | auth_sig_3[65]     |\n     *        | auth_sig_4[65]     |\n     *        | auth_sig_5[65]     |\n     *\n     */\n    function attach(\n        string memory id,\n        bytes32[] memory b32,\n        uint256[] memory uints,\n        address[] memory addr,\n        bytes memory bs\n    ) public {\n\n        uint256 uints_idx = 2;\n        uint256 addr_idx = 2;\n        bytes memory prices = \"\";\n        address event_controller;\n\n        // Payment Processing\n        {\n            require(uints.length >= 2, \"T721C::attach | missing uints[0 & 1] (currency number & expiration)\");\n            require(addr.length >= 2, \"T721C::attach | missing addr[0] (event controller and fee_collector)\");\n\n            uint256 currency_number = uints[0];\n            event_controller = addr[0];\n            address fee_collector = addr[1];\n            bytes32 group = getGroupID(event_controller, id);\n\n            if (currency_number > 0) {\n\n                // Now that we now the number of currencies used for payment, we can verify that the required amount\n                // of arguments in uints and addr are respected\n                require(uints.length - 1 >= (currency_number * 2), \"T721C::attach | not enough space on uints (1)\");\n                require(addr.length - 2 >= currency_number, \"T721C::attach | not enough space on addr (1)\");\n\n                for (uint256 currency_idx = 0; currency_idx < currency_number; ++currency_idx) {\n\n                    prices = BytesUtil_v0.concat(prices, abi.encode(uints[uints_idx + (currency_idx * 2)]));\n                    prices = BytesUtil_v0.concat(prices, abi.encode(uints[uints_idx + 1 + (currency_idx * 2)]));\n                    prices = BytesUtil_v0.concat(prices, abi.encode(addr[addr_idx + currency_idx]));\n\n                    executePayement(\n                        group,\n                        uints[uints_idx + (currency_idx * 2)],\n                        uints[uints_idx + 1 + (currency_idx * 2)],\n                        addr[addr_idx + currency_idx],\n                        fee_collector\n                    );\n\n                }\n\n                uints_idx += currency_number * 2;\n                addr_idx += currency_number;\n\n            }\n\n\n        }\n\n        // Attachment Event Emission\n        {\n            // Same as above, first we check the bare minimum arguments\n            require(uints.length - uints_idx > 0, \"T721C::attach | missing attachmentCount on uints\");\n\n            uint256 attachment_number = uints[uints_idx];\n            ++uints_idx;\n\n            require(attachment_number > 0, \"T721C::attach | why would you attach 0 attachments ?\");\n            require(b32.length == attachment_number, \"T721C::attach | not enough space on b32\");\n            require(uints.length - uints_idx == attachment_number * 3, \"T721C::attach | not enough space on uints (2)\");\n            require(bs.length / 65 == attachment_number && bs.length % 65 == 0,\n                \"T721C::attachment | not enough space or invalid length on bs\");\n\n            for (uint256 attachment_idx = 0; attachment_idx < attachment_number; ++attachment_idx) {\n\n                // We extract arguments for one attachment\n                uint256 amount = uints[uints_idx + (attachment_idx * 3)];\n\n                // Signature Verification Scope\n                {\n\n                    bytes memory signature = BytesUtil_v0.slice(bs, (attachment_idx * 65), 65);\n                    bytes memory encoded;\n\n                    {\n                        bytes32 name = b32[attachment_idx];\n                        uint256 expiration = uints[1];\n                        uint256 code = uints[uints_idx + 1 + (attachment_idx * 3)];\n\n                        require(block.timestamp <= expiration, \"T721C::attach | authorization expired\");\n\n                        encoded = abi.encode(\n                            \"attach\",\n                            prices,\n                            name,\n                            amount,\n                            code,\n                            expiration\n                        );\n\n                        consumeCode(event_controller, code);\n                    }\n\n                    bytes32 hash = keccak256(encoded);\n\n                    address ticket_owner = t721.ownerOf(uints[uints_idx + 2 + (attachment_idx * 3)]);\n\n                    // Core verification, this is what controls the flow of minted tickets\n                    require(verify(Authorization(event_controller, ticket_owner, hash), signature) == event_controller,\n                        \"T721C::attach | invalid signature\");\n\n                }\n\n                // Attachment Emission\n                {\n\n                    bytes32 group = getGroupID(event_controller, id);\n                    bytes32 name = b32[attachment_idx];\n                    uint256 code = uints[uints_idx + 1 + (attachment_idx * 3)];\n                    uint256 ticket_id = uints[uints_idx + 2 + (attachment_idx * 3)];\n\n                    emit Attach(\n                        group,\n                        name,\n                        ticket_id,\n                        amount,\n                        code\n                    );\n\n                }\n\n            }\n\n        }\n\n    }\n\n    /**\n     * @notice This is the core ticket creation method. With a proper signature from the event controller, the method\n     *         can release several tickets for a payment made from one or more currencies (or for free). All examples\n     *         below show a use case where we use 2 payment methods to mint 5 tickets.\n     *\n     * @param id This is the identifier of the event. When combining event controller address and this is, we get a\n     *           unique identifier used to regroup the tickets.\n     *\n     * @param b32 This parameter contains all the bytes32 arguments required to pay and mint the tickets\n     *\n     *                            +> There are no bytes32 arguments for the payment logics\n     *        |                   |\n     *\n     *                            +> These are the arguments used for the minting logics\n     *        | ticket_1_category | < A category is specified for each ticket\n     *        | ticket_2_category |\n     *        | ticket_3_category |\n     *        | ticket_4_category |\n     *        | ticket_5_category |\n     *\n     * @param uints This parameter contains all the uin256 arguments required to pay and mint the tickets\n     *\n     *                            +> These are the arguments used for the payment logics\n     *        | currency_count    | < This is the number of currency to use for the payment (in our example: 2)\n     *        | expiration        | < This is the expiration timestamp of the authorization\n     *        | currency_1_price  | < For each currency, the price paid to the organizer\n     *        | currency_1_fee    | < For each currency, the extra fee for T721\n     *        | currency_2_price  |\n     *        | currency_2_fee    |\n     *\n     *                            +> These are the arguments used for the minting process\n     *        | ticket_count      | < This is the number of tickets to mint\n     *        | code_1            | < For each ticket, an authorization code is required. It is mixed with the\n     *        | code_2            |   signature to prevent replay attacks. It must be unique.\n     *        | code_3            |\n     *        | code_4            |\n     *        | code_5            |\n     *\n     * @param addr This parameter contains all the address arguments required to pay and mint the tickets\n     *\n     *                            +> These are the arguments used for the payment logics\n     *        | event_controller  | < The address of the controller\n     *        | currency_1        | < The address of each currency\n     *        | currency_2        |\n     *\n     *                            +> These are the arguments used for the minting process\n     *        | owner_1            | < For each ticket, its owner\n     *        | owner_2            |\n     *        | owner_3            |\n     *        | owner_4            |\n     *        | owner_5            |\n     *\n     * @param bs This parameter contains bytes used to pay and mint the tickets. The notation argument[23] means it's\n     *           a 23 bytes segment.\n     *\n     *                            +> There are no bytes arguments for the payment process\n     *        |                   |\n     *\n     *                            +> These are the arguments used for the minting process\n     *        | auth_sig_1[65]     | < For each ticket, an authorization signature made of unique parameters\n     *        | auth_sig_2[65]     |\n     *        | auth_sig_3[65]     |\n     *        | auth_sig_4[65]     |\n     *        | auth_sig_5[65]     |\n     *\n     */\n    function mint(\n        string memory id,\n        bytes32[] memory b32,\n        uint256[] memory uints,\n        address[] memory addr,\n        bytes memory bs\n    ) public {\n\n        uint256 uints_idx = 2;\n        uint256 addr_idx = 2;\n        bytes memory prices = \"\";\n        address event_controller;\n        bytes32 group;\n\n        // Payment Processing Scope\n        {\n\n            // We verify that the bare minimum arguments are here before accessing them\n            require(uints.length >= 2, \"T721C::mint | missing uints[0 & 1] (currency number & expiration)\");\n            require(addr.length >= 2, \"T721C::mint | missing addr[0] (event controller)\");\n\n            uint256 currency_number = uints[0];\n            event_controller = addr[0];\n            address fee_collector = addr[1];\n            group = getGroupID(event_controller, id);\n\n            if (currency_number > 0) {\n\n                // Now that we now the number of currencies used for payment, we can verify that the required amount\n                // of arguments in uints and addr are respected\n                require(uints.length - 2 >= (currency_number * 2), \"T721C::mint | not enough space on uints (1)\");\n                require(addr.length - 2 >= currency_number, \"T721C::mint | not enough space on addr (1)\");\n\n                for (uint256 currency_idx = 0; currency_idx < currency_number; ++currency_idx) {\n\n                    prices = BytesUtil_v0.concat(prices, abi.encode(uints[uints_idx + (currency_idx * 2)]));\n                    prices = BytesUtil_v0.concat(prices, abi.encode(uints[uints_idx + 1 + (currency_idx * 2)]));\n                    prices = BytesUtil_v0.concat(prices, abi.encode(addr[addr_idx + currency_idx]));\n\n                    executePayement(\n                        group,\n                        uints[uints_idx + (currency_idx * 2)],\n                        uints[uints_idx + 1 + (currency_idx * 2)],\n                        addr[addr_idx + currency_idx],\n                        fee_collector\n                    );\n\n                }\n\n                uints_idx += currency_number * 2;\n                addr_idx += currency_number;\n\n            }\n\n        }\n\n\n        // Ticket Minting Scope\n        {\n\n            // Same as above, first we check the bare minimum arguments\n            require(uints.length - uints_idx > 0, \"T721C::mint | missing ticketCount on uints\");\n\n            uint256 ticket_number = uints[uints_idx];\n            ++uints_idx;\n\n            // Being the last step, we can now verify exact amounts of arguments, and not a minimum required\n            require(ticket_number > 0, \"T721C::mint | why would you mint 0 tickets ?\");\n            require(b32.length == ticket_number, \"T721C::mint | not enough space on b32\");\n            require(bs.length / 65 == ticket_number && bs.length % 65 == 0,\n                \"T721C::mint | not enough space or invalid length on bs\");\n            require(addr.length - addr_idx == ticket_number, \"T721C::mint | not enough space on addr (2)\");\n            require(uints.length - uints_idx == (ticket_number * 2), \"T721C::mint | not enough space on uints (2)\");\n\n\n            for (uint256 ticket_idx = 0; ticket_idx < ticket_number; ++ticket_idx) {\n\n                // We extract arguments for one ticket\n                bytes memory signature = BytesUtil_v0.slice(bs, (ticket_idx * 65), 65);\n                uint256 code = uints[uints_idx + (ticket_idx * 2)];\n                uint256 scope_index = uints[uints_idx + 1 + (ticket_idx * 2)];\n                bytes32 category = b32[ticket_idx];\n                address ticket_owner = addr[addr_idx + ticket_idx];\n\n                // Signature Verification Scope\n                {\n\n                    uint256 expiration = uints[1];\n\n                    require(block.timestamp <= expiration, \"T721C::mint | authorization expired\");\n\n                    bytes32 hash = keccak256(abi.encode(\n                            \"mint\",\n                            prices,\n                            group,\n                            category,\n                            code,\n                            expiration\n                        ));\n\n                    // Core verification, this is what controls the flow of minted tickets\n                    require(verify(Authorization(event_controller, ticket_owner, hash), signature) == event_controller,\n                        \"T721C::mint | invalid signature\");\n                    consumeCode(event_controller, code);\n\n                }\n\n                // Minting Scope\n                {\n                    // We call the TicketForge to issue a new ticket\n                    uint256 ticket_id = t721.mint(ticket_owner, scope_index);\n\n                    // We register group and category information for the new ticket\n                    tickets[ticket_id] = Affiliation({\n                        active: true,\n                        group: group,\n                        category: category\n                        });\n\n                    // We emit a Mint event that is caught by the infrastructure\n                    emit Mint(group, category, ticket_owner, ticket_id, msg.sender, code);\n                }\n            }\n\n        }\n\n    }\n\n    /**\n     * @notice utility for external entities to verify that event controller + event id have authority upon a ticket\n     *\n     * @param controller Address of the event controller\n     *\n     * @param id ID of the event\n     *\n     * @param ticketId ID of the ticket\n     */\n    function hasAuthorityUpon(address controller, string calldata id, uint256 ticketId) external view returns (bool) {\n        return tickets[ticketId].active && tickets[ticketId].group == getGroupID(controller, id);\n    }\n\n}\n",
  "sourcePath": "/Users/mortimr/projects/repo/modules/@contracts_t721controller/contracts/v0/T721Controller_v0.sol",
  "compiler": {
    "name": "solc",
    "version": "0.5.15+commit.6a57276f.Emscripten.clang"
  },
  "schemaVersion": "3.0.9",
  "updatedAt": "2020-07-16T15:54:18.469Z",
  "devdoc": {
    "methods": {
      "attach(string,bytes32[],uint256[],address[],bytes)": {
        "params": {
          "addr": "This parameter contains all the address arguments required to pay and attach the attachments     *                            +> These are the arguments used for the payment logics       | event_controller  | < The address of the controller       | currency_1        | < The address of each currency       | currency_2        |     *                            +> There are no address arguments for attachment process       |                   |",
          "b32": "This parameter contains all the bytes32 arguments required to pay and mint the tickets     *                                +> There are no bytes32 arguments for the payment logics       |                       |     *                                +> These are the arguments used for the attachment logics       | attachment_1_category | < An attachment name is specified for each attachment       | attachment_2_category |       | attachment_3_category |       | attachment_4_category |       | attachment_5_category |",
          "bs": "This parameter contains bytes used to pay and attach the attachments. The notation argument[23]          means it's a 23 bytes segment.     *                            +> There are no bytes arguments for the payment process       |                   |     *                            +> These are the arguments used for the attachment process       | auth_sig_1[65]     | < For each attachment, an authorization signature made of unique parameters       | auth_sig_2[65]     |       | auth_sig_3[65]     |       | auth_sig_4[65]     |       | auth_sig_5[65]     |     ",
          "id": "This is the identifier of the event. When combining event controller address and this is, we get a          unique identifier used to regroup the tickets.",
          "uints": "This parameter contains all the uin256 arguments required to pay and attach the attachments     *                            +> These are the arguments used for the payment logics       | currency_count    | < This is the number of currency to use for the payment (in our example: 2)       | expiration        | < This is the authorization expiration timestamp       | currency_1_price  | < For each currency, the price paid to the organizer       | currency_1_fee    | < For each currency, the extra fee for T721       | currency_2_price  |       | currency_2_fee    |     *                            +> These are the arguments used for the minting process       | attachment_count  | < This is the number of tickets to mint       | amount_1          | < The amount of attachment to add for this type.       | code_1            | < The authorization code       | ticket_id_1       | < The ID of the ticket on which to bind the attachments       | amount_2          |       | code_2            |       | ticket_id_2       |       | amount_3          |       | code_3            |       | ticket_id_3       |       | amount_4          |       | code_4            |       | ticket_id_4       |       | amount_5          |       | code_5            |       | ticket_id_5       |"
        }
      },
      "balanceOf(bytes32,address)": {
        "params": {
          "currency": "Currency balance to inspect",
          "group": "ID of the group"
        }
      },
      "getGroupID(address,string)": {
        "params": {
          "_owner": "The address of the controller",
          "id": "The id of the event"
        }
      },
      "getTicketAffiliation(uint256)": {
        "params": {
          "ticket_id": "The unique ticket id"
        }
      },
      "hasAuthorityUpon(address,string,uint256)": {
        "params": {
          "controller": "Address of the event controller",
          "id": "ID of the event",
          "ticketId": "ID of the ticket"
        }
      },
      "isCodeConsummable(address,uint256)": {
        "params": {
          "_owner": "The ticket issuer address",
          "code": "The code to verify"
        }
      },
      "mint(string,bytes32[],uint256[],address[],bytes)": {
        "params": {
          "addr": "This parameter contains all the address arguments required to pay and mint the tickets     *                            +> These are the arguments used for the payment logics       | event_controller  | < The address of the controller       | currency_1        | < The address of each currency       | currency_2        |     *                            +> These are the arguments used for the minting process       | owner_1            | < For each ticket, its owner       | owner_2            |       | owner_3            |       | owner_4            |       | owner_5            |",
          "b32": "This parameter contains all the bytes32 arguments required to pay and mint the tickets     *                            +> There are no bytes32 arguments for the payment logics       |                   |     *                            +> These are the arguments used for the minting logics       | ticket_1_category | < A category is specified for each ticket       | ticket_2_category |       | ticket_3_category |       | ticket_4_category |       | ticket_5_category |",
          "bs": "This parameter contains bytes used to pay and mint the tickets. The notation argument[23] means it's          a 23 bytes segment.     *                            +> There are no bytes arguments for the payment process       |                   |     *                            +> These are the arguments used for the minting process       | auth_sig_1[65]     | < For each ticket, an authorization signature made of unique parameters       | auth_sig_2[65]     |       | auth_sig_3[65]     |       | auth_sig_4[65]     |       | auth_sig_5[65]     |     ",
          "id": "This is the identifier of the event. When combining event controller address and this is, we get a          unique identifier used to regroup the tickets.",
          "uints": "This parameter contains all the uin256 arguments required to pay and mint the tickets     *                            +> These are the arguments used for the payment logics       | currency_count    | < This is the number of currency to use for the payment (in our example: 2)       | expiration        | < This is the expiration timestamp of the authorization       | currency_1_price  | < For each currency, the price paid to the organizer       | currency_1_fee    | < For each currency, the extra fee for T721       | currency_2_price  |       | currency_2_fee    |     *                            +> These are the arguments used for the minting process       | ticket_count      | < This is the number of tickets to mint       | code_1            | < For each ticket, an authorization code is required. It is mixed with the       | code_2            |   signature to prevent replay attacks. It must be unique.       | code_3            |       | code_4            |       | code_5            |"
        }
      },
      "withdraw(address,string,address,uint256,address,uint256,uint256,bytes)": {
        "params": {
          "amount": "The amount to withdraw",
          "code": "The authorization code",
          "currency": "The currency to withdraw",
          "event_controller": "The address controlling the event",
          "expiration": "Expiration timestamp of the authorization",
          "id": "The event identifier",
          "signature": "The signature to use to withdraw",
          "target": "The recipient of the withdraw"
        }
      }
    }
  },
  "userdoc": {
    "methods": {
      "attach(string,bytes32[],uint256[],address[],bytes)": {
        "notice": "This is the core pre-purchase creation method. It binds attachments in exchange of payment."
      },
      "balanceOf(bytes32,address)": {
        "notice": "Retrieve the current balance for a group"
      },
      "getGroupID(address,string)": {
        "notice": "Get identifier for the combo controller + id"
      },
      "getTicketAffiliation(uint256)": {
        "notice": "Utility to recover group and category for a ticket id"
      },
      "hasAuthorityUpon(address,string,uint256)": {
        "notice": "utility for external entities to verify that event controller + event id have authority upon a ticket"
      },
      "isCodeConsummable(address,uint256)": {
        "notice": "Helper used to verify if a unique consummable ID is available"
      },
      "mint(string,bytes32[],uint256[],address[],bytes)": {
        "notice": "This is the core ticket creation method. With a proper signature from the event controller, the method        can release several tickets for a payment made from one or more currencies (or for free). All examples        below show a use case where we use 2 payment methods to mint 5 tickets."
      },
      "withdraw(address,string,address,uint256,address,uint256,uint256,bytes)": {
        "notice": "Withdraw event funds"
      }
    }
  }
}