{
  "contractName": "IdentitiesMock",
  "abi": [
    {
      "constant": true,
      "inputs": [
        {
          "internalType": "address",
          "name": "owner",
          "type": "address"
        },
        {
          "internalType": "uint256",
          "name": "salt",
          "type": "uint256"
        }
      ],
      "name": "predict",
      "outputs": [
        {
          "internalType": "address",
          "name": "",
          "type": "address"
        }
      ],
      "payable": false,
      "stateMutability": "view",
      "type": "function"
    },
    {
      "constant": false,
      "inputs": [
        {
          "internalType": "address",
          "name": "owner",
          "type": "address"
        },
        {
          "internalType": "uint256",
          "name": "salt",
          "type": "uint256"
        },
        {
          "internalType": "address",
          "name": "to",
          "type": "address"
        },
        {
          "internalType": "uint256",
          "name": "value",
          "type": "uint256"
        },
        {
          "internalType": "bytes",
          "name": "data",
          "type": "bytes"
        }
      ],
      "name": "dotx",
      "outputs": [],
      "payable": false,
      "stateMutability": "nonpayable",
      "type": "function"
    }
  ],
  "bytecode": "0x608060405234801561001057600080fd5b506105bd806100206000396000f3fe608060405234801561001057600080fd5b50600436106100365760003560e01c8063c790f8d41461003b578063e824f282146100d3575b600080fd5b6100d1600480360360a081101561005157600080fd5b6001600160a01b0382358116926020810135926040820135909216916060820135919081019060a08101608082013564010000000081111561009257600080fd5b8201836020820111156100a457600080fd5b803590602001918460018302840111640100000000831117156100c657600080fd5b50909250905061011b565b005b6100ff600480360360408110156100e957600080fd5b506001600160a01b0381351690602001356102bc565b604080516001600160a01b039092168252519081900360200190f35b600061012787876102bc565b6001600160a01b0316905061013b81610367565b156101f7576000819050806001600160a01b0316636ee4cb0d878787876040518563ffffffff1660e01b815260040180856001600160a01b03166001600160a01b03168152602001848152602001806020018281038252848482818152602001925080828437600081840152601f19601f82011690508083019250505095505050505050600060405180830381600087803b1580156101d957600080fd5b505af11580156101ed573d6000803e3d6000fd5b50505050506102b3565b60006102038789610373565b9050806001600160a01b0316636ee4cb0d878787876040518563ffffffff1660e01b815260040180856001600160a01b03166001600160a01b03168152602001848152602001806020018281038252848482818152602001925080828437600081840152601f19601f82011690508083019250505095505050505050600060405180830381600087803b15801561029957600080fd5b505af11580156102ad573d6000803e3d6000fd5b50505050505b50505050505050565b6000806102c983856103cc565b9050600060ff60f81b3083604051806020016102e49061040b565b818103601f199081018352601f90910116604081815282516020938401206001600160f81b0319969096168383015260609490941b6bffffffffffffffffffffffff19166021820152603581019290925260558083019490945282518083039094018452607590910190915281519101206001600160a01b031695945050505050565b3b63ffffffff16151590565b6000806060604051806020016103889061040b565b601f1982820381018352601f90910116604052905060006103a986866103cc565b9050808251602084016000f59250823b6103c257600080fd5b5090949350505050565b6040805160208082019490945260609290921b6bffffffffffffffffffffffff1916828201528051808303603401815260549092019052805191012090565b610170806104198339019056fe608060405234801561001057600080fd5b50610150806100206000396000f3fe60806040526004361061001e5760003560e01c80636ee4cb0d14610020575b005b34801561002c57600080fd5b5061001e6004803603606081101561004357600080fd5b6001600160a01b038235169160208101359181019060608101604082013564010000000081111561007357600080fd5b82018360208201111561008557600080fd5b803590602001918460018302840111640100000000831117156100a757600080fd5b5090925090506100ee848484848080601f0160208091040260200160405190810160405280939291908181526020018383808284376000920191909152506100f492505050565b50505050565b60405160008083516020850186885af13d806000843e81610113578083fd5b50505050505056fea265627a7a72315820e5e062c40f4d8a9f42bd34cfcc1fc3fce20c05e8bd46d1da82f1493c3a0c7fee64736f6c634300050f0032a265627a7a723158202d2266397ddd366c70829203fe9596e0c7ae2ca224a667943c92fc1a1095d05864736f6c634300050f0032",
  "source": "pragma solidity 0.5.15;\nimport \"./IdentityMock.sol\";\n\ncontract IdentitiesMock {\n\n    function _getSalt(uint256 _salt, address _sender) internal pure returns (bytes32) {\n        return keccak256(abi.encodePacked(_salt, _sender));\n    }\n\n    function _createWallet(uint256 _salt, address _sender) internal returns (IdentityMock) {\n        address payable addr;\n        bytes memory code = type(IdentityMock).creationCode;\n        bytes32 salt = _getSalt(_salt, _sender);\n\n        assembly {\n            addr := create2(0, add(code, 0x20), mload(code), salt)\n            if iszero(extcodesize(addr)) {\n                revert(0, 0)\n            }\n        }\n\n        return IdentityMock(addr);\n    }\n\n    function predict(address owner, uint256 salt) public view returns (address) {\n        bytes32 _salt = _getSalt(salt, owner);\n        bytes32 rawAddress = keccak256(\n            abi.encodePacked(\n                bytes1(0xff),\n                address(this),\n                _salt,\n                keccak256(type(IdentityMock).creationCode)\n            )\n        );\n\n        return address(bytes20(rawAddress << 96));\n    }\n\n    function isContract(address _addr) private view returns (bool) {\n        uint32 size;\n        assembly {\n            size := extcodesize(_addr)\n        }\n        return (size > 0);\n    }\n\n    function dotx(\n        address owner,\n        uint256 salt,\n        address to,\n        uint256 value,\n        bytes calldata data\n    ) external {\n\n        address payable id = address(bytes20(predict(owner, salt)));\n\n        if (isContract(id)) {\n            IdentityMock deployed = IdentityMock(id);\n            deployed.dotx(to, value, data);\n        } else {\n            IdentityMock deployed = _createWallet(salt, owner);\n            deployed.dotx(to, value, data);\n        }\n    }\n\n}\n",
  "sourcePath": "/Users/mortimr/projects/repo/modules/@contracts_dev/contracts/IdentitiesMock.sol",
  "compiler": {
    "name": "solc",
    "version": "0.5.15+commit.6a57276f.Emscripten.clang"
  },
  "schemaVersion": "3.0.9",
  "updatedAt": "2020-05-10T14:28:47.275Z",
  "devdoc": {
    "methods": {}
  },
  "userdoc": {
    "methods": {}
  }
}