{
  "contractName": "IdentityMock",
  "abi": [
    {
      "payable": true,
      "stateMutability": "payable",
      "type": "fallback"
    },
    {
      "constant": false,
      "inputs": [
        {
          "internalType": "address",
          "name": "to",
          "type": "address"
        },
        {
          "internalType": "uint256",
          "name": "value",
          "type": "uint256"
        },
        {
          "internalType": "bytes",
          "name": "data",
          "type": "bytes"
        }
      ],
      "name": "dotx",
      "outputs": [],
      "payable": false,
      "stateMutability": "nonpayable",
      "type": "function"
    }
  ],
  "bytecode": "0x608060405234801561001057600080fd5b50610150806100206000396000f3fe60806040526004361061001e5760003560e01c80636ee4cb0d14610020575b005b34801561002c57600080fd5b5061001e6004803603606081101561004357600080fd5b6001600160a01b038235169160208101359181019060608101604082013564010000000081111561007357600080fd5b82018360208201111561008557600080fd5b803590602001918460018302840111640100000000831117156100a757600080fd5b5090925090506100ee848484848080601f0160208091040260200160405190810160405280939291908181526020018383808284376000920191909152506100f492505050565b50505050565b60405160008083516020850186885af13d806000843e81610113578083fd5b50505050505056fea265627a7a72315820e5e062c40f4d8a9f42bd34cfcc1fc3fce20c05e8bd46d1da82f1493c3a0c7fee64736f6c634300050f0032",
  "source": "pragma solidity 0.5.15;\n\ncontract IdentityMock {\n    function _executeTx(address to, uint256 value, bytes memory data) internal {\n        assembly {\n            let message := mload(0x40)\n\n            let result := call(gas, to, value, add(data, 0x20), mload(data), 0, 0)\n\n            let size := returndatasize\n\n            returndatacopy(message, 0, size)\n\n            if eq(result, 0) { revert(message, size) }\n        }\n    }\n\n    function dotx(\n        address to,\n        uint256 value,\n        bytes calldata data\n    ) external {\n\n        _executeTx(to, value, data);\n\n    }\n\n    function() external payable {}\n\n}\n",
  "sourcePath": "/Users/mortimr/projects/repo/modules/@contracts_dev/contracts/IdentityMock.sol",
  "compiler": {
    "name": "solc",
    "version": "0.5.15+commit.6a57276f.Emscripten.clang"
  },
  "schemaVersion": "3.0.9",
  "updatedAt": "2020-05-10T14:28:45.861Z",
  "devdoc": {
    "methods": {}
  },
  "userdoc": {
    "methods": {}
  }
}