{
  "contractName": "MetaMarketplace_v0",
  "abi": [
    {
      "inputs": [
        {
          "internalType": "uint256",
          "name": "_chainId",
          "type": "uint256"
        },
        {
          "internalType": "address",
          "name": "_t721",
          "type": "address"
        },
        {
          "internalType": "address",
          "name": "_t721c",
          "type": "address"
        }
      ],
      "payable": false,
      "stateMutability": "nonpayable",
      "type": "constructor"
    },
    {
      "anonymous": false,
      "inputs": [
        {
          "indexed": true,
          "internalType": "address",
          "name": "buyer",
          "type": "address"
        },
        {
          "indexed": true,
          "internalType": "address",
          "name": "seller",
          "type": "address"
        },
        {
          "indexed": true,
          "internalType": "uint256",
          "name": "ticket",
          "type": "uint256"
        },
        {
          "indexed": false,
          "internalType": "uint256",
          "name": "nonce",
          "type": "uint256"
        },
        {
          "indexed": false,
          "internalType": "bytes",
          "name": "prices",
          "type": "bytes"
        }
      ],
      "name": "SealedOffer",
      "type": "event"
    },
    {
      "constant": true,
      "inputs": [],
      "name": "t721",
      "outputs": [
        {
          "internalType": "contract IERC721",
          "name": "",
          "type": "address"
        }
      ],
      "payable": false,
      "stateMutability": "view",
      "type": "function"
    },
    {
      "constant": true,
      "inputs": [],
      "name": "t721c",
      "outputs": [
        {
          "internalType": "contract IT721Controller_v0",
          "name": "",
          "type": "address"
        }
      ],
      "payable": false,
      "stateMutability": "view",
      "type": "function"
    },
    {
      "constant": true,
      "inputs": [
        {
          "internalType": "uint256",
          "name": "",
          "type": "uint256"
        }
      ],
      "name": "ticket_nonces",
      "outputs": [
        {
          "internalType": "uint256",
          "name": "",
          "type": "uint256"
        }
      ],
      "payable": false,
      "stateMutability": "view",
      "type": "function"
    },
    {
      "constant": true,
      "inputs": [
        {
          "internalType": "uint256",
          "name": "ticket",
          "type": "uint256"
        }
      ],
      "name": "getNonce",
      "outputs": [
        {
          "internalType": "uint256",
          "name": "nonce",
          "type": "uint256"
        }
      ],
      "payable": false,
      "stateMutability": "view",
      "type": "function"
    },
    {
      "constant": false,
      "inputs": [
        {
          "internalType": "string",
          "name": "id",
          "type": "string"
        },
        {
          "internalType": "uint256[]",
          "name": "uints",
          "type": "uint256[]"
        },
        {
          "internalType": "address[]",
          "name": "addr",
          "type": "address[]"
        },
        {
          "internalType": "bytes",
          "name": "bs",
          "type": "bytes"
        }
      ],
      "name": "sealSale",
      "outputs": [],
      "payable": false,
      "stateMutability": "nonpayable",
      "type": "function"
    }
  ],
  "bytecode": "0x608060405234801561001057600080fd5b506040516116ed3803806116ed8339818101604052606081101561003357600080fd5b50805160208083015160409384015184518086018652600f81526e4d6574614d61726b6574706c61636560881b818501528551808701875260018152600360fc1b81860152865160808101885282815294850181905295840185905230606085015293949193909290919085906100b2906001600160e01b036100ef16565b6000555050600180546001600160a01b039485166001600160a01b0319918216179091556002805493909416921691909117909155506101729050565b6000604051808061169b60529139604080519182900360520182208551805160209182012081880151805190830120888501516060808b015185890196909652878701939093529186015260808501526001600160a01b0390911660a0808501919091528251808503909101815260c09093019091528151910120915050919050565b61151a806101816000396000f3fe608060405234801561001057600080fd5b50600436106100575760003560e01c8063136220e91461005c5780633d46b81914610080578063729825f1146100af578063cee6edfc146100cc578063e349332b146100d4575b600080fd5b610064610303565b604080516001600160a01b039092168252519081900360200190f35b61009d6004803603602081101561009657600080fd5b5035610312565b60408051918252519081900360200190f35b61009d600480360360208110156100c557600080fd5b5035610324565b610064610336565b610301600480360360808110156100ea57600080fd5b810190602081018135600160201b81111561010457600080fd5b82018360208201111561011657600080fd5b803590602001918460018302840111600160201b8311171561013757600080fd5b91908080601f0160208091040260200160405190810160405280939291908181526020018383808284376000920191909152509295949360208101935035915050600160201b81111561018957600080fd5b82018360208201111561019b57600080fd5b803590602001918460208302840111600160201b831117156101bc57600080fd5b9190808060200260200160405190810160405280939291908181526020018383602002808284376000920191909152509295949360208101935035915050600160201b81111561020b57600080fd5b82018360208201111561021d57600080fd5b803590602001918460208302840111600160201b8311171561023e57600080fd5b9190808060200260200160405190810160405280939291908181526020018383602002808284376000920191909152509295949360208101935035915050600160201b81111561028d57600080fd5b82018360208201111561029f57600080fd5b803590602001918460018302840111600160201b831117156102c057600080fd5b91908080601f016020809104026020016040519081016040528093929190818152602001838380828437600092019190915250929550610345945050505050565b005b6002546001600160a01b031681565b60009081526003602052604090205490565b60036020526000908152604090205481565b6001546001600160a01b031681565b604080516020810190915260008152825160019160049182111561039a5760405162461bcd60e51b815260040180806020018281038252603381526020018061131f6033913960400191505060405180910390fd5b6000856000815181106103a957fe5b602002602001015190506000866001815181106103c257fe5b602002602001015190506000876002815181106103db57fe5b602002602001015190506000886003815181106103f457fe5b6020026020010151905060008a511161043e5760405162461bcd60e51b815260040180806020018281038252603181526020018061140e6031913960400191505060405180910390fd5b60008a60008151811061044d57fe5b60200260200101519050600081111561060e5780600202888c510310156104a55760405162461bcd60e51b815260040180806020018281038252602c8152602001806113a7602c913960400191505060405180910390fd5b80878b510310156104e75760405162461bcd60e51b815260040180806020018281038252602b815260200180611495602b913960400191505060405180910390fd5b60005b818110156105ff57610533878d836002028c018151811061050757fe5b602002602001015160405160200180828152602001915050604051602081830303815290604052610dad565b965061054d878d836002028c600101018151811061050757fe5b965061059f878c838b018151811061056157fe5b602002602001015160405160200180826001600160a01b03166001600160a01b03168152602001915050604051602081830303815290604052610dad565b96506105f78c826002028b01815181106105b557fe5b60200260200101518d836002028c60010101815181106105d157fe5b60200260200101518d848c01815181106105e757fe5b6020026020010151888a88610e2a565b6001016104ea565b50806002028801975080870196505b50868a51036003146106515760405162461bcd60e51b815260040180806020018281038252602c815260200180611469602c913960400191505060405180910390fd5b60008a888151811061065f57fe5b6020026020010151905060008b896001018151811061067a57fe5b6020026020010151905061068f858784610f47565b81856001600160a01b0316876001600160a01b03167f15d0ff71dab342335a22ae09bc22262458c06e5181c19efe52440a2c40fab507848b6040518083815260200180602001828103825283818151815260200191508051906020019080838360005b8381101561070a5781810151838201526020016106f2565b50505050905090810190601f1680156107375780820380516001836020036101000a031916815260200191505b50935050505060405180910390a460008c8a6002018151811061075657fe5b602002602001015190508042111561079f5760405162461bcd60e51b81526004018080602001828103825260248152602001806113526024913960400191505060405180910390fd5b600088888888878787604051602001808060200180602001896001600160a01b03166001600160a01b03168152602001886001600160a01b03166001600160a01b03168152602001876001600160a01b03166001600160a01b0316815260200186815260200185815260200184815260200183810383526008815260200180677365616c53616c6560c01b81525060200183810382528a818151815260200191508051906020019080838360005b8381101561086557818101518382015260200161084d565b50505050905090810190601f1680156108925780820380516001836020036101000a031916815260200191505b5099505050505050505050506040516020818303038152906040528051906020012090508b5160c3146108f65760405162461bcd60e51b815260040180806020018281038252602a81526020018061143f602a913960400191505060405180910390fd5b600061093a60405180606001604052808b6001600160a01b03168152602001306001600160a01b03168152602001848152506109358f60006041610fc1565b611041565b9050886001600160a01b0316816001600160a01b031614806109ea57506109608961111c565b80156109ea5750886001600160a01b031663b429afeb826040518263ffffffff1660e01b815260040180826001600160a01b03166001600160a01b0316815260200191505060206040518083038186803b1580156109bd57600080fd5b505afa1580156109d1573d6000803e3d6000fd5b505050506040513d60208110156109e757600080fd5b50515b610a255760405162461bcd60e51b81526004018080602001828103825260268152602001806114c06026913960400191505060405180910390fd5b506000610a6460405180606001604052808a6001600160a01b03168152602001306001600160a01b03168152602001848152506109358f604180610fc1565b9050876001600160a01b0316816001600160a01b03161480610b145750610a8a8861111c565b8015610b145750876001600160a01b031663b429afeb826040518263ffffffff1660e01b815260040180826001600160a01b03166001600160a01b0316815260200191505060206040518083038186803b158015610ae757600080fd5b505afa158015610afb573d6000803e3d6000fd5b505050506040513d6020811015610b1157600080fd5b50515b610b4f5760405162461bcd60e51b81526004018080602001828103825260278152602001806112f86027913960400191505060405180910390fd5b506000610b8f6040518060600160405280896001600160a01b03168152602001306001600160a01b03168152602001848152506109358f60826041610fc1565b9050866001600160a01b0316816001600160a01b031614610be15760405162461bcd60e51b81526004018080602001828103825260318152602001806113766031913960400191505060405180910390fd5b505050600260009054906101000a90046001600160a01b03166001600160a01b031663fc4564a6858f856040518463ffffffff1660e01b815260040180846001600160a01b03166001600160a01b0316815260200180602001838152602001828103825284818151815260200191508051906020019080838360005b83811015610c75578181015183820152602001610c5d565b50505050905090810190601f168015610ca25780820380516001836020036101000a031916815260200191505b5094505050505060206040518083038186803b158015610cc157600080fd5b505afa158015610cd5573d6000803e3d6000fd5b505050506040513d6020811015610ceb57600080fd5b5051610d285760405162461bcd60e51b81526004018080602001828103825260458152602001806112b36045913960600191505060405180910390fd5b6000828152600360205260409020548114610d8a576040805162461bcd60e51b815260206004820152601c60248201527f4d4d3a3a7365616c53616c65207c20696e76616c6964206e6f6e636500000000604482015290519081900360640190fd5b506000908152600360205260409020805460010190555050505050505050505050565b6060806040519050835180825260208201818101602087015b81831015610dde578051835260209283019201610dc6565b50855184518101855292509050808201602086015b81831015610e0b578051835260209283019201610df3565b508651929092011591909101601f01601f191660405250905092915050565b604080516323b872dd60e01b81526001600160a01b0384811660048301528581166024830152604482018990529151918616916323b872dd916064808201926020929091908290030181600087803b158015610e8557600080fd5b505af1158015610e99573d6000803e3d6000fd5b505050506040513d6020811015610eaf57600080fd5b50508415610f3f57604080516323b872dd60e01b81526001600160a01b0384811660048301528381166024830152604482018890529151918616916323b872dd916064808201926020929091908290030181600087803b158015610f1257600080fd5b505af1158015610f26573d6000803e3d6000fd5b505050506040513d6020811015610f3c57600080fd5b50505b505050505050565b600154604080516323b872dd60e01b81526001600160a01b038681166004830152858116602483015260448201859052915191909216916323b872dd91606480830192600092919082900301818387803b158015610fa457600080fd5b505af1158015610fb8573d6000803e3d6000fd5b50505050505050565b606081830184511015610fd357600080fd5b606082158015610fee57604051915060208201604052611038565b6040519150601f8416801560200281840101858101878315602002848b0101015b8183101561102757805183526020928301920161100f565b5050858452601f01601f1916604052505b50949350505050565b600061104b611292565b61105483611128565b90506000805461106386611224565b604051602001808061190160f01b8152506002018381526020018281526020019250505060405160208183030381529060405280519060200120905060018183600001518460200151856040015160405160008152602001604052604051808581526020018460ff1660ff1681526020018381526020018281526020019450505050506020604051602081039080840390855afa158015611108573d6000803e3d6000fd5b5050604051601f1901519695505050505050565b3b63ffffffff16151590565b611130611292565b8151604114611186576040805162461bcd60e51b815260206004820152601860248201527f496e76616c6964207369676e6174757265206c656e6774680000000000000000604482015290519081900360640190fd5b60208201516040830151604184015160ff16601b8110156111a557601b015b8060ff16601b14806111ba57508060ff16601c145b611200576040805162461bcd60e51b8152602060048201526012602482015271125b9d985b1a59081d88185c99dd5b595b9d60721b604482015290519081900360640190fd5b6040805160608101825260ff90921682526020820193909352918201529050919050565b600060405180806113d3603b91396040805191829003603b018220855160208088015188850151828701949094526001600160a01b03928316868601529190911660608501526080808501929092528251808503909201825260a09093019091528051910120915050919050565b60408051606081018252600080825260208201819052918101919091529056fe4d4d3a3a7365616c53616c65207c206576656e7420636f6e74726f6c6c657220686173206e6f20617574686f726974792075706f6e2070726f7669646564207469636b65744d4d3a3a7365616c53616c65207c20696e76616c69642073656c6c6572207369676e61747572654d4d3a3a7365616c53616c65207c206d697373696e6720616464725b302d335d20286163746f727320616464726573736573294d4d3a3a7365616c53616c65207c20617574686f72697a6174696f6e20657870697265644d4d3a3a7365616c53616c65207c20696e76616c6964206576656e745f636f6e74726f6c6c6572207369676e61747572654d4d3a3a7365616c53616c65207c206e6f7420656e6f756768207370616365206f6e2075696e747320283129417574686f72697a6174696f6e286164647265737320656d69747465722c61646472657373206772616e7465652c627974657333322068617368294d4d3a3a7365616c53616c65207c206d697373696e672075696e74735b305d202863757272656e6379206e756d626572294d4d3a3a7365616c53616c65207c206e6f7420656e6f75676874207370616365206f6e206273202831294d4d3a3a7365616c53616c65207c206e6f7420656e6f756768207370616365206f6e2075696e7473202832294d4d3a3a7365616c53616c65207c206e6f7420656e6f756768207370616365206f6e2061646472202831294d4d3a3a7365616c53616c65207c20696e76616c6964206275796572207369676e6174757265a265627a7a72315820cb6c18a636f384b1360fa2641416be35e2cca05fccf1e409e92852ab30b6f51e64736f6c634300050f0032454950373132446f6d61696e28737472696e67206e616d652c737472696e672076657273696f6e2c75696e7432353620636861696e49642c6164647265737320766572696679696e67436f6e747261637429",
  "source": "pragma solidity 0.5.15;\n\nimport \"@openzeppelin/contracts/token/ERC20/IERC20.sol\";\nimport \"@openzeppelin/contracts/token/ERC721/IERC721.sol\";\nimport \"./MetaMarketplaceDomain_v0.sol\";\nimport \"./BytesUtil_v0.sol\";\nimport \"./IRefractWallet_v0.sol\";\nimport \"./IT721Controller_v0.sol\";\n\n\ncontract MetaMarketplace_v0 is MetaMarketplaceDomain_v0 {\n\n    event SealedOffer(\n        address indexed buyer,\n        address indexed seller,\n        uint256 indexed ticket,\n        uint256 nonce,\n        bytes prices\n    );\n\n    IERC721 public t721;\n    IT721Controller_v0 public t721c;\n\n    mapping (uint256 => uint256) public ticket_nonces;\n\n    constructor(uint256 _chainId, address _t721, address _t721c)\n    MetaMarketplaceDomain_v0(\"MetaMarketplace\", \"0\", _chainId) public {\n        t721 = IERC721(_t721);\n        t721c = IT721Controller_v0(_t721c);\n    }\n\n    /**  @notice Recover the current ticket nonce\n     *\n     *  @param ticket Get the nonce of provided ticket ID\n     */\n    function getNonce(uint256 ticket) external view returns (uint256 nonce) {\n        return ticket_nonces[ticket];\n    }\n\n    function executePayment(\n        uint256 amount,\n        uint256 fee,\n        address currency,\n        address seller,\n        address buyer,\n        address fee_collector\n    ) internal {\n\n        IERC20(currency).transferFrom(buyer, seller, amount);\n        if (fee > 0) {\n            IERC20(currency).transferFrom(buyer, fee_collector, fee);\n        }\n\n    }\n\n    function executeTransfer(address seller, address buyer, uint256 ticket_id) internal {\n\n        IERC721(t721).transferFrom(seller, buyer, ticket_id);\n\n    }\n\n    function isContract(address _addr) internal view returns (bool){\n        uint32 size;\n        assembly {\n            size := extcodesize(_addr)\n        }\n        return (size > 0);\n    }\n\n    /**\n     * @notice seal an exchange between two users and triggers the payment.\n     *\n     * @param id This is the identifier of the event. When combining event controller address and this is, we get a\n     *           unique identifier used to regroup the tickets.\n     *\n     * @param uints This parameter contains all the uin256 arguments required to pay and exchange ticket\n     *\n     *                            +> These are the arguments used for the payment logics\n     *        | currency_count    | < This is the number of currency to use for the payment (in our example: 2)\n     *        | currency_1_price  | < For each currency, the price paid to the organizer\n     *        | currency_1_fee    | < For each currency, the extra fee for T721\n     *        | currency_2_price  |\n     *        | currency_2_fee    |\n     *\n     *                            +> These are the arguments used for the exchange process\n     *        | ticket_id         | < This is the ID of the ticket sold\n     *        | nonce             | < This is the exchange nonce\n     *        | expiration        | < This is the authorization expiration\n     *\n     * @param addr This parameter contains all the address arguments required to pay and exchange ticket\n     *\n     *                            +> These are the arguments used for the payment logics\n     *        | buyer             | < The address of buyer\n     *        | seller            | < The address of seller\n     *        | event_controller  | < The address of event_controller\n     *        | fee_collector     | < The address of fee_collector\n     *        | currency_1        | < The address of each currency\n     *        | currency_2        |\n     *\n     *                            +> There are no address arguments for the exchange process\n     *        |                   |\n     *\n     * @param bs This parameter contains bytes used to pay and mint the tickets. The notation argument[23] means it's\n     *           a 23 bytes segment.\n     *\n     *                            +> There are no bytes arguments for the payment process\n     *        |                   |\n     *\n     *                            +> These are the arguments used for the minting process\n     *        | buyer_sig[65]     | < Buyer signature\n     *        | seller_sig[65]    | < Seller signature\n     *        | evemt_sig[65]     | < Event authorization signature\n     *\n     *\n     */\n    function sealSale(string memory id, uint256[] memory uints, address[] memory addr, bytes memory bs) public {\n\n        uint256 uints_idx = 1;\n        uint256 addr_idx = 4;\n        bytes memory prices = \"\";\n        require(addr.length >= 4, \"MM::sealSale | missing addr[0-3] (actors addresses)\");\n        address payable buyer = address(uint160(addr[0]));\n        address payable seller = address(uint160(addr[1]));\n        address event_controller = addr[2];\n        address fee_collector = addr[3];\n\n        // Payment Processing Scope\n        {\n\n            // We verify that the bare minimum arguments are here before accessing them\n            require(uints.length > 0, \"MM::sealSale | missing uints[0] (currency number)\");\n\n            uint256 currency_number = uints[0];\n\n            if (currency_number > 0) {\n\n                // Now that we know the number of currencies used for payment, we can verify that the required amount\n                // of arguments in uints and addr are respected\n                require(uints.length - uints_idx >= (currency_number * 2),\n                    \"MM::sealSale | not enough space on uints (1)\");\n                require(addr.length - addr_idx >= currency_number, \"MM::sealSale | not enough space on addr (1)\");\n\n                for (uint256 currency_idx = 0; currency_idx < currency_number; ++currency_idx) {\n\n                    prices = BytesUtil_v0.concat(prices, abi.encode(uints[uints_idx + (currency_idx * 2)]));\n                    prices = BytesUtil_v0.concat(prices, abi.encode(uints[uints_idx + 1 + (currency_idx * 2)]));\n                    prices = BytesUtil_v0.concat(prices, abi.encode(addr[addr_idx + currency_idx]));\n\n                    executePayment(\n                        uints[uints_idx + (currency_idx * 2)],\n                        uints[uints_idx + 1 + (currency_idx * 2)],\n                        addr[addr_idx + currency_idx],\n                        seller,\n                        buyer,\n                        fee_collector\n                    );\n\n                }\n\n                uints_idx += currency_number * 2;\n                addr_idx += currency_number;\n\n            }\n\n        }\n\n        require(uints.length - uints_idx == 3, \"MM::sealSale | not enough space on uints (2)\");\n\n        uint256 ticket_id = uints[uints_idx];\n        uint256 nonce = uints[uints_idx + 1];\n\n        executeTransfer(seller, buyer, ticket_id);\n        emit SealedOffer(buyer, seller, ticket_id, nonce, prices);\n\n        // Verify all authorizations\n        {\n            uint256 expiration = uints[uints_idx + 2];\n            require(block.timestamp <= expiration, \"MM::sealSale | authorization expired\");\n\n            bytes32 hash = keccak256(\n                abi.encode(\n                    \"sealSale\",\n                    prices,\n                    buyer,\n                    seller,\n                    event_controller,\n                    ticket_id,\n                    nonce,\n                    expiration\n                )\n            );\n\n            require(bs.length == 65 * 3, \"MM::sealSale | not enought space on bs (1)\");\n\n            {\n                address signer = verify(Authorization(buyer, address(this), hash), BytesUtil_v0.slice(bs, 0, 65));\n                require(signer == buyer\n                || (isContract(buyer) && IRefractWallet_v0(buyer).isController(signer)),\n                    \"MM::sealSale | invalid buyer signature\");\n\n            }\n            {\n                address signer = verify(Authorization(seller, address(this), hash), BytesUtil_v0.slice(bs, 65, 65));\n                require(signer == seller\n                || (isContract(seller) && IRefractWallet_v0(seller).isController(signer)),\n                    \"MM::sealSale | invalid seller signature\");\n\n            }\n            {\n\n                address signer = verify(\n                    Authorization(event_controller, address(this), hash), BytesUtil_v0.slice(bs, 130, 65)\n                );\n                require(signer == event_controller, \"MM::sealSale | invalid event_controller signature\");\n\n            }\n\n        }\n\n        // Verify event controller validity\n        {\n            require(t721c.hasAuthorityUpon(event_controller, id, ticket_id),\n                \"MM::sealSale | event controller has no authority upon provided ticket\");\n            require(ticket_nonces[ticket_id] == nonce, \"MM::sealSale | invalid nonce\");\n\n            ++ticket_nonces[ticket_id];\n        }\n\n\n    }\n\n}\n",
  "sourcePath": "/Users/mortimr/projects/repo/modules/@contracts_metamarketplace/contracts/v0/MetaMarketplace_v0.sol",
  "compiler": {
    "name": "solc",
    "version": "0.5.15+commit.6a57276f.Emscripten.clang"
  },
  "schemaVersion": "3.0.9",
  "updatedAt": "2020-07-16T15:56:41.964Z",
  "devdoc": {
    "methods": {
      "getNonce(uint256)": {
        "params": {
          "ticket": "Get the nonce of provided ticket ID"
        }
      },
      "sealSale(string,uint256[],address[],bytes)": {
        "params": {
          "addr": "This parameter contains all the address arguments required to pay and exchange ticket     *                            +> These are the arguments used for the payment logics       | buyer             | < The address of buyer       | seller            | < The address of seller       | event_controller  | < The address of event_controller       | fee_collector     | < The address of fee_collector       | currency_1        | < The address of each currency       | currency_2        |     *                            +> There are no address arguments for the exchange process       |                   |",
          "bs": "This parameter contains bytes used to pay and mint the tickets. The notation argument[23] means it's          a 23 bytes segment.     *                            +> There are no bytes arguments for the payment process       |                   |     *                            +> These are the arguments used for the minting process       | buyer_sig[65]     | < Buyer signature       | seller_sig[65]    | < Seller signature       | evemt_sig[65]     | < Event authorization signature     *",
          "id": "This is the identifier of the event. When combining event controller address and this is, we get a          unique identifier used to regroup the tickets.",
          "uints": "This parameter contains all the uin256 arguments required to pay and exchange ticket     *                            +> These are the arguments used for the payment logics       | currency_count    | < This is the number of currency to use for the payment (in our example: 2)       | currency_1_price  | < For each currency, the price paid to the organizer       | currency_1_fee    | < For each currency, the extra fee for T721       | currency_2_price  |       | currency_2_fee    |     *                            +> These are the arguments used for the exchange process       | ticket_id         | < This is the ID of the ticket sold       | nonce             | < This is the exchange nonce       | expiration        | < This is the authorization expiration"
        }
      }
    }
  },
  "userdoc": {
    "methods": {
      "getNonce(uint256)": {
        "notice": "Recover the current ticket nonce"
      },
      "sealSale(string,uint256[],address[],bytes)": {
        "notice": "seal an exchange between two users and triggers the payment."
      }
    }
  }
}