{
  "contractName": "SmartWalletMock_v0",
  "abi": [
    {
      "inputs": [
        {
          "internalType": "address",
          "name": "_controller",
          "type": "address"
        }
      ],
      "payable": false,
      "stateMutability": "nonpayable",
      "type": "constructor"
    },
    {
      "constant": true,
      "inputs": [],
      "name": "controller",
      "outputs": [
        {
          "internalType": "address",
          "name": "",
          "type": "address"
        }
      ],
      "payable": false,
      "stateMutability": "view",
      "type": "function"
    },
    {
      "constant": true,
      "inputs": [
        {
          "internalType": "address",
          "name": "_controller",
          "type": "address"
        }
      ],
      "name": "isController",
      "outputs": [
        {
          "internalType": "bool",
          "name": "",
          "type": "bool"
        }
      ],
      "payable": false,
      "stateMutability": "view",
      "type": "function"
    }
  ],
  "bytecode": "0x608060405234801561001057600080fd5b5060405161014c38038061014c8339818101604052602081101561003357600080fd5b5051600080546001600160a01b039092166001600160a01b031990921691909117905560e8806100646000396000f3fe6080604052348015600f57600080fd5b506004361060325760003560e01c8063b429afeb146037578063f77c479114606e575b600080fd5b605a60048036036020811015604b57600080fd5b50356001600160a01b03166090565b604080519115158252519081900360200190f35b607460a4565b604080516001600160a01b039092168252519081900360200190f35b6000546001600160a01b0391821691161490565b6000546001600160a01b03168156fea265627a7a72315820d8ebf28e553c3eec53395394d34a7d1e9f0ed0bd89eb52ed8dd00e8bbc0119c364736f6c634300050f0032",
  "source": "pragma solidity 0.5.15;\nimport \"@openzeppelin/contracts/token/ERC20/IERC20.sol\";\n\ncontract SmartWalletMock_v0 {\n\n    address public controller;\n\n    constructor (address _controller)\n    public {\n        controller = _controller;\n    }\n\n    function isController(address _controller) external view returns (bool) {\n        return controller == _controller;\n    }\n\n}\n",
  "sourcePath": "/Users/mortimr/projects/repo/modules/@contracts_metamarketplace/contracts/v0/mocks/SmartWalletMock_v0.sol",
  "compiler": {
    "name": "solc",
    "version": "0.5.15+commit.6a57276f.Emscripten.clang"
  },
  "schemaVersion": "3.0.9",
  "updatedAt": "2020-07-16T15:54:28.402Z",
  "devdoc": {
    "methods": {}
  },
  "userdoc": {
    "methods": {}
  }
}