{
  "contractName": "T721ControllerMock_v0",
  "abi": [
    {
      "constant": false,
      "inputs": [
        {
          "internalType": "bool",
          "name": "value",
          "type": "bool"
        }
      ],
      "name": "setReturnedValue",
      "outputs": [],
      "payable": false,
      "stateMutability": "nonpayable",
      "type": "function"
    },
    {
      "constant": true,
      "inputs": [
        {
          "internalType": "address",
          "name": "controller",
          "type": "address"
        },
        {
          "internalType": "string",
          "name": "id",
          "type": "string"
        },
        {
          "internalType": "uint256",
          "name": "ticketId",
          "type": "uint256"
        }
      ],
      "name": "hasAuthorityUpon",
      "outputs": [
        {
          "internalType": "bool",
          "name": "",
          "type": "bool"
        }
      ],
      "payable": false,
      "stateMutability": "view",
      "type": "function"
    }
  ],
  "bytecode": "0x60806040526000805460ff1916600117905534801561001d57600080fd5b506101468061002d6000396000f3fe608060405234801561001057600080fd5b50600436106100365760003560e01c8063e1d4c9031461003b578063fc4564a61461005c575b600080fd5b61005a6004803603602081101561005157600080fd5b503515156100f0565b005b6100dc6004803603606081101561007257600080fd5b6001600160a01b03823516919081019060408101602082013564010000000081111561009d57600080fd5b8201836020820111156100af57600080fd5b803590602001918460018302840111640100000000831117156100d157600080fd5b919350915035610103565b604080519115158252519081900360200190f35b6000805460ff1916911515919091179055565b60005460ff1694935050505056fea265627a7a72315820cfbe4a72f93b6a3ee394844e5e730f776dd7ea88b3c730b7200165a196c0c51e64736f6c634300050f0032",
  "source": "pragma solidity 0.5.15;\n\ncontract T721ControllerMock_v0 {\n\n    bool ret = true;\n\n    function setReturnedValue(bool value) public {\n        ret = value;\n    }\n\n    function hasAuthorityUpon(address controller, string calldata id, uint256 ticketId) external view returns (bool) {\n        return ret;\n    }\n\n}\n",
  "sourcePath": "/Users/mortimr/projects/repo/modules/@contracts_metamarketplace/contracts/v0/mocks/T721ControllerMock_v0.sol",
  "compiler": {
    "name": "solc",
    "version": "0.5.15+commit.6a57276f.Emscripten.clang"
  },
  "schemaVersion": "3.0.9",
  "updatedAt": "2020-07-16T15:56:42.009Z",
  "devdoc": {
    "methods": {}
  },
  "userdoc": {
    "methods": {}
  }
}